:100000000C9491000C94B9000C94B9000C94B900B4
:100010000C94B9000C94B9000C94B9000C94B9007C
:100020000C94B9000C94B9000C94B9000C94030B17
:100030000C94B9000C94B9000C94B9000C94B9005C
:100040000C94C6120C94B9000C94B7050C9491054D
:100050000C94B9000C94B9000C94B9000C94B9003C
:100060000C94B9000C94B900E301E901EF01F5012A
:10007000FB0101020702000307030E0315031C0323
:100080003303230333032A034E414E494E49545947
:10009000494E46CDCCCC3D0AD7233C17B7D1387753
:1000A000CC2B329595E6241FB14F0A000020410069
:1000B00000C84200401C4620BCBE4CCA1B0E5AAEB3
:1000C000C59D74010204081020408001020408103C
:1000D000200102040810200000000023002600294F
:1000E0000000000000250028002B00040404040484
:1000F00004040402020202020203030303030300D6
:10010000000000240027002A00000000080002016F
:1001100000000304070000000000000000004D176D
:10012000241911241FBECFEFD8E0DEBFCDBF11E0F0
:10013000A0E0B1E0EAE9F0E402C005900D92AC3B2A
:10014000B107D9F723E0ACEBB1E001C01D92A53AAD
:10015000B207E1F710E0C0E9D0E004C02197FE014A
:100160000E94A41CCF38D107C9F70E9410130C9429
:1001700040200C9400000895CF92DF92EF92FF92FE
:100180000F931F93CF93DF936C017A018B01C0E033
:10019000D0E0CE15DF0581F0D8016D918D01D6013B
:1001A000ED91FC910190F081E02DC6010995892B1C
:1001B00011F02196EECF7E01C701DF91CF911F9103
:1001C0000F91FF90EF90DF90CF90089580E090E046
:1001D0000895FC01538D448D252F30E0842F90E04D
:1001E000821B930B541710F0CF9608950197089532
:1001F000FC01918D828D981761F0828DDF01A80F2F
:10020000B11D5D968C91928D9F5F9F73928F90E050
:1002100008958FEF9FEF0895FC01918D828D9817BF
:1002200031F0828DE80FF11D858D90E008958FEFFC
:100230009FEF0895FC01918D228D892F90E0805CC5
:100240009F4F821B91098F73992708958DEB91E041
:100250000E941A0121E0892B09F420E0822F0895E1
:10026000FC01848DDF01A80FB11DA35ABF4F2C9153
:10027000848D90E001968F739927848FA689B78922
:100280002C93A089B1898C91837080648C93938D19
:10029000848D981306C00288F389E02D80818F7DBC
:1002A00080830895EF92FF920F931F93CF93DF9374
:1002B000EC0181E0888F9B8D8C8D981305C0E889B7
:1002C000F989808185FD26C0F62E0B8D10E00F5F29
:1002D0001F4F0F731127E02E8C8DE8120CC00FB644
:1002E00007FCFACFE889F989808185FFF5CFCE0137
:1002F0000E943001F1CF8B8DFE01E80FF11DE35A12
:10030000FF4FF0829FB7F8940B8FEA89FB898081B9
:1003100080620AC09FB7F894EE89FF896083E889FC
:10032000F98980818370806480839FBF81E090E041
:10033000DF91CF911F910F91FF90EF900895CF9390
:10034000DF93EC01888D8823C9F0EA89FB898081DD
:1003500085FD05C0A889B9898C9186FD0FC00FB6AF
:1003600007FCF5CF808185FFF2CFA889B9898C91F0
:1003700085FFEDCFCE010E943001E7CFDF91CF9115
:10038000089580E090E0892B29F00E9426018111D8
:100390000C9400000895CF93DF934770552766278C
:1003A0007727FA013197EC01A881B981E730F1058F
:1003B00020F4EC5CFF4F0C94A41C1496ED91FC917E
:1003C000159761E029C01496ED91FC91159765E0B1
:1003D00023C01496ED91FC91159764E01DC014960E
:1003E000ED91FC91159766E017C01496ED91FC9184
:1003F000159762E011C01496ED91FC9115976AE093
:100400000BC01496ED91FC91159768E005C0149609
:10041000ED91FC91159769E0DF91CF910994CF930D
:10042000DF93EC01CB01BA0126E030E040E050E080
:100430000E94FE1B623071058105910559F18CF413
:100440006115710581059105F1F061307105810536
:100450009105C1F5E881F9810480F581E02D65E021
:100460002DC0643071058105910511F1D4F065301E
:1004700071058105910531F5E881F9810480F581E7
:10048000E02D66E01BC0E881F9810480F581E02D54
:1004900064E014C0E881F9810480F581E02D61E019
:1004A0000DC0E881F9810480F581E02D63E006C08C
:1004B000E881F9810480F581E02D62E0CE01DF91D1
:1004C000CF910994DF91CF91089543705527662706
:1004D0007727DC01ED91FC910480F581E02D42301D
:1004E00051056105710571F04330510561057105D4
:1004F00059F0413051056105710511F065E005C005
:1005000066E003C06AE001C069E00994CF93DF931D
:10051000EC01CB01BA0123E030E040E050E00E9462
:10052000FE1B613071058105910581F06230710516
:100530008105910591F0672B682B692BC1F4E88147
:10054000F9810480F581E02D64E00DC0E881F98136
:100550000480F581E02D61E006C0E881F981048026
:10056000F581E02D62E0CE01DF91CF910994DF911A
:10057000CF9108954370552766277727DC01ED91C9
:10058000FC910480F581E02D423051056105710533
:1005900071F0433051056105710559F04130510545
:1005A0006105710511F062E005C063E003C061E020
:1005B00001C060E00994CF93DF93EC0120E030E0CC
:1005C000A9016C897D898E899F890E94BF1D18169B
:1005D0001CF4E8A9F9A902C0EAA9FBA9DF91CF910F
:1005E00009940F931F93DC011396EC910E2F10E0EA
:1005F00009301105C0F5F801E55CFF4F0C94A41C0F
:10060000DC01ED91FC910084F185E02D29C0DC0135
:10061000ED91FC910284F385E02D22C0DC01ED9187
:10062000FC910484F585E02D1BC0DC01ED91FC916B
:100630000684F785E02D14C0DC01ED91FC91008863
:10064000F189E02D0DC0DC01ED91FC910288F38968
:10065000E02D06C0DC01ED91FC910488F589E02DC8
:100660001F910F9109941F910F910895DC01ED9155
:10067000FC910280F381E02D6FE609946F70DC013C
:1006800095962C919597207F622B95966C939597D4
:1006900092962D913D914D915C919597ED91FC91A4
:1006A0000190F081E02D6CE60994DC0194962C9188
:1006B000949760FB21F994962C93949792962D91A0
:1006C0003D914D915C919597ED91FC910190F08158
:1006D000E02D6CE60994DC0193968C91939760FB76
:1006E00087F993968C9393976695617094968C9105
:1006F00094978E7F682B94966C93949792962D91F5
:100700003D914D915C919597ED91FC9111970190E0
:10071000F081E02D6CE6CD010994DC0192968C917C
:10072000929760FB87F992968C9392976695677083
:1007300093968C919397887F682B93966C9393975D
:1007400092962D913D914D915C919597ED91FC91F3
:1007500011970190F081E02D6CE6CD010994DC0148
:100760006770962F9295907F92966C9192976F7882
:10077000692B92966C93929792962D913D914D9103
:100780005C919597ED91FC9111970190F081E02D8E
:100790006CE6CD010994CF92DF92EF92FF920F9316
:1007A0001F93CF93DF93EC019B81943041F09830FD
:1007B00031F0933031F0963021F012E003C014E0B4
:1007C00001C013E02496E12CF12CC62ED12C01E0BF
:1007D000C6010E2C02C0959587950A94E2F76C81AC
:1007E00080FD602789910E94F8118FEFE81AF80ABE
:1007F000E11670F3DF91CF911F910F91FF90EF9071
:10080000DF90CF900895CF93DF93FC0123812223C3
:1008100059F1EC0161E084810E94451261E08D8113
:100820000E9445128B81843011F0883039F461E0E8
:100830008E810E94451261E08F8106C0833011F0E5
:10084000863021F461E08E810E9445128FA58F3F92
:1008500059F061E00E9445126EA581E068278FA5DE
:10086000DF91CF910C94F811DF91CF910895CF9340
:10087000DF93FC0123812223A9F0EC010190F08198
:10088000E02D0480F581E02D60E009958FA58F3F74
:1008900049F061E00E9445126EA58FA5DF91CF91CE
:1008A0000C94F811DF91CF910895CF93DF93EC0171
:1008B000E881F9810480F581E02D8A81811102C0EF
:1008C00060E001C062E0CE010995E881F981048011
:1008D000F581E02D8A81811102C061E001C063E0F1
:1008E000CE0109958CA59DA50E948112E881F98110
:1008F0000480F581E02D8A81811102C060E001C091
:1009000062E0CE01DF91CF9109940E94F011892F0E
:100910008F7008950E94F0118695817008950E944D
:10092000F011771F7727771F8170880F872B089525
:100930000E94F011862F881F8827881F7770770FF5
:10094000872B08950E94F011862F82958770089555
:10095000CF93DF93FC0124813581232B69F0C08183
:10096000D181062E000C770BCE010E941420009737
:1009700019F08C1B9D0B02C08FEF9FEFDF91CF9181
:1009800008950F931F93CF93DF93EC018881998192
:10099000009729F02A813B812617370788F48B01BD
:1009A0006F5F7F4F0E94451F009761F09983888396
:1009B0001B830A832C813D81232B11F4FC011082BF
:1009C00081E001C080E0DF91CF911F910F910895E8
:1009D000EF92FF920F931F93CF93DF93EC017B0174
:1009E0008A01BA010E94C1042881398181110DC098
:1009F0002115310519F0C9010E94BC1E1982188207
:100A00001D821C821B821A8206C01D830C83B701C3
:100A1000C9010E941F20CE01DF91CF911F910F913C
:100A2000FF90EF900895FC01808191810C94BC1E91
:100A3000FC011182108213821282158214826115C8
:100A4000710551F0FB0101900020E9F73197AF01EA
:100A5000461B570B0C94E8040895BF92CF92DF9287
:100A6000EF92FF920F931F93CF93DF937C016B0163
:100A7000EA0189012417350720F48D2FE901042F9D
:100A8000182F68E771E0C7010E941805D601149677
:100A90008D919C911597C817D907C0F580179107BC
:100AA00008F48C01D601ED91FC911197E00FF11F34
:100AB000B08010826D917C916C0F7D1F6115710566
:100AC00061F0FB0101900020E9F73197AF01461B6F
:100AD000570BC7010E94E80413C0F7018081918180
:100AE000009711F00E94BC1ED70111961C921E9215
:100AF00015961C921E92149713961C921E92129792
:100B0000D601ED91FC91E00FF11FB082C701DF919A
:100B1000CF911F910F91FF90EF90DF90CF90BF90FA
:100B200008951F920F920FB60F9211242F933F93A7
:100B30004F935F936F937F938F939F93AF93BF93E5
:100B4000EF93FF938DEB91E00E943001FF91EF91C5
:100B5000BF91AF919F918F917F916F915F914F91D5
:100B60003F912F910F900FBE0F901F9018951F92DD
:100B70000F920FB60F9211242F938F939F93EF93A1
:100B8000FF93E091CD01F091CE018081E091D301FE
:100B9000F091D40182FD12C090818091D6018F5FC7
:100BA0008F732091D701821751F0E091D601F0E0C8
:100BB000E354FE4F958F8093D60101C08081FF9151
:100BC000EF919F918F912F910F900FBE0F901F90DB
:100BD00018958DE58CBD81E08DBD0895CF92DF9293
:100BE000EF92FF921F93CF93DF93EC0169017A019B
:100BF000162F10688BA99CA9892B11F40E94E90576
:100C000060E089A90E94F811612FCE010E94F909C4
:100C1000898B6F2D772788279927CE010E94F909A4
:100C2000B70188279927CE010E94F90999278F2DAE
:100C30007E2D6D2DCE010E94F9096C2DCE010E94F2
:100C4000F90911E08DA9181734F465E0CE010E946E
:100C5000DC111F5FF7CF8BA99CA9892B11F40E948F
:100C6000950A61E089A9DF91CF911F91FF90EF90E4
:100C7000DF90CF900C94F8114F925F926F927F9219
:100C80008F929F92AF92BF92CF92DF92EF92FF929C
:100C90000F931F93CF93DF93EC0180E191E0998351
:100CA000888381E08B831C861D861E861F86188A9A
:100CB000198A1A8A1B8A1C8A1D8A1E8A1F8A812CFD
:100CC000912C80E8A82E8FE3B82E888E998EAA8E5C
:100CD000BB8E1C8E1D8E1E8E1F8E88A299A2AAA26C
:100CE000BBA21CA21DA21EA21FA281E090E09DA794
:100CF0008CA78FEF8FA718A619A61AA61BA66C8320
:100D00004D8384E08E8385E08F831EA61CAA1DAAD6
:100D10001EAA1FAA18AE19AE1AAE1BAE1CAE1DAE8F
:100D20001EAE1FAE8E01005C1F4FF80180829182C3
:100D3000A282B3821A82188619861A861B86CE0171
:100D40000E940304CC8CDD8CEE8CFF8CA5019401F9
:100D5000C701B6010E94D71A882309F441C16CA9C2
:100D60007DA98EA99FA90E94DE1AA70196010E9463
:100D70003D1B0E94891D6B017C016CAB7DAB8EAB72
:100D80009FAB86E896E6A9E6B9E488AF99AFAAAF2B
:100D9000BBAF8C8E9D8EAE8EBF8E88889988AA88B8
:100DA000BB888C859D85AE85BF85881A990AAA0A5D
:100DB000BB0A6C897D898E899F899B01AC010E9449
:100DC0003D1B20E030E040E05FE30E943D1B0E94BD
:100DD000891D81149104A104B10499F46230710554
:100DE000810591050CF073C01CA21DA21EA21FA2BA
:100DF0001C8A1D8A1E8A1F8A1CAA1DAA1EAA1FAA37
:100E0000EFC0181419041A041B04FCF41C141D046C
:100E10001E041F044CF4681579058A059B054CF5E2
:100E20002A81211154C025C0C114D104E104F10468
:100E300009F44DC0681579058A059B050CF047C07B
:100E40008A81882309F443C036C01C141D041E0483
:100E50001F04ECF4CC24DD247601C818D908EA0874
:100E6000FB086C157D058E059F051CF42A81222345
:100E700071F19B01AC0188279927DC01821B930B40
:100E8000A40BB50B8CAB9DABAEABBFAB20C0C114FC
:100E9000D104E104F104D9F0442455243201481866
:100EA00059086A087B0864157505860597057CF462
:100EB0008A8181110CC0F094E094D094C094C11C3C
:100EC000D11CE11CF11CCCAADDAAEEAAFFAACCA879
:100ED000DDA8EEA8FFA8C114D104E104F10489F44F
:100EE00086E896E6A9E6B9E48CAF9DAFAEAFBFAF9A
:100EF00081E0181419041A041B040CF080E08A83A2
:100F000044C08CAC9DACAEACBFACA5019401C50196
:100F1000B4010E94AB1C2B013C01C701B6010E9429
:100F2000DE1A20E030E040E850E40E943D1B20E063
:100F300030E040E85FE30E94AB1C9B01AC01C301C1
:100F4000B2010E94171D9B01AC01C501B4010E94B2
:100F5000AA1C562E672E782E892EF8019080A1802B
:100F6000B2801381292D3A2D4B2D512F0E94BF1D88
:100F700018161CF4952C5301182D892D9A2DAB2D84
:100F8000B12F8CAF9DAFAEAFBFAFFFEFCF1ADF0A6F
:100F9000EF0AFF0ACCAADDAAEEAAFFAACCACDDAC10
:100FA000EEACFFACC701B6010E94901D6CA37DA3FF
:100FB0008EA39FA3A701960160E074E284E799E401
:100FC0000E94171D6C8B7D8B8E8B9F8B2A8121112C
:100FD00007C0DC01CB01B0588C8B9D8BAE8BBF8BD7
:100FE000DF91CF911F910F91FF90EF90DF90CF9005
:100FF000BF90AF909F908F907F906F905F904F9039
:101000000895009769F0FC0101900020E9F73197FD
:10101000AF01481B590BBC018DEB91E00C94BC0057
:1010200080E090E00895CF93DF930E940108EC01E7
:1010300086E791E00E9401088C0F9D1FDF91CF9100
:1010400008958F929F92AF92BF920F931F93CF9369
:10105000DF93CDB7DEB7A1970FB6F894DEBF0FBE12
:10106000CDBF19A2423008F44AE08E010F5D1F4F38
:10107000842E912CA12CB12CA50194010E94671CF7
:10108000E62FB901CA0101501109EA3014F4E05DFC
:1010900001C0E95CD801EC93232B242B252B61F7AD
:1010A000C8010E940108A1960FB6F894DEBF0FBEDA
:1010B000CDBFDF91CF911F910F91BF90AF909F90C7
:1010C0008F9008951F93CF93DF93EC012AE037EDC3
:1010D00043EA5CE369857A858B859C850E94AB1C1D
:1010E0002AE23DE64DEF51E40E943D1B26E636E63E
:1010F00046EA5EE30E94171D20E030E040E85FE32F
:101100000E94AA1C0E94901D162F603120F561E0FC
:10111000CE010E9455032AE037ED43EA5CE369857E
:101120007A858B859C850E94AB1C2AE23DE64DEFBB
:1011300051E40E943D1B2CEE31E548E35EE30E9442
:10114000171D20E030E040E85FE30E94AA1C0E94E7
:10115000901D162F04C060E0CE010E94550310328E
:1011600008F01FE1912F9F718B81807E892B8B83EB
:101170002A81382F8C81482F4F7050E060E1CE01DA
:101180000E94EE05612F70E080E090E00E94DE1A80
:101190002D853E854F8558890E943D1B0E94901DDC
:1011A0006F718A81807E682B6A83262F3B818C81B8
:1011B000482F4F7050E060E1CE01DF91CF911F9139
:1011C0000C94EE050F931F93CF93DF93EC0161E036
:1011D00089A90E94451261E089A90E94F8110BA912
:1011E0001CA90115110509F456C061E0F8018081C0
:1011F0000E94451261E0F80184810E94451262E07C
:10120000F80182810E944512F80140815181FA0162
:10121000E551FF4FE491F0E0EE0FFF1FEF51FF4F5C
:1012200085919491F8019287818722813381F90118
:10123000E551FF4FE491F0E0EE0FFF1FE952FF4F41
:1012400085919491F8019487838784819581FC012D
:10125000E551FF4FE491F0E0EE0FFF1FEF51FF4F1C
:10126000A591B491F801B687A587FA01ED53FF4F18
:101270004491F8014683F901ED53FF4F2491F801A1
:101280002783FC01ED53FF4F9491F80190878C91D7
:10129000E92FE82BEC932A893B898C89482F4370EE
:1012A00050E060E0CE010E94EE052AA13BA14CA1D6
:1012B0005DA16CE6CE010E94EE052EA13FA148A5DE
:1012C00059A551706DE6CE010E94EE052DA53EA5F3
:1012D0008FA5482F4F7350E060E7CE010E94EE05C6
:1012E0002A813B818C81482F4F7050E060E1CE0114
:1012F0000E94EE058AA1807F88608AA32AA13BA173
:101300004CA15DA16CE6CE010E94EE0561E0CE012C
:10131000DF91CF911F910F910C946B03FC018081A1
:101320009181009711F00C94281960E070E0CB01D6
:101330000895FC0180819181009711F00C942C1983
:1013400060E070E0CB0108950F931F93CF93DF937C
:101350008C01EB01FC01808191810097B1F06881E3
:1013600079816115710579F0428153812C813D812C
:101370004217530740F00E941F208C819D81F80185
:101380009583848313C00E94BC1E88819981F801D3
:10139000918380838A819B81938382838C819D81C9
:1013A00095838483198218821B821A821D821C8273
:1013B000DF91CF911F910F910895CF93DF932091EB
:1013C000840230918502232B79F0FC01C0918002C8
:1013D000D091810260817181CE010E942620009708
:1013E00019F08C1B9D0B02C08FEF9FEFDF91CF9107
:1013F0000895CF93DF93DC01D396ED91FC91D497C0
:10140000309709F45AC0A585B6859C918085809552
:1014100089238C9327E030E080E0C62FD0E0722F44
:10142000A185B2859681AE01022E02C055954795E1
:101430000A94E2F740FF03C04C91942B03C04C91F7
:10144000909594239C93A585B6854C919085942B7B
:101450009C93A385B4854C919781942341E050E0FF
:1014600011F440E050E001C0440F7A95EAF7842B74
:10147000A585B6854C919085909594239C93215099
:10148000310969F6A185B28596812C9160FF02C071
:10149000922B02C0909592239C93A585B6852C91A2
:1014A0009085922B9C93A385B4852C919781922350
:1014B00021E009F420E0822B06C06EBD00000DB4CF
:1014C00007FEFDCF8EB5DF91CF910895CF92DF92C9
:1014D000EF92FF92CF93882329F081E0682784E080
:1014E000C3E002C086E0C5E00E94F81161E08C2FE5
:1014F0000E94F81160910201709103018091040132
:10150000909105010E94901D6B017C01CB010E940E
:10151000811260E08C2F0E94F811C601CF91FF90DC
:10152000EF90DF90CF900C9481120895CF92DF92CC
:10153000EF92FF921F93CF93DF93EC01F62E8BA9CE
:101540009CA9892B11F40E94E90560E089A90E94F9
:10155000F8116F2DCE010E94F90964E0CE010E94BE
:10156000DC1111E08DA9181734F465E0CE010E945A
:10157000DC111F5FF7CF61E089A90E94F81160E0DC
:1015800089A90E94F81180915A02181734F465E075
:10159000CE010E94DC111F5FF6CF6F2DCE010E949D
:1015A000F909898B60E0CE010E94F909C82ED12C7F
:1015B000E12CF12CFE2CED2CDC2CCC2460E0CE01B7
:1015C0000E94F909C82AFE2CED2CDC2CCC2460E00A
:1015D000CE010E94F909C82AFE2CED2CDC2CCC246B
:1015E00060E0CE010E94F909C82A61E089A90E9441
:1015F000F811C701B601DF91CF911F91FF90EF90D5
:10160000DF90CF9008951F920F920FB60F92112482
:101610002F933F934F935F936F937F938F939F93FA
:10162000AF93BF93EF93FF938091950387FF05C01E
:1016300010928500109284001BC020919503022E09
:10164000000C330B80917F0290E02817390784F457
:1016500080919503082E000C990BFC01EE0FFF1FE3
:101660008E0F9F1FFC01E55AFD4F808186FD15C03E
:10167000809195038F5F8093950320919503022EAF
:10168000000C330B80917F0290E028173907C4F4D7
:10169000809195038C3064F113C080919503082EDE
:1016A000000C990BFC01EE0FFF1F8E0F9F1FFC011A
:1016B000E55AFD4F808160E08F730E94F811D8CF0A
:1016C0008091840090918500049680349C4918F4A0
:1016D00080E49CE905C08091840090918500049687
:1016E00090938900809388008FEF809395033BC08F
:1016F000209184003091850080919503082E000C84
:10170000990BFC01EE0FFF1F8E0F9F1FFC01E55A86
:10171000FD4F81819281820F931F90938900809366
:10172000880080919503082E000C990BFC01EE0FA8
:10173000FF1F8E0F9F1FFC01E55AFD4F808186FF22
:1017400012C080919503082E000C990BFC01EE0F3E
:10175000FF1F8E0F9F1FFC01E55AFD4F808161E046
:101760008F730E94F811FF91EF91BF91AF919F91FC
:101770008F917F916F915F914F913F912F910F903A
:101780000FBE0F901F9018954F925F926F927F92AD
:101790008F929F92AF92BF92EF92FF920F931F93FF
:1017A000CF93DF93811103C0C4E6D0E002C0C6E945
:1017B000D0E008E810E0B8E5EB2EB2E0FB2E84EBB9
:1017C000882E912CA12CB12C8091000190910101C7
:1017D0008C179D0709F488C08C179D0714F4019697
:1017E00001C0019790930101809300016091000175
:1017F00070910101603282E07807DCF577FD06C068
:10180000653B71052CF064EB70E002C060E070E0B5
:10181000809103032801481A510887FD5394D2018F
:10182000AA0FBB1FAA0FBB1F2D01BB0F66087708AD
:10183000809104039701281B310987FD3395220FFE
:10184000331F220F331FC901330FAA0BBB0B9C019F
:10185000AD012419350946095709DB010E94281CEE
:10186000A50194010E94FE1B420E531E641E751EAC
:10187000B201809102038C3080F590910303A8019E
:10188000491B510997FD5395440F551F440F551F90
:101890006417750784F0909104039701291B31099F
:1018A00097FD3395220F331F220F331FAB012617ED
:1018B00037070CF4A90142505109440F551F2FB7A7
:1018C000F89490E0FC01EE0FFF1F8E0F9F1FFC01AC
:1018D000E55AFD4F528341832FBF6CE070E080E0FA
:1018E00090E00E948C1270CF64E670E080E090E09F
:1018F000DF91CF911F910F91FF90EF90BF90AF902C
:101900009F908F907F906F905F904F900C948C126F
:101910002F923F924F925F926F927F928F929F92FF
:10192000AF92BF92CF92DF92EF92FF920F931F93ED
:10193000CF93DF93CDB7DEB7A6970FB6F894DEBF8F
:101940000FBECDBF1B018DA39EA3298339874A8774
:101950005E872701380120E030E846EB54E4C801F7
:10196000B7010E94D71A18165CF420E030E04AE76D
:1019700054E4C601B5010E94D71A18160CF4DEC44F
:1019800040928A0250928B0260928C0270928D0279
:10199000A0928602B0928702C0928802D0928902F9
:1019A00091014DA15EA1C301B2010E94AA1C698FE1
:1019B0007A8F8B8F9C8F298139854A855E85C601F8
:1019C000B5010E94AA1C6D8F7E8F8F8F98A3298DE1
:1019D0003A8D4B8D5C8DCA01B9010E943D1B6D8310
:1019E0007E838F8398872D8D3E8D4F8D58A1CA01A0
:1019F000B9010E943D1B9B01AC016D817E818F81ED
:101A000098850E94AB1C0E94CA1D6B8B7C8B8D8BB2
:101A10009E8B298139854A855E85698179858A858C
:101A20009E850E943D1B6D837E838F8398879101E5
:101A30004DA15EA1B1018DA19EA10E943D1B2D81F2
:101A40003E814F8158850E94AB1C0E94CA1D6F8742
:101A5000788B898B9A8B91014DA15EA160E070E833
:101A600086EB94E40E94AA1C9B01AC010E943D1BE2
:101A70002D813E814F8158850E94AB1C0E94CA1D5A
:101A80006D837E838F839887A6019501C601B5017A
:101A90000E943D1B6B017C01A3019201C301B201B5
:101AA0000E943D1BA70196010E94AB1C0E94CA1D0B
:101AB0004B015C01A301920160E070E886EB94E4C5
:101AC0000E94AA1C9B01AC010E943D1BA70196012C
:101AD0000E94AB1C0E94CA1D6B017C012F853889B6
:101AE00049895A89C501B4010E94AA1C2B013C01F5
:101AF0002D813E814F815885C701B6010E94AA1CE5
:101B00006B017C0120E030E0A901C301B2010E9419
:101B1000BF1D53014201181624F0B7FAB094B7F86C
:101B2000B09420E030E0A901C701B6010E94BF1DBA
:101B3000181624F0F7FAF094F7F8F094A70196013C
:101B4000C501B4010E94BF1D18167CF420E030E0EE
:101B5000A901C301B2010E94BF1D730162011816E1
:101B600024F0F7FAF094F7F8F09420918E02309177
:101B70008F024091900250919102C701B6010E94DC
:101B8000171D609391037093920380939303909336
:101B900094031092900310928F0380E090E0A0E2F3
:101BA000B1E48F87988BA98BBA8B1D821E821F820E
:101BB00018862B893C894D895E896D817E818F8154
:101BC00098850E94D71A87FFB9C32F85388949891C
:101BD0005A896B897C898D899E890E94AA1C9B01E8
:101BE000AC016D817E818F8198850E94BF1D181682
:101BF00074F42D813E814F8158856B897C898D8954
:101C00009E890E94AA1C6F87788B898B9A8B2B895F
:101C10003C894D895E896F85788989899A890E9476
:101C2000171D6B017C019B01AC01698D7A8D8B8D39
:101C30009C8D0E943D1B91014DA15EA10E94AB1C99
:101C40006F8B788F8C01A70196016D8D7E8D8F8DA6
:101C500098A10E943D1B298139854A855E850E9495
:101C6000AB1C69A37AA38BA39CA3298139854A85E0
:101C70005E85698179858A859E850E943D1B6B0101
:101C80007C0191014DA15EA1B1018DA19EA10E9497
:101C90003D1BA70196010E94AB1C0E94CA1D6983CF
:101CA0007A838B839C8391014DA15EA160E070E8F3
:101CB00086EB94E40E94AA1C9B01AC010E943D1B90
:101CC000A70196010E94AB1C0E94CA1D2B013C017A
:101CD00029A13AA14BA15CA169A17AA18BA19CA1E8
:101CE0000E943D1B4B015C012F89388DA8016F8933
:101CF000788DC8010E943D1BA50194010E94AB1C78
:101D00000E94CA1D6B017C012F89388DA80160E0FB
:101D100070E886EB94E40E94AA1C9B01AC010E942F
:101D20003D1BA50194010E94AB1C0E94CA1D4B01E2
:101D30005C0129813A814B815C81C701B6010E9417
:101D4000AA1C6B017C01A3019201C501B4010E9490
:101D5000AA1C4B015C0120E030E0A901C701B601DB
:101D60000E94BF1D87FD12C020E030E0A901C5011F
:101D7000B4010E94BF1D87FF1EC020E030E0A90112
:101D8000C501B4010E94D71A87FD1AC020E030E0D7
:101D9000A901C701B6010E94D71A87FF15C091E0BB
:101DA0009DA320E030E0A901C501B4010E94BF1D40
:101DB00087FF0BC009C0A1E0ADA3B1E0BEA306C080
:101DC0001DA221E02EA302C01DA21EA220E030E031
:101DD000A901C701B6010E94BF1D260137011816CF
:101DE00024F077FA709477F8709420E030E0A9013D
:101DF000C501B4010E94BF1DA501940118160CF085
:101E00005058C301B2010E94BF1D87FD07C08DA1BC
:101E10009EA19DA38EA3A1E0A98701C0198620E001
:101E200030E0A901C701B6010E94BF1D260137019C
:101E3000181624F077FA709477F8709420E030E068
:101E4000A901C501B4010E94BF1D18160CF44FC2B0
:101E5000D501C401B05889839A83AB83BC83A301A5
:101E60009201BC01CD010E94BF1D181684F420E030
:101E700030E0A901C701B6010E94BF1D1816BCF0D1
:101E8000D701C601B05889839A83AB83BC8320E015
:101E900030E0A901C701B6010E94BF1D18165CF011
:101EA0002601370177FA709477F8709406C0C982DA
:101EB000DA82EB82FC822601370120E030E0A901C2
:101EC000C501B4010E94BF1D181624F0B7FAB094E2
:101ED000B7F8B094A3019201C501B4010E94D71ACA
:101EE00087FF0FC020E030E0A901C701B6010E94C2
:101EF000BF1D46015701181624F0B7FAB094B7F881
:101F0000B09420918E0230918F02409190025091B6
:101F10009102C501B4010E94171D6A877B878C87D7
:101F20009D87A501940169817A818B819C810E94A2
:101F3000171D69837A838B839C83212C312C812C00
:101F4000912C54019985A1E09A279E87B101032C19
:101F5000000C880B990B0E94DE1A9B01AC016A856C
:101F60007B858C859D850E94BF1D18160CF0A4C131
:101F700089E791E00E940108C0909103D0909203FC
:101F8000E0909303F0909403A7019601C701B60176
:101F90000E940A1E882319F08EE891E01AC02601DB
:101FA0003701E89477F82FEF3FEF4FE75FE7C30182
:101FB000B2010E940A1E81110FC02FEF3FEF4FE7C1
:101FC0005FE7C301B2010E94D71A18162CF482E908
:101FD00091E00E94010876C02FEF3FEF4FE75FE4EA
:101FE000C701B6010E94BF1D18161CF486E991E0D6
:101FF000F0CF2FEF3FEF4FE75FECC701B6010E9434
:10200000D71A87FDF3CF20E030E0A901C701B60160
:102010000E94D71A87FF09C06DE28DEB91E00E9404
:102020005201F7FAF094F7F8F0942AE037ED43EA1A
:102030005BE3C701B6010E94AB1C2B013C010E946F
:10204000901D6B017C010E94DC1A9B01AC01C30155
:10205000B2010E94AA1C2B013C014AE0C701B60153
:102060000E9421086EE28DEB91E00E94520120E077
:1020700030E040E251E4C301B2010E943D1B2B015C
:102080003C010E94901D6B01E12CF12C4AE0C7013C
:10209000B6010E942108C701B6010E94DC1A9B010B
:1020A000AC01C301B2010E94AA1C20E030E040E272
:1020B00051E40E943D1B0E94901D80E090E04AE0A8
:1020C0000E9421088AE991E00E940108C0908F03D4
:1020D000D09090030D2C000CEE08FF08F7FE0EC008
:1020E0006DE28DEB91E00E94520166277727CB01CC
:1020F0006C197D098E099F094AE003C04AE0C701B7
:10210000B6010E94210886E791E00E9401088091B3
:102110008F039091900384369105B4F481E090E0B0
:1021200090938E0380938D0380E090E0A8E4B4E464
:102130008093020190930301A0930401B0930501E1
:102140008EEA91E00E94130860918F0370919003D2
:102150006C597F4F072E000C880B990B0E94DE1ADA
:1021600020919103309192034091930350919403F5
:102170000E94BF1D181654F4AFEFBFEFB0938E034B
:10218000A0938D0384EB91E00E94130880918D034E
:1021900090918E03019741F520E030E040E050E45B
:1021A00060910201709103018091040190910501F9
:1021B0000E94AA1C6B017C0120E030E04CED52E44F
:1021C0000E94D71A87FF2EC080E090E0ACEDB2E409
:1021D0008093020190930301A0930401B093050141
:1021E00010928E0310928D0380918D0390918E0337
:1021F000019689F520E030E040E050E46091020172
:102200007091030180910401909105010E94AB1C23
:102210006B017C0120E030E048E454E40E94BF1DE3
:1022200018164CF0C0920201D0920301E092040112
:10223000F092050110C080E090E0A8E4B4E480933F
:10224000020190930301A0930401B0930501109241
:102250008E0310928D0380918F03909190030196CD
:102260009093900380938F036DA189850E94660AE5
:1022700029813A814B815C81C501B4010E94AB1C6C
:102280004B015C0120E030E040E85FE30E94BF1DAD
:1022900087FD0EC06EA18E850E94660A20E030E0A8
:1022A00040E85FE3C501B4010E94AA1C4B015C0138
:1022B0009FEF291A390A4ACE2F85388949895A89C8
:1022C0006D817E818F8198850E94AB1C6D837E839A
:1022D0008F8398872F88388C0DA31EA3A9A1A9836B
:1022E000BAA1B9872BA12A878CA18E8762CCA301C2
:1022F0009201C501B4010E94BF1D18168CF420E0A4
:1023000030E0A901C701B6010E94BF1D18160CF0EC
:10231000B7CDC982DA82EB82FC8226013701DACDA1
:1023200020E030E0A901C701B6010E94BF1D8982EB
:102330009A82AB82BC82181684F3B2CDA6960FB6F1
:10234000F894DEBF0FBECDBFDF91CF911F910F91EB
:10235000FF90EF90DF90CF90BF90AF909F908F90C5
:102360007F906F905F904F903F902F9008953FB770
:10237000F89480919B0390919C03A0919D03B09150
:102380009E0326B5A89B05C02F3F19F00196A11DFD
:10239000B11D3FBFBA2FA92F982F8827820F911DFB
:1023A000A11DB11DBC01CD0142E0660F771F881F42
:1023B000991F4A95D1F708950F931F93CF93DF93F9
:1023C0008C01D62FC0E0CD1731F060E0C8010E942B
:1023D000F909CF5FF8CFDF91CF911F910F91089549
:1023E000DC01ED91FC910280F381E02D6CE6099413
:1023F00090E0FC01E75FFE4F2491FC01ED53FF4F9D
:102400003491FC01E551FF4FE491EE2309F43CC007
:10241000222339F1233091F038F42130A9F0223011
:1024200001F584B58F7D12C0273091F02830A1F0DE
:102430002430B9F4809180008F7D03C080918000AA
:102440008F77809380000DC084B58F7784BD09C0DD
:102450008091B0008F7703C08091B0008F7D809312
:10246000B000F0E0EE0FFF1FEF51FF4FA591B491C8
:102470009FB7F894611104C08C913095382302C045
:10248000EC913E2B3C939FBF0895CF93DF9390E058
:10249000FC01ED53FF4F2491FC01E551FF4F849166
:1024A000882361F190E0880F991FFC01E150FF4FF4
:1024B000C591D491FC01EF51FF4FA591B4916111E9
:1024C00009C09FB7F8948881209582238883EC9176
:1024D0002E230BC0623061F49FB7F8948881322FAD
:1024E000309583238883EC912E2B2C939FBF06C0BD
:1024F0008FB7F894E8812E2B28838FBFDF91CF917F
:1025000008958230910538F0880F991F880F991F20
:1025100005970197F1F708958F929F92AF92BF921E
:10252000CF92DF92EF92FF926B017C010E94B71174
:102530004B015C01C114D104E104F104F1F00E94EB
:10254000B711DC01CB0188199909AA09BB09883E9A
:102550009340A105B10570F321E0C21AD108E1084A
:10256000F10888EE880E83E0981EA11CB11CC114EE
:10257000D104E104F10419F7DDCFFF90EF90DF9073
:10258000CF90BF90AF909F908F9008951F920F9221
:102590000FB60F9211242F933F938F939F93AF9376
:1025A000BF938091970390919803A0919903B09164
:1025B0009A033091960323E0230F2D3720F40196E0
:1025C000A11DB11D05C026E8230F0296A11DB11D56
:1025D000209396038093970390939803A093990375
:1025E000B0939A0380919B0390919C03A0919D03CB
:1025F000B0919E030196A11DB11D80939B03909302
:102600009C03A0939D03B0939E03BF91AF919F91B4
:102610008F913F912F910F900FBE0F901F901895A3
:10262000CF93DF93CDB7DEB7AA970FB6F894DEBF8E
:102630000FBECDBF789484B5826084BD84B58160BF
:1026400084BD85B5826085BD85B5816085BD80917D
:102650006E00816080936E001092810080918100F5
:1026600082608093810080918100816080938100ED
:10267000809180008160809380008091B1008460AF
:102680008093B1008091B00081608093B000809110
:102690007A00846080937A0080917A0082608093CF
:1026A0007A0080917A00816080937A0080917A002C
:1026B000806880937A001092C100E091CD01F09182
:1026C000CE0182E08083E091C901F091CA011082BD
:1026D000E091CB01F091CC018FEC80831092D50179
:1026E000E091D101F091D20186E08083E091CF01A9
:1026F000F091D001808180618083E091CF01F091E1
:10270000D001808188608083E091CF01F091D00179
:10271000808180688083E091CF01F091D001808139
:102720008F7D8083809102038C3008F051C061E07E
:102730008AE00E94451280910203E82FF0E09F0199
:10274000220F331FE20FF31FE55AFD4F9081907C5B
:102750009A60908310920303109204036CE00E942D
:10276000981C2CE0829FB001112440E050E09B01B6
:10277000240F351FF901EE0FFF1F2E0F3F1FF90128
:10278000E55AFD4F908196FD16C04F5F5F4F4C306C
:10279000510569F781110FC01092800082E080938B
:1027A00081001092850010928400B19A80916F0090
:1027B000826080936F00E0910203F0E0CF01880F08
:1027C000991FE80FF91FE55AFD4F808180648083CF
:1027D0008CE591E00E94130880E00E94C40B61E048
:1027E00083E00E94451261E084E00E94451261E0AE
:1027F00085E00E94451261E086E00E94451261E09A
:1028000082E00E94451260E082E00E94F8111FB74A
:10281000F8948091BC01811127C0E5EFF0E084912C
:10282000EDECF0E09491E82FF0E0EE0FFF1FE150A7
:10283000FF4FA591B491EC91E92321F461E08AE086
:102840000E94F81161E08AE00E9445128CB5806117
:102850008CBD8CB580648CBD61E08DE00E9445121A
:1028600061E08BE00E9445128091BC018F5F8093F4
:10287000BC011FBF8CEC92E00E94E2088CEC92E05D
:102880000E94620864E08CEC92E00E943E0380911A
:10289000DE0284608093DE02282F3091DF02809177
:1028A000E002482F437050E060E08CEC92E00E9420
:1028B000EE058091FB0284608093FB022091F90277
:1028C0003091FA02482F4F7350E060E78CEC92E0B1
:1028D0000E94EE0586E992E00E94E20886E992E015
:1028E0000E94620864E086E992E00E943E038091C3
:1028F000A80284608093A802282F3091A9028091B9
:10290000AA02482F437050E060E086E992E00E94FE
:10291000EE058091C50284608093C5022091C302B8
:102920003091C402482F4F7350E060E786E992E08F
:102930000E94EE058DEB91E00E941A01181619060F
:102940000CF0ADC18DEB91E00E94F8008A3009F0E7
:1029500083C165E671E0CE0101960E941805CE01A3
:1029600001960E94DD09019699F468E671E0CE01B6
:1029700007960E941805CE0107960E94DD0911E016
:10298000019609F410E0CE0107960E94130501C0DC
:1029900011E0CE0101960E941305112309F41DC117
:1029A0006CE671E0CE0149960E9418056CE671E074
:1029B000CE0143960E9418056CE671E0CE010D969B
:1029C0000E94180568E580E892E00E94A8048F3F05
:1029D0005FEF950709F44EC09C012E5F3F4FAC019D
:1029E0004F5F5F4F60E872E0CE0107960E942D05B1
:1029F00060E2CE0107960E94A8046C0168E580E8B9
:102A000092E00E94A8049601281B390B2F5F3F4FCC
:102A1000AC014F5F5F4F60E872E0CE0101960E940B
:102A20002D05BE016F5F7F4FCE0149960E94A4091C
:102A3000CE0101960E941305CE0107960E94130550
:102A400060E2CE0149960E94A8049C0140E050E05B
:102A5000BE01675E7F4FCE0101960E942D05BE012B
:102A60006F5F7F4FCE0149960E94A409CE01019667
:102A70000E94130569E580E892E00E94A8048F3F58
:102A8000AFEF9A0709F44AC09C012E5F3F4FAC019B
:102A90004F5F5F4F60E872E0CE0107960E942D0500
:102AA00060E2CE0107960E94A8048C0169E580E8E7
:102AB00092E00E94A804AC014F5F5F4F980160E86C
:102AC00072E0CE0101960E942D05BE016F5F7F4F1F
:102AD000CE0143960E94A409CE0101960E941305DF
:102AE000CE0107960E94130560E2CE0143960E9434
:102AF000A8049C0140E050E0BE016D5E7F4FCE0116
:102B000001960E942D05BE016F5F7F4FCE01439657
:102B10000E94A409CE0101960E9413056AE580E88F
:102B200092E00E94A8048F3FBFEF9B0709F44AC0C0
:102B30009C012E5F3F4FAC014F5F5F4F60E872E03A
:102B4000CE0107960E942D0560E2CE0107960E94F5
:102B5000A8048C016AE580E892E00E94A804AC0118
:102B60004F5F5F4F980160E872E0CE0101960E94CE
:102B70002D05BE016F5F7F4FCE010D960E94A40907
:102B8000CE0101960E941305CE0107960E941305FF
:102B900060E2CE010D960E94A8049C0140E050E046
:102BA000BE01635F7F4FCE0101960E942D05BE01DD
:102BB0006F5F7F4FCE010D960E94A409CE01019652
:102BC0000E941305CE010D960E949909623071058D
:102BD0008105910508F466C07FC06FE671E0CE0103
:102BE00001960E941805CE0101960E94DD098C0114
:102BF000CE0101960E9413050F3F1F4F01F1E09097
:102C00009202F0909302009194021091950220910B
:102C1000860230918702409188025091890260912A
:102C20008A0270918B0280918C0290918D02A12C6E
:102C3000B12CE8E4CE2EE3E4DE2E0E94880C40E0C6
:102C400050E068E771E080E892E00E94E80483E7E2
:102C500091E00E94130823C089831A82C0908402E5
:102C6000D09085023FEFC31AD30AB60180E892E004
:102C70000E94C104882399F0209180023091810242
:102C80008091840290918502BE016F5F7F4F820F19
:102C9000931F0E941F20D0928502C09284020E943E
:102CA000C10148CECE0149960E948E0920E030E055
:102CB00040E85FEB0E94D71A882309F495C0CE0143
:102CC00043960E948E0920E030E040E85FEB0E94CE
:102CD000D71A811146C088C0CE0149960E948E093C
:102CE00020E030E040E85FEB0E94D71A882309F427
:102CF00089C0CE0143960E948E0920E030E040E872
:102D00005FEB0E94D71A882309F47CC0CE0143965A
:102D10000E948E095B016C01CE0149960E948E09CA
:102D20007B018C01209186023091870240918802BC
:102D30005091890260918A0270918B0280918C027D
:102D400090918D020E94880CCE010D960E94130571
:102D5000CE0143960E941305CE0149960E941305A9
:102D60006ECFCE010D960E9499096F8F78A389A32B
:102D70009AA3CE0143960E948E095B016C01CE019D
:102D800049960E948E092B013C0180918602909108
:102D90008702A0918802B09189028BA39CA3ADA366
:102DA000BEA320918A0230918B0240918C025091F7
:102DB0008D022FA338A749A75AA781E02F8D38A1EC
:102DC00049A15AA1232B242B252B09F080E00E9436
:102DD000C40B830172012BA13CA14DA15EA16FA187
:102DE00078A589A59AA5AECFCE010D960E94990926
:102DF00021E0672B682B692B09F020E0822F0E94CD
:102E0000C40BA2CFCE0149960E948E0920E030E08B
:102E100040E85FEB0E94D71A8823C9F0CE0149969B
:102E20000E948E097B018C012091860230918702DD
:102E3000409188025091890260918A0270918B02C0
:102E400080918C0290918D0259016A017BCFCE0155
:102E500043960E948E0920E030E040E85FEB0E943C
:102E6000D71A882309F470CFCE0143960E948E09A9
:102E70005B016C0160918A0270918B0280918C02DF
:102E800090918D02209186023091870240918802B4
:102E9000509189027B018C0155CF1092C001109294
:102EA000BF0188EE93E0A0E0B0E08093C101909371
:102EB000C201A093C301B093C4018AE291E0909350
:102EC000BE018093BD0185EC90E09093CA01809390
:102ED000C90184EC90E09093CC018093CB0180EC0D
:102EE00090E09093CE018093CD0181EC90E090939F
:102EF000D0018093CF0182EC90E09093D201809337
:102F0000D10186EC90E09093D4018093D30110928C
:102F1000D6011092D7011092D8011092D901809158
:102F20007F028C30A0F491E0980F90937F02809301
:102F3000020390E0FC01EE0FFF1F8E0F9F1FFC01AC
:102F4000E55AFD4F88EB9BE09283818303C08FEFAE
:102F5000809302031092CE021092CF028091D00291
:102F6000807F8093D0021092D1021092D2021092F0
:102F7000D3028091D402807F8093D4028EEA97E4BA
:102F8000A1EEBDE38093D5029093D602A093D70221
:102F9000B093D80280E090E0A0E0BFE38093D90234
:102FA0009093DA02A093DB02B093DC028CE391E011
:102FB0009093CD028093CC021092DE021092DF0239
:102FC0008091E0028C7F8093E0021092E1021092E7
:102FD000E2028091E302807F8093E3021092E40298
:102FE0001092E5028091E602807F8093E6021092C3
:102FF000E7021092E8021092E9028091EA028E7FC5
:103000008093EA021092EB021092EC028091ED02A2
:1030100080788093ED021092EE021092EF021092EF
:10302000F0021092F1021092F2021092F30210924A
:10303000F4028091F5028E7F8093F5021092F602E1
:103040001092F7021092F8028091FC028C7F80931C
:10305000FC0287E090E09093FE028093FD021092C4
:1030600000031092FF029FEF9093010380E880938A
:10307000F90284E08093FA028091FB02807C8560F3
:103080008093FB0280915A028F3F14F490935A026E
:10309000109298021092990280919A02807F8093F8
:1030A0009A0210929B0210929C0210929D028091B3
:1030B0009E02807F80939E028EEA97E4A1EEBDE39C
:1030C00080939F029093A002A093A102B093A202CA
:1030D00080E090E0A0E0BFE38093A3029093A4027D
:1030E000A093A502B093A6028CE391E0909397027F
:1030F000809396021092A8021092A9028091AA02CF
:103100008C7F8093AA021092AB021092AC02809145
:10311000AD02807F8093AD021092AE021092AF029A
:103120008091B002807F8093B0021092B102109221
:10313000B2021092B3028091B4028E7F8093B402E7
:103140001092B5021092B6028091B70280788093F7
:10315000B7021092B8021092B9021092BA021092FD
:10316000BB021092BC021092BD021092BE0280916E
:10317000BF028E7F8093BF021092C0021092C102E4
:103180001092C2028091C6028C7F8093C60288E0B2
:1031900090E09093C8028093C7021092CA021092E6
:1031A000C9029FEF9093CB0280E88093C30284E032
:1031B0008093C4028091C502807C85608093C502A3
:1031C00080915A028F3F14F490935A0244E063E0D6
:1031D00089E493E00E943C0646E065E085E093E0E8
:1031E0000E943C0680E090E8A6E3B4E4809392025B
:1031F00090939302A0939402B093950243E053E519
:1032000067E47CE340938E0250938F0260939002B8
:103210007093910280938A0290938B02A0938C0208
:10322000B0938D0280E090E0A8E4B3E4809386023E
:1032300090938702A0938802B093890268E771E0B7
:1032400080E892E00C94180580E892E00C94130555
:10325000662777270C9468191F93FC019927882704
:10326000BC01E89411911032E9F3193010F01E30CE
:10327000C8F31B3251F01D3249F4689406C00E9415
:103280005319610F711D811D911D119110531A3039
:10329000B0F33EF490958095709561957F4F8F4F78
:1032A0009F4F1F910895592F482F372F262F660FB4
:1032B000771F881F991F660F771F881F991F620F3E
:1032C000731F841F951F660F771F881F991F08950E
:1032D000A0E0B0E0EEE6F9E10C94361CEC016B01E5
:1032E0006115710519F0FB01918380837E01FFEF69
:1032F000EF1AFF0A0881802F90E00E94B61A892BEE
:1033000011F0E701F3CF0D3239F47E0182E0E80ECF
:10331000F11C098111E008C00B3229F47E0192E012
:10332000E90EF11C098110E0E701219743E050E02C
:1033300060E970E0CE010E94BF1A892BC1F4239688
:1033400045E050E06BE870E0CE010E94BF1A892B87
:1033500009F42596C114D10419F0F601D183C08374
:103360001111F6C060E070E080E89FE7FAC043E02A
:1033700050E068E870E0CE010E94BF1A892B59F432
:10338000C114D10409F4E9C0F2E0EF0EF11CF6011A
:10339000F182E082E2C020E030E0A901C0E0D0E0AC
:1033A000F70180EDA82EA00E89E08A1530F1912F4B
:1033B0009260B92E812F887012FF04C0811124C041
:1033C000219622C081112197A5E0B0E00E941D1C2A
:1033D000DC01CB01880F991FAA1FBB1F9C01AD0107
:1033E0002A0D311D411D511D283989E9380748072B
:1033F00089E1580748F0166006C09EEFA9120AC07E
:1034000013FD40C01860B12E8FEFE81AF80A008152
:103410001B2DC6CF802F8F7D8534A1F580818D3205
:1034200011F4106106C08B3221F0319661E070E03A
:1034300004C08181329662E070E080538A3018F0D7
:10344000E61BF70B1FC060E070E060389CE0790776
:103450005CF4DB01AA0FBB1FAA0FBB1F6A0F7B1F07
:10346000660F771F680F711D3196DF0111978C91E0
:1034700080538A3050F314FF03C071956195710930
:10348000C60FD71F11FF08C0C114D10429F0CF0106
:103490000197F60191838083CA01B9010E94DC1A69
:1034A000212F2370233019F04B015C0106C04B0122
:1034B0005C01B7FAB094B7F8B09420E030E0A9010D
:1034C000C501B4010E94D71A882309F43EC0D7FF72
:1034D00006C0D195C195D10907EA10E002C00FEBF3
:1034E00010E06801F8E1CF1AD10890E2E92EF12C42
:1034F000CE15DF0574F0F801259135914591549171
:10350000C501B4010E943D1B4B015C01CE19DF09CE
:10351000EFCF04501109F594E7940C151D0541F700
:103520008A2D880F8B2D881F8F3F49F020E030E0D7
:10353000A901C501B4010E94D71A811106C082E217
:1035400090E09093A00380939F03C501B40109C04C
:1035500060E070E080E89FEF04C060E070E080EC25
:103560009FE7CDB7DEB7ECE00C94521C91110C94A0
:10357000AA1B803219F089508550C8F70895FB01C5
:10358000DC014150504088F08D9181341CF08B3526
:103590000CF4805E659161341CF06B350CF4605E58
:1035A000861B611171F3990B0895881BFCCF0E9453
:1035B000191B08F481E00895E89409C097FB3EF4D4
:1035C00090958095709561957F4F8F4F9F4F992370
:1035D000A9F0F92F96E9BB279395F69587957795EE
:1035E0006795B795F111F8CFFAF4BB0F11F460FFAE
:1035F0001BC06F5F7F4F8F4F9F4F16C0882311F006
:1036000096E911C0772321F09EE8872F762F05C019
:10361000662371F096E8862F70E060E02AF09A95B4
:10362000660F771F881FDAF7880F9695879597F9A9
:103630000895990F0008550FAA0BE0E8FEEF161643
:103640001706E807F907C0F012161306E407F50796
:1036500098F0621B730B840B950B39F40A2661F00A
:10366000232B242B252B21F408950A2609F4A140AD
:10367000A6958FEF811D811D08950E94501B0C940B
:10368000C41B0E94B61B38F00E94BD1B20F095237E
:1036900011F00C94AD1B0C94B31B11240C94F81B6B
:1036A0000E94D51B70F3959FC1F3950F50E0551FF5
:1036B000629FF001729FBB27F00DB11D639FAA2787
:1036C000F00DB11DAA1F649F6627B00DA11D661FD6
:1036D000829F2227B00DA11D621F739FB00DA11DF7
:1036E000621F839FA00D611D221F749F3327A00DB1
:1036F000611D231F849F600D211D822F762F6A2F4D
:1037000011249F5750409AF0F1F088234AF0EE0FB1
:10371000FF1FBB1F661F771F881F91505040A9F7DE
:103720009E3F510580F00C94AD1B0C94F81B5F3F3D
:10373000E4F3983ED4F3869577956795B795F7951A
:10374000E7959F5FC1F7FE2B880F911D9695879592
:1037500097F9089599278827089597F99F6780E832
:1037600070E060E008959FEF80EC089500240A94D3
:103770001616170618060906089500240A9412164C
:103780001306140605060895092E0394000C11F47F
:10379000882352F0BB0F40F4BF2B11F460FF04C02C
:1037A0006F5F7F4F8F4F9F4F089557FD9058440F85
:1037B000551F59F05F3F71F04795880F97FB991F90
:1037C00061F09F3F79F0879508951216130614064D
:1037D000551FF2CF4695F1DF08C0161617061806DA
:1037E000991FF1CF86957105610508940895E894B5
:1037F000BB2766277727CB0197F90895052E97FBFE
:103800001EF400940E94151C57FD07D00E94671CEF
:1038100007FC03D04EF40C94151C50954095309540
:1038200021953F4F4F4F5F4F08959095809570952C
:1038300061957F4F8F4F9F4F08950E94891CA59FD0
:10384000900DB49F900DA49F800D911D112408959B
:10385000B7FF0C941D1C0E941D1C821B930B089526
:103860002F923F924F925F926F927F928F929F9290
:10387000AF92BF92CF92DF92EF92FF920F931F937E
:10388000CF93DF93CDB7DEB7CA1BDB0B0FB6F8942F
:10389000DEBF0FBECDBF09942A88398848885F846F
:1038A0006E847D848C849B84AA84B984C884DF80E0
:1038B000EE80FD800C811B81AA81B981CE0FD11DC4
:1038C0000FB6F894DEBF0FBECDBFED010895A1E2A3
:1038D0001A2EAA1BBB1BFD010DC0AA1FBB1FEE1F8A
:1038E000FF1FA217B307E407F50720F0A21BB30BD5
:1038F000E40BF50B661F771F881F991F1A9469F751
:1039000060957095809590959B01AC01BD01CF01AC
:103910000895A29FB001B39FC001A39F700D811DA8
:103920001124911DB29F700D811D1124911D0895C8
:10393000991B79E004C0991F961708F0961B881F01
:103940007A95C9F780950895EE0FFF1F0590F491C1
:10395000E02D09945058BB27AA270E94C21C0C9442
:10396000C41B0E94B61B38F00E94BD1B20F039F426
:103970009F3F19F426F40C94B31B0EF4E095E7FB7B
:103980000C94AD1BE92F0E94D51B58F3BA176207A0
:1039900073078407950720F079F4A6F50C94F71BBC
:1039A0000EF4E0950B2EBA2FA02D0B01B90190015A
:1039B0000C01CA01A0011124FF27591B99F0593F9E
:1039C00050F4503E68F11A16F040A22F232F342FE6
:1039D0004427585FF3CF469537952795A795F04034
:1039E0005395C9F77EF41F16BA0B620B730B840B49
:1039F000BAF09150A1F0FF0FBB1F661F771F881F01
:103A0000C2F70EC0BA0F621F731F841F48F4879558
:103A100077956795B795F7959E3F08F0B0CF93954A
:103A2000880F08F09927EE0F9795879508950E94C3
:103A30002B1D0C94C41B0E94BD1B58F00E94B61B8A
:103A400040F029F45F3F29F00C94AD1B51110C9408
:103A5000F81B0C94B31B0E94D51B68F39923B1F398
:103A6000552391F3951B550BBB27AA2762177307A4
:103A7000840738F09F5F5F4F220F331F441FAA1F38
:103A8000A9F335D00E2E3AF0E0E832D091505040F4
:103A9000E695001CCAF72BD0FE2F29D0660F771FA2
:103AA000881FBB1F261737074807AB07B0E809F088
:103AB000BB0B802DBF01FF2793585F4F3AF09E3F0D
:103AC000510578F00C94AD1B0C94F81B5F3FE4F3A8
:103AD000983ED4F3869577956795B795F7959F5F50
:103AE000C9F7880F911D9695879597F90895E1E09C
:103AF000660F771F881FBB1F621773078407BA07FB
:103B000020F0621B730B840BBA0BEE1F88F7E09555
:103B100008950E94901D6894B1110C94F81B0895AB
:103B20000E94DD1B88F09F5798F0B92F9927B75155
:103B3000B0F0E1F0660F771F881F991F1AF0BA9551
:103B4000C9F714C0B13091F00E94F71BB1E008959D
:103B50000C94F71B672F782F8827B85F39F0B93F8F
:103B6000CCF3869577956795B395D9F73EF4909504
:103B70008095709561957F4F8F4F9F4F08950E945C
:103B8000191B08F48FEF089519F416F40C94B31B65
:103B90000C940F1E0E94DD1BB8F39923C9F3B6F3F2
:103BA0009F57550B87FF0E941D1E0024A0E640EA88
:103BB000900180585695979528F4805C660F771F82
:103BC000881F20F026173707480730F4621B730B55
:103BD000840B202931294A2BA69517940794202578
:103BE00031254A2758F7660F771F881F20F02617C0
:103BF0003707480730F4620B730B840B200D311D1F
:103C0000411DA09581F7B901842F9158880F969591
:103C1000879508950E94191B880B990B08959F3F63
:103C200031F0915020F4879577956795B795880F77
:103C3000911D9695879597F9089591505040660F7C
:103C4000771F881FD2F708950F931F93CF93DF93A9
:103C50008230910510F482E090E0E091A303F091AE
:103C6000A40320E030E0A0E0B0E0309719F14081FB
:103C700051810281138148175907C8F084179507AD
:103C800069F4109731F012960C93129713961C93C7
:103C900027C00093A3031093A40322C0211531056C
:103CA00019F04217530718F49A01BD01EF01DF0123
:103CB000F801DBCF21153105F9F0281B390B243031
:103CC000310580F48A819B816115710521F0FB012A
:103CD0009383828304C09093A4038093A303FE0183
:103CE000329644C0FE01E20FF31F8193919322505C
:103CF0003109398328833AC02091A1033091A2036E
:103D0000232B41F420910801309109013093A20343
:103D10002093A1032091060130910701211531055F
:103D200041F42DB73EB740910A0150910B01241B7D
:103D3000350BE091A103F091A203E217F307A0F481
:103D40002E1B3F0B2817390778F0AC014E5F5F4FF1
:103D50002417350748F04E0F5F1F5093A20340937E
:103D6000A1038193919302C0E0E0F0E0CF01DF91E5
:103D7000CF911F910F910895CF93DF93009709F48E
:103D800081C0FC01329713821282A091A303B091EB
:103D9000A403109781F420813181820F931F209119
:103DA000A1033091A2032817390751F5F093A2031C
:103DB000E093A10367C0ED0120E030E0CE17DF07FC
:103DC00040F44A815B819E0141155105F1F0EA0101
:103DD000F5CFD383C28340815181840F951FC817CB
:103DE000D90759F488819981840F951F0296918390
:103DF00080838A819B81938382832115310529F4F5
:103E0000F093A403E093A3033DC0E901FB83EA839D
:103E100049915991C40FD51FEC17FD0761F48081BA
:103E20009181840F951F0296E9019983888382818D
:103E300093819B838A83E0E0F0E012968D919C91C0
:103E40001397009719F0FD01DC01F7CF8D919C913C
:103E500011979D012E5F3F4F820F931F2091A10369
:103E60003091A2032817390769F4309729F410928A
:103E7000A4031092A30302C013821282B093A20380
:103E8000A093A103DF91CF910895A0E0B0E0EBE40F
:103E9000FFE10C94341CEC01009721F4CB010E944B
:103EA000241EB4C0FC01E60FF71F9C01225031090B
:103EB000E217F30708F4A8C0D9010D911C911197DE
:103EC00006171707B0F00530110508F49BC0C801AC
:103ED00004978617970708F495C002501109061B2E
:103EE000170B019311936D937C93CF010E94BC1E1D
:103EF00089C05B01A01AB10A4C01800E911EA091ED
:103F0000A303B091A403612C712CE12CF12C109728
:103F100009F446C08D919C911197A815B905B1F58A
:103F20006C0142E0C40ED11CCA14DB0478F14C01D0
:103F30008A189B08640142E0C40ED11C1296BC9002
:103F400012971396AC91B5E0CB16D10440F0B28233
:103F5000A38391828082D9016D937C9309C00E5F07
:103F60001F4F800F911FF90191838083EB2DFA2F52
:103F7000E114F10431F0D7011396FC93EE931297FC
:103F800041C0F093A403E093A3033CC068167906F4
:103F900008F43C017D0112960D90BC91A02DB7CF85
:103FA0008091A1039091A20388169906E1F4661608
:103FB0007706C8F48091060190910701009741F4BB
:103FC0008DB79EB740910A0150910B01841B950B50
:103FD000E817F907C8F4F093A203E093A103F901ED
:103FE000718360830FC0CB010E94241E7C01009767
:103FF00059F0A801BE010E940B20CE010E94BC1EF8
:10400000C70104C0CE0102C080E090E0CDB7DEB7AA
:10401000EEE00C94501CFB01DC0102C001900D92FB
:1040200041505040D8F70895FC018191861721F046
:104030008823D9F7992708953197CF010895FB0177
:10404000DC0101900D920020E1F70895FB015191F0
:104050005523A9F0BF01DC014D9145174111E1F74E
:1040600059F4CD010190002049F04D9140154111C6
:10407000C9F3FB014111EFCF81E090E00197089572
:1040800010E0C0E9D0E004C0FE010E94A41C21960B
:0A409000C139D107C9F7F894FFCF3A
:10409A0096000000DC420000A5038000000000003A
:1040AA0037040304CB03F102DB025504BA02860289
:1040BA0065020F02CB01000000005201BC00E900BA
:1040CA009F011A01F8000C0100000000EE05960A93
:1040DA0055038A0436038D039804AF03A2043E03F2
:1040EA0085046B038F0400004843B405537461725E
:1040FA0074696E6700473100473031002D3100473F
:10410A00323800474F000D0A00746F74616C4C69B5
:10411A006E6550756C73657320203D2020006E61BA
:10412A006E00696E66006F76660020202020736537
:10413A006E7450756C73657320203D2020004143D6
:0C414A0043454C0044454343454C0000F5
:00000001FF
