:100000000C9481000C94A9000C94A9000C94A900F4
:100010000C94A9000C94A9000C94A9000C94A900BC
:100020000C94A9000C94A9000C94A9000C94CB0486
:100030000C94A9000C94A9000C94A9000C94A9009C
:100040000C945B0E0C94A9000C9499040C9473040A
:100050000C94A9000C94A9000C94A9000C94A9007C
:100060000C94A9000C94A9004E414E494E49545994
:10007000494E46CDCCCC3D0AD7233C17B7D1387773
:10008000CC2B329595E6241FB14F0A000020410089
:1000900000C84200401C4620BCBE4CCA1B0E5AAED3
:1000A000C59D74010204081020408001020408105C
:1000B000200102040810200000000023002600296F
:1000C0000000000000250028002B000404040404A4
:1000D00004040402020202020203030303030300F6
:1000E000000000240027002A000000000800020190
:1000F0000000030407000000000000000000A4123C
:10010000A50E11241FBECFEFD8E0DEBFCDBF11E09A
:10011000A0E0B1E0E0E1F7E302C005900D92AC365B
:10012000B107D9F722E0ACE6B1E001C01D92AF3CC7
:10013000B207E1F710E0C0E8D0E004C02197FE016B
:100140000E94EB17CF37D107C9F70E94A90E0C9474
:100150007B1B0C9400000895CF92DF92EF92FF92E8
:100160000F931F93CF93DF936C017A018B01C0E053
:10017000D0E0CE15DF0581F0D8016D918D01D6015B
:10018000ED91FC910190F081E02DC6010995892B3C
:1001900011F02196EECF7E01C701DF91CF911F9123
:1001A0000F91FF90EF90DF90CF90089580E090E066
:1001B0000895FC01538D448D252F30E0842F90E06D
:1001C000821B930B541710F0CF9608950197089552
:1001D000FC01918D828D981761F0828DDF01A80F4F
:1001E000B11D5D968C91928D9F5F9F73928F90E071
:1001F00008958FEF9FEF0895FC01918D828D9817E0
:1002000031F0828DE80FF11D858D90E008958FEF1C
:100210009FEF0895FC01918D228D892F90E0805CE5
:100220009F4F821B91098F739927089588E791E06A
:100230000E940A0121E0892B09F420E0822F089511
:10024000FC01848DDF01A80FB11DA35ABF4F2C9173
:10025000848D90E001968F739927848FA689B78942
:100260002C93A089B1898C91837080648C93938D39
:10027000848D981306C00288F389E02D80818F7DDC
:1002800080830895EF92FF920F931F93CF93DF9394
:10029000EC0181E0888F9B8D8C8D981305C0E889D7
:1002A000F989808185FD26C0F62E0B8D10E00F5F49
:1002B0001F4F0F731127E02E8C8DE8120CC00FB664
:1002C00007FCFACFE889F989808185FFF5CFCE0157
:1002D0000E942001F1CF8B8DFE01E80FF11DE35A42
:1002E000FF4FF0829FB7F8940B8FEA89FB898081DA
:1002F00080620AC09FB7F894EE89FF896083E8891D
:10030000F98980818370806480839FBF81E090E061
:10031000DF91CF911F910F91FF90EF900895CF93B0
:10032000DF93EC01888D8823C9F0EA89FB898081FD
:1003300085FD05C0A889B9898C9186FD0FC00FB6CF
:1003400007FCF5CF808185FFF2CFA889B9898C9110
:1003500085FFEDCFCE010E942001E7CFDF91CF9145
:10036000089580E090E0892B29F00E941601811108
:100370000C9400000895DC01ED91FC910280F38162
:10038000E02D6FE609946F70DC0195962C9195979E
:10039000207F622B95966C93959792962D913D9127
:1003A0004D915C919597ED91FC910190F081E02D3C
:1003B0006CE60994DC0194962C91949760FB21F9EA
:1003C00094962C93949792962D913D914D915C919A
:1003D0009597ED91FC910190F081E02D6CE60994E8
:1003E000DC0193968C91939760FB87F993968C939D
:1003F00093976695617094968C9194978E7F682BF5
:1004000094966C93949792962D913D914D915C9119
:100410009597ED91FC9111970190F081E02D6CE69C
:10042000CD010994DC0192968C91929760FB87F93B
:1004300092968C9392976695677093968C9193970A
:10044000887F682B93966C93939792962D913D910C
:100450004D915C919597ED91FC9111970190F081F0
:10046000E02D6CE6CD010994DC016770962F929522
:10047000907F92966C9192976F78692B92966C937D
:10048000929792962D913D914D915C919597ED911A
:10049000FC9111970190F081E02D6CE6CD0109945B
:1004A00008950E94900D892F8F7008950E94900DDD
:1004B0008695817008950E94900D771F7727771F8A
:1004C0008170880F872B08950E94900D862F881FBA
:1004D0008827881F7770770F872B08950E94900DCB
:1004E000862F8295877008958DE58CBD81E08DBD46
:1004F0000895CF92DF92EF92FF921F93CF93DF93F5
:10050000EC0169017A01162F10688BA99CA9892B2F
:1005100011F40E94740260E089A90E94980D612F75
:10052000CE010E94720C898B6F2D7727882799271F
:10053000CE010E94720CB70188279927CE010E9434
:10054000720C99278F2D7E2D6D2DCE010E94720C7D
:100550006C2DCE010E94720C11E08DA9181734F495
:1005600065E0CE010E947C0D1F5FF7CF61E089A995
:10057000DF91CF911F91FF90EF90DF90CF900C947F
:10058000980DCF92DF92EF92FF921F93CF93DF935C
:10059000EC01F62E8BA99CA9892B11F40E94740200
:1005A00060E089A90E94980D6F2DCE010E94720C07
:1005B00064E0CE010E947C0D11E08DA9181734F47F
:1005C00065E0CE010E947C0D1F5FF7CF61E089A935
:1005D0000E94980D60E089A90E94980D80911502F3
:1005E000181734F465E0CE010E947C0D1F5FF6CF32
:1005F0006F2DCE010E94720C898B60E0CE010E94AB
:10060000720CC82ED12CE12CF12CFE2CED2CDC2C04
:10061000CC2460E0CE010E94720CC82AFE2CED2C86
:10062000DC2CCC2460E0CE010E94720CC82AFE2C87
:10063000ED2CDC2CCC2460E0CE010E94720CC82A88
:1006400061E089A90E94980DC701B601DF91CF91A1
:100650001F91FF90EF90DF90CF900895CF92DF929F
:10066000EF92FF921F93CF93DF93882329F081E0CD
:10067000682784E013E002C086E015E00E94980D30
:1006800061E0812F0E94980D609102017091030139
:1006900080910401909105010E94D0186B017C01AA
:1006A000EB016230710540F0CB01880F991F880F74
:1006B000991F05970197F1F760E0812F0E94980D2F
:1006C000229750F0CC0CDD1CCC0CDD1C85E0C81A48
:1006D000D108C6010197F1F7DF91CF911F91FF90EB
:1006E000EF90DF90CF900895FC0180819181009779
:1006F00011F00C946F1460E070E0CB010895FC01E0
:1007000080819181009711F00C94731460E070E087
:10071000CB010895CF93DF93FC0124813581232BF6
:1007200069F0C081D181062E000C770BCE010E94AA
:100730004F1B009719F08C1B9D0B02C08FEF9FEF92
:10074000DF91CF9108950F931F93CF93DF93EC0127
:1007500088819981009729F02A813B8126173707E4
:1007600088F48B016F5F7F4F0E94801A009761F0C1
:10077000998388831B830A832C813D81232B11F469
:10078000FC01108281E001C080E0DF91CF911F91D8
:100790000F910895EF92FF920F931F93CF93DF93E2
:1007A000EC017B018A01BA010E94A30328813981EF
:1007B00081110DC02115310519F0C9010E94F719E9
:1007C000198218821D821C821B821A8206C01D8318
:1007D0000C83B701C9010E945A1BCE01DF91CF9152
:1007E0001F910F91FF90EF900895FC0180819181FE
:1007F0000C94F719FC011182108213821282158267
:1008000014826115710551F0FB0101900020E9F798
:100810003197AF01461B570B0C94CA030895BF9242
:10082000CF92DF92EF92FF920F931F93CF93DF93BC
:100830007C016B01EA0189012417350720F48D2F13
:10084000E901042F182F67E671E0C7010E94FA033F
:10085000D60114968D919C911597C817D907C0F5AC
:100860008017910708F48C01D601ED91FC91119746
:10087000E00FF11FB08010826D917C916C0F7D1F95
:100880006115710561F0FB0101900020E9F73197D6
:10089000AF01461B570BC7010E94CA0313C0F701E3
:1008A00080819181009711F00E94F719D70111966C
:1008B0001C921E9215961C921E92149713961C92CF
:1008C0001E921297D601ED91FC91E00FF11FB082BC
:1008D000C701DF91CF911F910F91FF90EF90DF90B3
:1008E000CF90BF9008951F920F920FB60F921124D0
:1008F0002F933F934F935F936F937F938F939F9328
:10090000AF93BF93EF93FF9388E791E00E9420019C
:10091000FF91EF91BF91AF919F918F917F916F91D7
:100920005F914F913F912F910F900FBE0F901F90AD
:1009300018951F920F920FB60F9211242F938F9339
:100940009F93EF93FF93E0918801F091890180815B
:10095000E0918E01F0918F0182FD12C09081809113
:1009600091018F5F8F7320919201821751F0E09176
:100970009101F0E0E858FE4F958F8093910101C0FE
:100980008081FF91EF919F918F912F910F900FBEDA
:100990000F901F9018951F920F920FB60F9211246F
:1009A0002F933F934F935F936F937F938F939F9377
:1009B000AF93BF93EF93FF938091760187FF05C0BC
:1009C00010928500109284001BC020917601022EA7
:1009D000000C330B80913A0290E02817390784F419
:1009E00080917601082E000C990BFC01EE0FFF1F81
:1009F0008E0F9F1FFC01EA5EFD4F808186FD15C0B2
:100A0000809176018F5F8093760120917601022E8E
:100A1000000C330B80913A0290E028173907C4F498
:100A2000809176018C3064F113C080917601082E9C
:100A3000000C990BFC01EE0FFF1F8E0F9F1FFC0196
:100A4000EA5EFD4F808160E08F730E94980DD8CFE1
:100A50008091840090918500049680349C4918F41C
:100A600080E49CE905C08091840090918500049603
:100A700090938900809388008FEF809376013BC02C
:100A8000209184003091850080917601082E000C21
:100A9000990BFC01EE0FFF1F8E0F9F1FFC01EA5EFA
:100AA000FD4F81819281820F931F909389008093E3
:100AB000880080917601082E000C990BFC01EE0F46
:100AC000FF1F8E0F9F1FFC01EA5EFD4F808186FF96
:100AD00012C080917601082E000C990BFC01EE0FDC
:100AE000FF1F8E0F9F1FFC01EA5EFD4F808161E0BA
:100AF0008F730E94980DFF91EF91BF91AF919F91DD
:100B00008F917F916F915F914F913F912F910F90B6
:100B10000FBE0F901F9018954F925F926F927F9229
:100B20008F929F92AF92BF92EF92FF920F931F937B
:100B3000CF93DF93811103C0C6E9D0E002C0C4E6C1
:100B4000D0E008E810E0B8E5EB2EB2E0FB2E84EB35
:100B5000882E912CA12CB12C809100019091010143
:100B60008C179D0709F488C08C179D0714F4019613
:100B700001C00197909301018093000160910001F1
:100B800070910101603282E07807DCF577FD06C0E4
:100B9000653B71052CF064EB70E002C060E070E032
:100BA0008091BE022801481A510887FD5394D20152
:100BB000AA0FBB1FAA0FBB1F2D01BB0F660877082A
:100BC0008091BF029701281B310987FD3395220FC1
:100BD000331F220F331FC901330FAA0BBB0B9C011C
:100BE000AD012419350946095709DB010E946F1729
:100BF000A50194010E944517420E531E641E751EE6
:100C0000B2018091BD028C3080F59091BE02A801A6
:100C1000491B510997FD5395440F551F440F551F0C
:100C20006417750784F09091BF029701291B310961
:100C300097FD3395220F331F220F331FAB01261769
:100C400037070CF4A90142505109440F551F2FB723
:100C5000F89490E0FC01EE0FFF1F8E0F9F1FFC0128
:100C6000EA5EFD4F528341832FBF60E170E080E078
:100C700090E00E94210E70CF64E670E080E090E08A
:100C8000DF91CF911F910F91FF90EF90BF90AF90A8
:100C90009F908F907F906F905F904F900C94210E5B
:100CA0002F923F924F925F926F927F928F929F927C
:100CB000AF92BF92CF92DF92EF92FF920F931F936A
:100CC000CF93DF93CDB7DEB7AC970FB6F894DEBF06
:100CD0000FBECDBF1B018BA79CA7298339874D87EA
:100CE0005E872701380120E030E846EB54E4C80174
:100CF000B7010E941E1618165CF420E030E04AE7A7
:100D000054E4C601B5010E941E1618160CF42FC437
:100D100060E082E00E94980D4092450250924602A7
:100D20006092470270924802A0924102B092420241
:100D3000C0924302D092440291014BA55CA5C3012D
:100D4000B2010E94F1176B8F7C8F8D8F9E8F29814E
:100D500039854D855E85C601B5010E94F1176F8FFB
:100D600078A389A39AA32B8D3C8D4D8D5E8DCA01EE
:100D7000B9010E9484166D837E838F8398872F8D9F
:100D800038A149A15AA1CA01B9010E9484169B0148
:100D9000AC016D817E818F8198850E94F2170E943F
:100DA0000A196B8B7C8B8D8B9E8B298139854D85A8
:100DB0005E85698179858D859E850E9484166D8307
:100DC0007E838F83988791014BA55CA5B1018BA58C
:100DD0009CA50E9484162D813E814F8158850E94DA
:100DE000F2170E940A196F87788B898B9A8B910171
:100DF0004BA55CA560E070E886EB94E40E94F117D7
:100E00009B01AC010E9484162D813E814F81588543
:100E10000E94F2170E940A196D837E838F83988740
:100E2000A6019501C601B5010E9484166B017C01E3
:100E3000A3019201C301B2010E948416A701960189
:100E40000E94F2170E940A194B015C01A301920152
:100E500060E070E886EB94E40E94F1179B01AC011E
:100E60000E948416A70196010E94F2170E940A1997
:100E70006B017C012F85388949895A89C501B401E4
:100E80000E94F1172B013C012D813E814F81588535
:100E9000C701B6010E94F1176B017C0120E030E030
:100EA000A901C301B2010E94FF18530142011816A3
:100EB00024F0B7FAB094B7F8B09420E030E0A9017C
:100EC000C701B6010E94FF18181624F0F7FAF09433
:100ED000F7F8F094A7019601C501B4010E94FF182C
:100EE00018167CF420E030E0A901C301B2010E9491
:100EF000FF1873016201181624F0F7FAF094F7F85E
:100F0000F0942091490230914A0240914B02509155
:100F10004C02C701B6010E945E186FA378A789A78B
:100F20009AA76093720170937301809374019093F8
:100F3000750110926E0110926F0110927001109263
:100F4000710180E090E0A0E2B1E48F87988BA98BDB
:100F5000BA8B1D821E821F8218862B893C894D897F
:100F60005E896D817E818F8198850E941E1687FF24
:100F7000FEC22F85388949895A896B897C898D8978
:100F80009E890E94F1179B01AC016D817E818F814A
:100F900098850E94FF18181674F42D813E814F81A8
:100FA00058856B897C898D899E890E94F1176F878E
:100FB000788B898B9A8B2B893C894D895E896F85CB
:100FC000788989899A890E945E186B017C019B014E
:100FD000AC016B8D7C8D8D8D9E8D0E948416910150
:100FE0004BA55CA50E94F2176F8B788F898F9A8F23
:100FF000A70196016F8D78A189A19AA10E948416FC
:10100000298139854D855E850E94F2176BA37CA3EB
:101010008DA39EA3298139854D855E85698179855A
:101020008D859E850E9484166B017C0191014BA5E4
:101030005CA5B1018BA59CA50E948416A701960111
:101040000E94F2170E940A1969837A838B839C831A
:1010500091014BA55CA560E070E886EB94E40E94EA
:10106000F1179B01AC010E948416A70196010E9412
:10107000F2170E940A192B013C012BA13CA14DA1A2
:101080005EA16BA17CA18DA19EA10E9484164B0143
:101090005C012F89388D498D5A8D6F89788D898DA6
:1010A0009A8D0E948416A50194010E94F2170E9455
:1010B0000A196B017C012F89388D498D5A8D60E0AA
:1010C00070E886EB94E40E94F1179B01AC010E944A
:1010D0008416A50194010E94F2170E940A194B017F
:1010E0005C0129813A814B815C81C701B6010E9474
:1010F000F1176B017C01A3019201C501B4010E94AB
:10110000F1174B015C0120E030E0A901C701B601F5
:101110000E94FF1887FD12C020E030E0A901C50140
:10112000B4010E94FF1887FF1EC020E030E0A90133
:10113000C501B4010E941E1687FD1AC020E030E0F0
:10114000A901C701B6010E941E1687FF15C091E0D4
:101150009D8720E030E0A901C501B4010E94FF187D
:1011600087FF0BC009C0A1E0AD87B1E0BE8706C014
:101170001D8621E02E8702C01D861E8620E030E0FD
:10118000A901C701B6010E94FF18260137011816F0
:1011900024F077FA709477F8709420E030E0A90199
:1011A000C501B4010E94FF18A501940118160CF0A6
:1011B0005058C301B2010E94FF1887FD07C08D85FA
:1011C0009E859D878E872224239401C0212C20E0B8
:1011D00030E0A901C701B6010E94FF1826013701BE
:1011E000181624F077FA709477F8709420E030E0C5
:1011F000A901C501B4010E94FF1818160CF489C199
:10120000D501C401B05889839A83AB83BC83A30101
:101210009201BC01CD010E94FF18181684F420E051
:1012200030E0A901C701B6010E94FF181816BCF0F2
:10123000D701C601B05889839A83AB83BC8320E071
:1012400030E0A901C701B6010E94FF1818165CF032
:101250002601370177FA709477F8709406C0C98236
:10126000DA82EB82FC822601370120E030E0A9011E
:10127000C501B4010E94FF18181624F0B7FAB09403
:10128000B7F8B094A3019201C501B4010E941E16E3
:1012900087FF0FC020E030E0A901C701B6010E941E
:1012A000FF1846015701181624F0B7FAB094B7F8A2
:1012B000B0942091490230914A0240914B025091E2
:1012C0004C02C501B4010E945E1869877A878B873A
:1012D0009C87A501940169817A818B819C810E9400
:1012E0005E1869837A838B839C8300E010E0C12CB5
:1012F000D12C7601332433943224B801012E000C12
:10130000880B990B0E9425169B01AC0169857A8593
:101310008B859C850E94FF1818160CF0DDC080900C
:101320006E0190906F01A0907001B090710120E06B
:1013300030E040E253E4C501B4010E94F11720E01F
:1013400030E0A9010E941E1687FF12C0A1E0B0E0A4
:10135000B0936D01A0936C0180E090E0ACE8B3E441
:101360008093020190930301A0930401B0930501BF
:1013700020E030E040E253E4C501B4010E94F217DE
:101380009B01AC016FA178A589A59AA50E941E16A4
:1013900087FF06C0AFEFBFEFB0936D01A0936C0164
:1013A00080916C0190916D01019741F520E030E052
:1013B00040E95FE3609102017091030180910401B3
:1013C000909105010E94F1172B013C0120E030E0D3
:1013D00048EC52E40E941E1687FF2EC080E090E089
:1013E000A8ECB2E48093020190930301A09304015E
:1013F000B093050110926D0110926C0180916C0107
:1014000090916D01019689F520E030E040E95FE3BD
:101410006091020170910301809104019091050196
:101420000E94F2172B013C0120E030E04CE853E42D
:101430000E94FF1818164CF04092020150920301CE
:10144000609204017092050110C080E090E0ACE869
:10145000B3E48093020190930301A0930401B0933D
:10146000050110926D0110926C0120E030E040E81F
:101470005FE3C501B4010E94F21760936E0170939F
:101480006F0180937001909371016D85822D0E9490
:101490002E0329813A814B815C81C701B6010E94EC
:1014A000F2176B017C0120E030E040E85FE30E942E
:1014B000FF1887FD0EC06E85832D0E942E0320E04D
:1014C00030E040E85FE3C701B6010E94F1176B010D
:1014D0007C010F5F1F4F11CF2F85388949895A89A9
:1014E0006D817E818F8198850E94F2176D837E8346
:1014F0008F8398872F88388C998D9BA7AA8DACA74E
:10150000BBA1B9832CA129878DA18D879EA19E8720
:1015100024CDA3019201C501B4010E94FF18181641
:101520008CF420E030E0A901C701B6010E94FF1849
:1015300018160CF07DCE26013701C982DA82EB82C3
:10154000FC82A0CE20E030E0A901C701B6010E94D4
:10155000FF1818163CF42601370189829A82AB8263
:10156000BC8290CE89829A82AB82BC8271CEAC96CC
:101570000FB6F894DEBF0FBECDBFDF91CF911F91A4
:101580000F91FF90EF90DF90CF90BF90AF909F9022
:101590008F907F906F905F904F903F902F90089525
:1015A0000F931F93CF93DF938C01EB01FC0180819C
:1015B00091810097B1F0688179816115710579F0A9
:1015C000428153812C813D814217530740F00E9494
:1015D0005A1B8C819D81F8019583848313C00E94DE
:1015E000F71988819981F801918380838A819B8191
:1015F000938382838C819D81958384831982188251
:101600001B821A821D821C82DF91CF911F910F9144
:1016100008951F93CF93DF93EC012AE037ED43EA5F
:101620005CE369857A858B859C850E94F2172AE2A6
:101630003DE64DEF51E40E94841626E636E646EA82
:101640005EE30E945E1820E030E040E85FE30E9425
:10165000F1170E94D018162F603120F561E0CE01FD
:101660000E94DA012AE037ED43EA5CE369857A8576
:101670008B859C850E94F2172AE23DE64DEF51E4EE
:101680000E9484162CEE31E548E35EE30E945E186A
:1016900020E030E040E85FE30E94F1170E94D0189C
:1016A000162F04C060E0CE010E94DA01103208F06B
:1016B0001FE1912F9F718B81807E892B8B832A81E3
:1016C000382F8C81482F4F7050E060E1CE010E948E
:1016D0007902612F70E080E090E00E9425162D8550
:1016E0003E854F8558890E9484160E94D0186F71DC
:1016F0008A81807E682B6A83262F3B818C81482FCC
:101700004F7050E060E1CE01DF91CF911F910C94BA
:1017100079020F931F93CF93DF93EC0161E089A9C6
:101720000E94E50D61E089A90E94980D0BA91CA9F2
:101730000115110509F456C061E0F80180810E948D
:10174000E50D61E0F80184810E94E50D62E0F80199
:1017500082810E94E50DF80140815181FA01E55333
:10176000FF4FE491F0E0EE0FFF1FEF53FF4F859125
:101770009491F8019287818722813381F901E553A1
:10178000FF4FE491F0E0EE0FFF1FE954FF4F85910A
:101790009491F8019487838784819581FC01E553B6
:1017A000FF4FE491F0E0EE0FFF1FEF53FF4FA591C5
:1017B000B491F801B687A587FA01ED55FF4F449122
:1017C000F8014683F901ED55FF4F2491F801278375
:1017D000FC01ED55FF4F9491F80190878C91E92F12
:1017E000E82BEC932A893B898C89482F437050E081
:1017F00060E0CE010E9479022AA13BA14CA15DA12B
:101800006CE6CE010E9479022EA13FA148A559A500
:1018100051706DE6CE010E9479022DA53EA58FA5DF
:10182000482F4F7350E060E7CE010E9479022A8171
:101830003B818C81482F4F7050E060E1CE010E94C7
:1018400079028AA1807F88608AA32AA13BA14CA14A
:101850005DA16CE6CE010E94790261E0CE01DF91CC
:10186000CF911F910F910C94F00142E050E065E69A
:1018700071E088E791E00C94AC00FC0111821082C9
:101880001382128215821482F2E08B339F0769F073
:1018900060913B0270913C026115710531F04091FD
:1018A0003F02509140020C94CA030895CF93DF93F6
:1018B00020913F0230914002232B79F0FC01C0912E
:1018C0003B02D0913C0260817181CE010E94611B7C
:1018D000009719F08C1B9D0B02C08FEF9FEFDF91DB
:1018E000CF910895CF93DF93DC01D396ED91FC91D6
:1018F000D497309709F45AC0A585B6859C91808508
:10190000809589238C9327E030E080E0C62FD0E0DB
:10191000722FA185B2859681AE01022E02C0559527
:1019200047950A94E2F740FF03C04C91942B03C003
:101930004C91909594239C93A585B6854C91908568
:10194000942B9C93A385B4854C919781942341E07B
:1019500050E011F440E050E001C0440F7A95EAF7FE
:10196000842BA585B6854C919085909594239C9366
:101970002150310969F6A185B28596812C9160FFCD
:1019800002C0922B02C0909592239C93A585B685A8
:101990002C919085922B9C93A385B4852C91978153
:1019A000922321E009F420E0822B06C06EBD0000E6
:1019B0000DB407FEFDCF8EB5DF91CF910895BF9294
:1019C000CF92DF92EF92FF920F931F93CF93DF930B
:1019D000CDB7DEB72C970FB6F894DEBF0FBECDBFE4
:1019E0008C016B01B42E68E671E00E94FA036B2D46
:1019F000C6010E948A038F3F2FEF920709F446C069
:101A00009C012E5F3F4FAC014F5F5F4FB601CE018F
:101A100007960E940F0460E2CE0107960E948A0397
:101A20007C016B2DC6010E948A039701281B390B8C
:101A30002F5F3F4FAC014F5F5F4FB601CE01019664
:101A40007C010E940F04E016F10621F0B701C801E5
:101A50000E94D00AC7010E94F503CE0107960E949A
:101A6000F50360E2C8010E948A039C0140E050E057
:101A7000B801C7010E940F04E016F10621F0B7017A
:101A8000C8010E94D00AC7010E94F503C8012C9624
:101A90000FB6F894DEBF0FBECDBFDF91CF911F917F
:101AA0000F91FF90EF90DF90CF90BF9008953FB7D8
:101AB000F8948091C5029091C602A091C702B0919E
:101AC000C80226B5A89B05C02F3F19F00196A11D9D
:101AD000B11D3FBFBA2FA92F982F8827820F911DC4
:101AE000A11DB11DBC01CD0142E0660F771F881F0B
:101AF000991F4A95D1F708950F931F93CF93DF93C2
:101B00008C01D62FC0E0CD1731F060E0C8010E94F3
:101B1000720CCF5FF8CFDF91CF911F910F91089595
:101B2000DC01ED91FC910280F381E02D6CE60994DB
:101B300090E0FC01E751FF4F2491FC01ED55FF4F70
:101B40003491FC01E553FF4FE491EE2309F43CC0CE
:101B5000222339F1233091F038F42130A9F02230DA
:101B600001F584B58F7D12C0273091F02830A1F0A7
:101B70002430B9F4809180008F7D03C08091800073
:101B80008F77809380000DC084B58F7784BD09C0A6
:101B90008091B0008F7703C08091B0008F7D8093DB
:101BA000B000F0E0EE0FFF1FEF53FF4FA591B4918F
:101BB0009FB7F894611104C08C913095382302C00E
:101BC000EC913E2B3C939FBF0895CF93DF9390E021
:101BD000FC01ED55FF4F2491FC01E553FF4F84912B
:101BE000882361F190E0880F991FFC01E152FF4FBB
:101BF000C591D491FC01EF53FF4FA591B4916111B0
:101C000009C09FB7F8948881209582238883EC913E
:101C10002E230BC0623061F49FB7F8948881322F75
:101C2000309583238883EC912E2B2C939FBF06C085
:101C30008FB7F894E8812E2B28838FBFDF91CF9147
:101C400008958F929F92AF92BF92CF92DF92EF92C0
:101C5000FF926B017C010E94570D4B015C01C11486
:101C6000D104E104F104F1F00E94570DDC01CB0135
:101C700088199909AA09BB09883E9340A105B105B5
:101C800070F321E0C21AD108E108F10888EE880E4D
:101C900083E0981EA11CB11CC114D104E104F1041D
:101CA00019F7DDCFFF90EF90DF90CF90BF90AF900E
:101CB0009F908F9008951F920F920FB60F9211244C
:101CC0002F933F938F939F93AF93BF938091C102C4
:101CD0009091C202A091C302B091C4023091C0029F
:101CE00023E0230F2D3720F40196A11DB11D05C05F
:101CF00026E8230F0296A11DB11D2093C0028093F8
:101D0000C1029093C202A093C302B093C402809117
:101D1000C5029091C602A091C702B091C802019677
:101D2000A11DB11D8093C5029093C602A093C70266
:101D3000B093C802BF91AF919F918F913F912F9126
:101D40000F900FBE0F901F9018958BE392E00C94AC
:101D5000F503CF93DF93CDB7DEB7A4970FB6F89412
:101D6000DEBF0FBECDBF789484B5826084BD84B5DC
:101D7000816084BD85B5826085BD85B5816085BD86
:101D800080916E00816080936E001092810080913E
:101D900081008260809381008091810081608093C6
:101DA0008100809180008160809380008091B100EB
:101DB00084608093B1008091B00081608093B00016
:101DC00080917A00846080937A0080917A008260AA
:101DD00080937A0080917A00816080937A0080916C
:101DE0007A00806880937A001092C100E0918801A7
:101DF000F091890182E08083E0918401F091850176
:101E00001082E0918601F09187018FEC808310921F
:101E10009001E0918C01F0918D0186E08083E0914A
:101E20008A01F0918B01808180618083E0918A0139
:101E3000F0918B01808188608083E0918A01F0912C
:101E40008B01808180688083E0918A01F0918B0111
:101E500080818F7D80838091BD028C3008F051C0DD
:101E600061E08AE00E94E50D8091BD02E82FF0E07C
:101E70009F01220F331FE20FF31FEA5EFD4F908197
:101E8000907C9A6090831092BE021092BF026CE028
:101E90000E94DF172CE0829FB001112440E050E047
:101EA0009B01240F351FF901EE0FFF1F2E0F3F1F5F
:101EB000F901EA5EFD4F908196FD16C04F5F5F4FBE
:101EC0004C30510569F781110FC01092800082E0FB
:101ED000809381001092850010928400B19A8091C5
:101EE0006F00826080936F00E091BD02F0E0CF014F
:101EF000880F991FE80FF91FEA5EFD4F808180640B
:101F0000808348E050E062E471E088E791E00E945D
:101F1000AC000E94350C80E00E948C0561E083E0FB
:101F20000E94E50D61E084E00E94E50D61E085E03E
:101F30000E94E50D61E086E00E94E50D61E082E02F
:101F40000E94E50D60E082E00E94980D1FB7F894B2
:101F500080917701811127C0E5EDF0E08491EDEAF1
:101F6000F0E09491E82FF0E0EE0FFF1FE152FF4FF9
:101F7000A591B491EC91E92321F461E08AE00E94FB
:101F8000980D61E08AE00E94E50D8CB580618CBD02
:101F90008CB580648CBD61E08DE00E94E50D61E050
:101FA0008BE00E94E50D809177018F5F8093770130
:101FB0001FBF87E892E00E94890B87E892E00E94A9
:101FC000090B64E087E892E00E94C30180919902C6
:101FD000846080939902282F30919A0280919B020D
:101FE000482F437050E060E087E892E00E94790259
:101FF0008091B60284608093B6022091B402309141
:10200000B502482F4F7350E060E787E892E00E94E6
:10201000790281E592E00E94890B81E592E00E94BD
:10202000090B64E081E592E00E94C30180916302A4
:10203000846080936302282F30916402809165024E
:10204000482F437050E060E081E592E00E94790201
:102050008091800284608093800220917E02309182
:102060007F02482F4F7350E060E781E592E00E94C5
:10207000790288E791E00E940A01181619060CF00F
:1020800067C188E791E00E94E8008A3009F03DC10D
:102090006BE471E0CE0101960E94FA03CE01019635
:1020A0000E94560C019699F46EE471E0CE010796F9
:1020B0000E94FA03CE0107960E94560C11E0019689
:1020C00009F410E0CE0107960E94F50301C011E06B
:1020D000CE0101960E94F5031123D9F1CE0101969C
:1020E0000E943D0C48E5BE016F5F7F4FCE014396D5
:1020F0000E94DF0CCE0101960E94F503CE010196ED
:102100000E943D0C49E5BE016F5F7F4FCE010D96E9
:102110000E94DF0CCE0101960E94F503CE010196CC
:102120000E943D0C4AE5BE016F5F7F4FCE010796CE
:102130000E94DF0CCE0101960E94F503CE010796A6
:102140000E947F03623071058105910508F446C144
:1021500002C162E571E0CE0101960E94FA03CE0150
:1021600001960E94560C8C01CE0101960E94F50347
:102170000F3F1F4F09F1E0904D02F0904E02009189
:102180004F02109150022091410230914202409141
:102190004302509144026091450270914602809141
:1021A000470290914802A12CB12CE8E4CE2EE3E442
:1021B000DE2E0E94500696C066E571E0CE010196C3
:1021C0000E94FA03CE0101960E94560C8C01CE01AA
:1021D00001960E94F5030F3F1F4F11F060E013C0FE
:1021E0006AE571E0CE0101960E94FA03CE010196E4
:1021F0000E94560C8C01CE0101960E94F5030F3F00
:102200001F4F29F061E082E00E94980D6BC06EE5DF
:1022100071E0CE0101960E94FA03CE0101960E9460
:10222000560C8C01CE0101960E94F5030F3F1F4F03
:1022300009F458C0CE0101960E943D0C48E5BE014C
:102240006F5F7F4FCE010D960E94DF0CCE0101968D
:102250000E94F503CE0101960E943D0C49E5BE01A6
:102260006F5F7F4FCE0107960E94DF0CCE01019673
:102270000E94F503CE010D960E94740320E030E029
:1022800040E85FEB0E941E16882361F0CE010D9698
:102290000E94740360934502709346028093470244
:1022A00090934802CE0107960E94740320E030E02C
:1022B00040E85FEB0E941E16882361F0CE0107966E
:1022C0000E94740360934102709342028093430220
:1022D00090934402CE0107960E94F503CE010D961D
:1022E0000E94F50340E050E067E671E08BE392E086
:1022F0000E94CA0342E050E062E671E088E791E0A4
:102300000E94AC000E94350C23C089831A82C090C1
:102310003F02D0904002BFEFCB1ADB0AB6018BE33D
:1023200092E00E94A303882399F020913B02309110
:102330003C0280913F0290914002BE016F5F7F4F4F
:10234000820F931F0E945A1BD0924002C0923F02FC
:102350000E94B1018ECECE0143960E94740320E00C
:1023600030E040E85FEB0E941E16882309F4A1C00C
:10237000CE010D960E94740320E030E040E85FEB50
:102380000E941E16882309F494C0CE010D960E9467
:1023900074035B016C01CE0143960E9474037B01C0
:1023A0008C012091410230914202409143025091B0
:1023B00044026091450270914602809147029091DB
:1023C00048020E945006CE0107960E94F503CE01F6
:1023D0000D960E94F503CE01439682CFCE0143961F
:1023E0000E94740320E030E040E85FEB0E941E167C
:1023F000882309F450C0CE010D960E94740320E09A
:1024000030E040E85FEB0E941E16882309F443C0C9
:10241000CE0107960E947F03698F7A8F8B8F9C8FE6
:10242000CE010D960E9474035B016C01CE014396B0
:102430000E9474032B013C01209141023091420221
:1024400040914302509144022D8F3E8F4F8F58A3ED
:102450008091450290914602A0914702B0914802B6
:1024600089A39AA3ABA3BCA381E0298D3A8D4B8DA0
:102470005C8D232B242B252B09F080E00E948C05FA
:10248000830172012D8D3E8D4F8D58A169A17AA1D6
:102490008BA19CA196CFCE0107960E947F0321E0DD
:1024A000672B682B692B09F020E0822F0E948C0596
:1024B0008ACFCE0143960E94740320E030E040E8CA
:1024C0005FEB0E941E168823C9F0CE0143960E943E
:1024D00074037B018C0120914102309142024091B2
:1024E00043025091440260914502709146028091EE
:1024F00047029091480259016A0163CFCE010D96BF
:102500000E94740320E030E040E85FEB0E941E165A
:10251000882309F458CFCE010D960E9474035B0105
:102520006C01609145027091460280914702909142
:102530004802209141023091420240914302509161
:1025400044027B018C013DCF10927B0110927A01F5
:1025500088EE93E0A0E0B0E080937C0190937D0151
:10256000A0937E01B0937F0180E191E09093790187
:102570008093780185EC90E09093850180938401AD
:1025800084EC90E0909387018093860180EC90E04A
:10259000909389018093880181EC90E090938B0166
:1025A00080938A0182EC90E090938D0180938C015E
:1025B00086EC90E090938F0180938E0110929101B0
:1025C00010929201109293011092940180913A021C
:1025D0008C30A0F491E0980F90933A028093BD0262
:1025E00090E0FC01EE0FFF1F8E0F9F1FFC01EA5EC3
:1025F000FD4F88EB9BE09283818303C08FEF809334
:10260000BD021092890210928A0280918B02807F13
:1026100080938B0210928C0210928D0210928E0287
:1026200080918F02807F80938F028EEA97E4A1EEE3
:10263000BDE38093900290939102A0939202B09395
:10264000930280E090E0A0E0BFE380939402909337
:102650009502A0939602B093970282E291E0909344
:102660008802809387021092990210929A028091B8
:102670009B028C7F80939B0210929C0210929D0281
:1026800080919E02807F80939E0210929F02109202
:10269000A0028091A102807F8093A1021092A202E9
:1026A0001092A3021092A4028091A5028E7F8093C3
:1026B000A5021092A6021092A7028091A80280782B
:1026C0008093A8021092A9021092AA021092AB0263
:1026D0001092AC021092AD021092AE021092AF02B4
:1026E0008091B0028E7F8093B0021092B10210925E
:1026F000B2021092B3028091B7028C7F8093B7022E
:1027000087E090E09093B9028093B8021092BB02E8
:102710001092BA029FEF9093BC0280E88093B402BB
:1027200084E08093B5028091B602807C85608093BE
:10273000B602809115028F3F14F490931502109207
:1027400053021092540280915502807F809355026B
:10275000109256021092570210925802809159021C
:10276000807F809359028EEA97E4A1EEBDE38093C7
:102770005A0290935B02A0935C02B0935D0280E0EA
:1027800090E0A0E0BFE380935E0290935F02A0938D
:102790006002B093610282E291E0909352028093D2
:1027A00051021092630210926402809165028C7F44
:1027B000809365021092660210926702809168020F
:1027C000807F809368021092690210926A02809161
:1027D0006B02807F80936B0210926C0210926D02EC
:1027E00010926E0280916F028E7F80936F02109222
:1027F000700210927102809172028078809372024E
:102800001092730210927402109275021092760266
:1028100010927702109278021092790280917A02D7
:102820008E7F80937A0210927B0210927C0210922B
:102830007D02809181028C7F8093810288E090E00C
:1028400090938302809382021092850210928402F8
:102850009FEF9093860280E880937E0284E08093CD
:102860007F0280918002807C8560809380028091CD
:1028700015028F3F14F49093150280E090E8A6E3D0
:10288000B4E480934D0290934E02A0934F02B09314
:10289000500243E053E567E47CE3409349025093E0
:1028A0004A0260934B0270934C02809345029093CE
:1028B0004602A0934702B093480280E090E0A8E46B
:1028C000B3E48093410290934202A0934302B093F9
:1028D000440267E671E08BE392E00C94FA0366270A
:1028E00077270C94AF141F93FC0199278827BC010C
:1028F000E89411911032E9F3193010F01E30C8F34A
:102900001B3251F01D3249F4689406C00E949A149B
:10291000610F711D811D911D119110531A30B0F37B
:102920003EF490958095709561957F4F8F4F9F4FA6
:102930001F910895592F482F372F262F660F771F85
:10294000881F991F660F771F881F991F620F731FBB
:10295000841F951F660F771F881F991F0895A0E099
:10296000B0E0E5EBF4E10C947D17EC016B0161152F
:10297000710519F0FB01918380837E01FFEFEF1A4F
:10298000FF0A0881802F90E00E94FD15892B11F02D
:10299000E701F3CF0D3239F47E0182E0E80EF11C3D
:1029A000098111E008C00B3229F47E0192E0E90EA2
:1029B000F11C098110E0E701219743E050E060E756
:1029C00070E0CE010E940616892BC1F4239645E0E3
:1029D00050E06BE670E0CE010E940616892B09F4E8
:1029E0002596C114D10419F0F601D183C0831111C9
:1029F000F6C060E070E080E89FE7FAC043E050E096
:102A000068E670E0CE010E940616892B59F4C114C5
:102A1000D10409F4E9C0F2E0EF0EF11CF601F182F5
:102A2000E082E2C020E030E0A901C0E0D0E0F701A0
:102A300080EDA82EA00E89E08A1530F1912F9260CA
:102A4000B92E812F887012FF04C0811124C02196F5
:102A500022C081112197A5E0B0E00E946417DC013B
:102A6000CB01880F991FAA1FBB1F9C01AD012A0D26
:102A7000311D411D511D283989E93807480789E171
:102A8000580748F0166006C09EEFA9120AC013FD51
:102A900040C01860B12E8FEFE81AF80A00811B2D94
:102AA000C6CF802F8F7D8534A1F580818D3211F4C2
:102AB000106106C08B3221F0319661E070E004C0F5
:102AC0008181329662E070E080538A3018F0E61B14
:102AD000F70B1FC060E070E060389CE079075CF4A1
:102AE000DB01AA0FBB1FAA0FBB1F6A0F7B1F660F5C
:102AF000771F680F711D3196DF0111978C918053FC
:102B00008A3050F314FF03C0719561957109C60FA7
:102B1000D71F11FF08C0C114D10429F0CF010197BC
:102B2000F60191838083CA01B9010E942316212FE7
:102B30002370233019F04B015C0106C04B015C018E
:102B4000B7FAB094B7F8B09420E030E0A901C5011D
:102B5000B4010E941E16882309F43EC0D7FF06C0A8
:102B6000D195C195D10907E810E002C00FE910E046
:102B70006801F8E1CF1AD10890E2E92EF12CCE15C8
:102B8000DF0574F0F8012591359145915491C50107
:102B9000B4010E9484164B015C01CE19DF09EFCF0E
:102BA00004501109F594E7940C151D0541F78A2D81
:102BB000880F8B2D881F8F3F49F020E030E0A9015E
:102BC000C501B4010E941E16811106C082E290E088
:102BD0009093CA028093C902C501B40109C060E0A4
:102BE00070E080E89FEF04C060E070E080EC9FE759
:102BF000CDB7DEB7ECE00C94991791110C94F11657
:102C0000803219F089508550C8F70895FB01DC0126
:102C10004150504088F08D9181341CF08B350CF47C
:102C2000805E659161341CF06B350CF4605E861B30
:102C3000611171F3990B0895881BFCCF0E946016F7
:102C400008F481E00895E89409C097FB3EF490955C
:102C50008095709561957F4F8F4F9F4F9923A9F075
:102C6000F92F96E9BB279395F69587957795679504
:102C7000B795F111F8CFFAF4BB0F11F460FF1BC048
:102C80006F5F7F4F8F4F9F4F16C0882311F096E9DB
:102C900011C0772321F09EE8872F762F05C0662389
:102CA00071F096E8862F70E060E02AF09A95660F42
:102CB000771F881FDAF7880F9695879597F90895FB
:102CC000990F0008550FAA0BE0E8FEEF161617063D
:102CD000E807F907C0F012161306E407F50798F0A5
:102CE000621B730B840B950B39F40A2661F0232BBE
:102CF000242B252B21F408950A2609F4A140A6953A
:102D00008FEF811D811D08950E9497160C940B175B
:102D10000E94FD1638F00E94041720F0952311F050
:102D20000C94F4160C94FA1611240C943F170E947C
:102D30001C1770F3959FC1F3950F50E0551F629FCC
:102D4000F001729FBB27F00DB11D639FAA27F00D04
:102D5000B11DAA1F649F6627B00DA11D661F829F2B
:102D60002227B00DA11D621F739FB00DA11D621F10
:102D7000839FA00D611D221F749F3327A00D611D2D
:102D8000231F849F600D211D822F762F6A2F11240F
:102D90009F5750409AF0F1F088234AF0EE0FFF1F42
:102DA000BB1F661F771F881F91505040A9F79E3F99
:102DB000510580F00C94F4160C943F175F3FE4F338
:102DC000983ED4F3869577956795B795F795E795EF
:102DD0009F5FC1F7FE2B880F911D9695879597F9F8
:102DE000089599278827089597F99F6780E870E0EC
:102DF00060E008959FEF80EC089500240A94161671
:102E0000170618060906089500240A9412161306D8
:102E1000140605060895092E0394000C11F4882366
:102E200052F0BB0F40F4BF2B11F460FF04C06F5F82
:102E30007F4F8F4F9F4F089557FD9058440F551F58
:102E400059F05F3F71F04795880F97FB991F61F02C
:102E50009F3F79F087950895121613061406551FA3
:102E6000F2CF4695F1DF08C0161617061806991F0F
:102E7000F1CF86957105610508940895E894BB2704
:102E800066277727CB0197F90895052E97FB1EF447
:102E900000940E945C1757FD07D00E94AE1707FCF4
:102EA00003D04EF40C945C175095409530952195C5
:102EB0003F4F4F4F5F4F0895909580957095619566
:102EC0007F4F8F4F9F4F08950E94D017A59F900D61
:102ED000B49F900DA49F800D911D11240895B7FFFC
:102EE0000C9464170E946417821B930B08952F9211
:102EF0003F924F925F926F927F928F929F92AF928A
:102F0000BF92CF92DF92EF92FF920F931F93CF93D6
:102F1000DF93CDB7DEB7CA1BDB0B0FB6F894DEBF6D
:102F20000FBECDBF09942A88398848885F846E8493
:102F30007D848C849B84AA84B984C884DF80EE80DD
:102F4000FD800C811B81AA81B981CE0FD11D0FB6E6
:102F5000F894DEBF0FBECDBFED010895A1E21A2E99
:102F6000AA1BBB1BFD010DC0AA1FBB1FEE1FFF1F2D
:102F7000A217B307E407F50720F0A21BB30BE40B7D
:102F8000F50B661F771F881F991F1A9469F76095C4
:102F90007095809590959B01AC01BD01CF0108957E
:102FA000A29FB001B39FC001A39F700D811D11248A
:102FB000911DB29F700D811D1124911D0895991BC3
:102FC00079E004C0991F961708F0961B881F7A9520
:102FD000C9F780950895EE0FFF1F0590F491E02D3D
:102FE00009945058BB27AA270E9409180C940B1764
:102FF0000E94FD1638F00E94041720F039F49F3F1C
:1030000019F426F40C94FA160EF4E095E7FB0C94F0
:10301000F416E92F0E941C1758F3BA1762077307BA
:103020008407950720F079F4A6F50C943E170EF46A
:10303000E0950B2EBA2FA02D0B01B90190010C01C8
:10304000CA01A0011124FF27591B99F0593F50F4E0
:10305000503E68F11A16F040A22F232F342F442738
:10306000585FF3CF469537952795A795F040539530
:10307000C9F77EF41F16BA0B620B730B840BBAF000
:103080009150A1F0FF0FBB1F661F771F881FC2F76B
:103090000EC0BA0F621F731F841F48F4879577957F
:1030A0006795B795F7959E3F08F0B0CF9395880F39
:1030B00008F09927EE0F9795879508950E9472184A
:1030C0000C940B170E94041758F00E94FD1640F054
:1030D00029F45F3F29F00C94F41651110C943F171A
:1030E0000C94FA160E941C1768F39923B1F3552328
:1030F00091F3951B550BBB27AA276217730784070B
:1031000038F09F5F5F4F220F331F441FAA1FA9F3A0
:1031100035D00E2E3AF0E0E832D091505040E6958E
:10312000001CCAF72BD0FE2F29D0660F771F881FEF
:10313000BB1F261737074807AB07B0E809F0BB0BE2
:10314000802DBF01FF2793585F4F3AF09E3F5105F6
:1031500078F00C94F4160C943F175F3FE4F3983E1C
:10316000D4F3869577956795B795F7959F5FC9F7DF
:10317000880F911D9695879597F90895E1E0660F60
:10318000771F881FBB1F621773078407BA0720F0D9
:10319000621B730B840BBA0BEE1F88F7E095089542
:1031A0000E94241788F09F5798F0B92F9927B7519C
:1031B000B0F0E1F0660F771F881F991F1AF0BA95DB
:1031C000C9F714C0B13091F00E943E17B1E00895E4
:1031D0000C943E17672F782F8827B85F39F0B93FD6
:1031E000CCF3869577956795B395D9F73EF490958E
:1031F0008095709561957F4F8F4F9F4F08950E94E6
:10320000601608F48FEF089519F416F40C94FA166A
:103210000C944A190E942417B8F39923C9F3B6F302
:103220009F57550B87FF0E9458190024A0E640EADB
:10323000900180585695979528F4805C660F771F0B
:10324000881F20F026173707480730F4621B730BDE
:10325000840B202931294A2BA69517940794202501
:1032600031254A2758F7660F771F881F20F0261749
:103270003707480730F4620B730B840B200D311DA8
:10328000411DA09581F7B901842F9158880F96951B
:10329000879508959F3F31F0915020F48795779559
:1032A0006795B795880F911D9695879597F908951D
:1032B00091505040660F771F881FD2F708950F93E3
:1032C0001F93CF93DF938230910510F482E090E05A
:1032D000E091CD02F091CE0220E030E0A0E0B0E03D
:1032E000309719F1408151810281138148175907A4
:1032F000C8F08417950769F4109731F012960C9373
:10330000129713961C9327C00093CD021093CE0200
:1033100022C02115310519F04217530718F49A01FC
:10332000BD01EF01DF01F801DBCF21153105F9F017
:10333000281B390B2430310580F48A819B8161156B
:10334000710521F0FB019383828304C09093CE0228
:103350008093CD02FE01329644C0FE01E20FF31FBE
:103360008193919322503109398328833AC0209167
:10337000CB023091CC02232B41F4209108013091F3
:1033800009013093CC022093CB02209106013091A9
:1033900007012115310541F42DB73EB740910A01CF
:1033A00050910B01241B350BE091CB02F091CC0224
:1033B000E217F307A0F42E1B3F0B2817390778F00C
:1033C000AC014E5F5F4F2417350748F04E0F5F1F6B
:1033D0005093CC024093CB028193919302C0E0E0E2
:1033E000F0E0CF01DF91CF911F910F910895CF931E
:1033F000DF93009709F481C0FC0132971382128297
:10340000A091CD02B091CE02109781F4208131813C
:10341000820F931F2091CB023091CC0228173907DD
:1034200051F5F093CC02E093CB0267C0ED0120E0B0
:1034300030E0CE17DF0740F44A815B819E014115E1
:103440005105F1F0EA01F5CFD383C2834081518168
:10345000840F951FC817D90759F488819981840F63
:10346000951F0296918380838A819B8193838283B7
:103470002115310529F4F093CE02E093CD023DC031
:10348000E901FB83EA8349915991C40FD51FEC17D9
:10349000FD0761F480819181840F951F0296E901F7
:1034A00099838883828193819B838A83E0E0F0E023
:1034B00012968D919C911397009719F0FD01DC01F4
:1034C000F7CF8D919C9111979D012E5F3F4F820FF9
:1034D000931F2091CB023091CC022817390769F451
:1034E000309729F41092CE021092CD0202C01382BE
:1034F0001282B093CC02A093CB02DF91CF910895BA
:10350000A0E0B0E0E6E8FAE10C947B17EC0100974C
:1035100021F4CB010E945F19B4C0FC01E60FF71F34
:103520009C0122503109E217F30708F4A8C0D90121
:103530000D911C91119706171707B0F00530110572
:1035400008F49BC0C80104978617970708F495C034
:1035500002501109061B170B019311936D937C9375
:10356000CF010E94F71989C05B01A01AB10A4C0172
:10357000800E911EA091CD02B091CE02612C712CD3
:10358000E12CF12C109709F446C08D919C91119774
:10359000A815B905B1F56C0142E0C40ED11CCA14DE
:1035A000DB0478F14C018A189B08640142E0C40EE8
:1035B000D11C1296BC9012971396AC91B5E0CB1625
:1035C000D10440F0B282A38391828082D9016D93AD
:1035D0007C9309C00E5F1F4F800F911FF9019183EB
:1035E0008083EB2DFA2FE114F10431F0D70113960B
:1035F000FC93EE93129741C0F093CE02E093CD027C
:103600003CC06816790608F43C017D0112960D90C5
:10361000BC91A02DB7CF8091CB029091CC0288169F
:103620009906E1F466167706C8F480910601909138
:103630000701009741F48DB79EB740910A01509160
:103640000B01841B950BE817F907C8F4F093CC0223
:10365000E093CB02F901718360830FC0CB010E941C
:103660005F197C01009759F0A801BE010E94461B1A
:10367000CE010E94F719C70104C0CE0102C080E04C
:1036800090E0CDB7DEB7EEE00C949717FB01DC01BC
:1036900002C001900D9241505040D8F70895FC01AE
:1036A0008191861721F08823D9F7992708953197BA
:1036B000CF010895FB01DC0101900D920020E1F79C
:1036C0000895FB0151915523A9F0BF01DC014D91F3
:1036D00045174111E1F759F4CD010190002049F05F
:1036E0004D9140154111C9F3FB014111EFCF81E02C
:1036F00090E00197089510E0C0E8D0E004C0FE011A
:103700000E94EB172196C138D107C9F7F894FFCF73
:1037100064000000C8420000CF02800000000000EA
:103720004201AC00D9008F010A01E800FC00000052
:1037300000007902C102DA015602BB0112026402E2
:1037400034026E02C3015102F0015B0200004843E3
:10375000B4055374617274696E6700473100473075
:103760003100473238004D3137004D31380047398C
:0C3770003200474F000D0A002D31000010
:00000001FF
