:100000000C9481000C94A9000C94A9000C94A900F4
:100010000C94A9000C94A9000C94A9000C94A900BC
:100020000C94A9000C94A9000C94A9000C949004C1
:100030000C94A9000C94A9000C94A9000C94A9009C
:100040000C94120C0C94A9000C945E040C943804CB
:100050000C94A9000C94A9000C94A9000C94A9007C
:100060000C94A9000C94A9004E414E494E49545994
:10007000494E46CDCCCC3D0AD7233C17B7D1387773
:10008000CC2B329595E6241FB14F0A000020410089
:1000900000C84200401C4620BCBE4CCA1B0E5AAED3
:1000A000C59D7400000000240027002A0000000005
:1000B0000800020100000304070000000000000027
:1000C00000010204081020408001020408102001F1
:1000D0000204081020000000002300260029000070
:1000E000000000250028002B00040404040404047C
:1000F0000402020202020203030303030300A91025
:10010000A51011241FBECFEFD8E0DEBFCDBF11E098
:10011000A0E0B1E0EAE1F3E302C005900D92AC3556
:10012000B107D9F722E0ACE5B1E001C01D92A53BD3
:10013000B207E1F710E0C0E8D0E004C02197FE016B
:100140000E94F015CF37D107C9F70E945C0C0C94C0
:1001500080190C9400000895CF92DF92EF92FF92E5
:100160000F931F93CF93DF936C017A018B01C0E053
:10017000D0E0CE15DF0581F0D8016D918D01D6015B
:10018000ED91FC910190F081E02DC6010995892B3C
:1001900011F02196EECF7E01C701DF91CF911F9123
:1001A0000F91FF90EF90DF90CF90089580E090E066
:1001B0000895FC01538D448D252F30E0842F90E06D
:1001C000821B930B541710F0CF9608950197089552
:1001D000FC01918D828D981761F0828DDF01A80F4F
:1001E000B11D5D968C91928D9F5F9F73928F90E071
:1001F00008958FEF9FEF0895FC01918D828D9817E0
:1002000031F0828DE80FF11D858D90E008958FEF1C
:100210009FEF0895FC01918D228D892F90E0805CE5
:100220009F4F821B91098F73992708958EE591E066
:100230000E940A0121E0892B09F420E0822F089511
:10024000FC01848DDF01A80FB11DA35ABF4F2C9173
:10025000848D90E001968F739927848FA689B78942
:100260002C93A089B1898C91837080648C93938D39
:10027000848D981306C00288F389E02D80818F7DDC
:1002800080830895EF92FF920F931F93CF93DF9394
:10029000EC0181E0888F9B8D8C8D981305C0E889D7
:1002A000F989808185FD26C0F62E0B8D10E00F5F49
:1002B0001F4F0F731127E02E8C8DE8120CC00FB664
:1002C00007FCFACFE889F989808185FFF5CFCE0157
:1002D0000E942001F1CF8B8DFE01E80FF11DE35A42
:1002E000FF4FF0829FB7F8940B8FEA89FB898081DA
:1002F00080620AC09FB7F894EE89FF896083E8891D
:10030000F98980818370806480839FBF81E090E061
:10031000DF91CF911F910F91FF90EF900895CF93B0
:10032000DF93EC01888D8823C9F0EA89FB898081FD
:1003300085FD05C0A889B9898C9186FD0FC00FB6CF
:1003400007FCF5CF808185FFF2CFA889B9898C9110
:1003500085FFEDCFCE010E942001E7CFDF91CF9145
:10036000089580E090E0892B29F00E941601811108
:100370000C9400000895DC01ED91FC910280F38162
:10038000E02D6FE609946F70DC0195962C9195979E
:10039000207F622B95966C93959792962D913D9127
:1003A0004D915C919597ED91FC910190F081E02D3C
:1003B0006CE60994DC0194962C91949760FB21F9EA
:1003C00094962C93949792962D913D914D915C919A
:1003D0009597ED91FC910190F081E02D6CE60994E8
:1003E000DC0193968C91939760FB87F993968C939D
:1003F00093976695617094968C9194978E7F682BF5
:1004000094966C93949792962D913D914D915C9119
:100410009597ED91FC9111970190F081E02D6CE69C
:10042000CD010994DC0192968C91929760FB87F93B
:1004300092968C9392976695677093968C9193970A
:10044000887F682B93966C93939792962D913D910C
:100450004D915C919597ED91FC9111970190F081F0
:10046000E02D6CE6CD010994DC016770962F929522
:10047000907F92966C9192976F78692B92966C937D
:10048000929792962D913D914D915C919597ED911A
:10049000FC9111970190F081E02D6CE6CD0109945B
:1004A00008950E94760A892F8F7008950E94760A17
:1004B0008695817008950E94760A771F7727771FA7
:1004C0008170880F872B08950E94760A862F881FD7
:1004D0008827881F7770770F872B08950E94760AE8
:1004E000862F8295877008958DE58CBD81E08DBD46
:1004F0000895CF92DF92EF92FF921F93CF93DF93F5
:10050000EC0169017A01162F10688BA99CA9892B2F
:1005100011F40E94740260E089A90E947E0A612F92
:10052000CE010E94F509898B6F2D7727882799279F
:10053000CE010E94F509B70188279927CE010E94B4
:10054000F50999278F2D7E2D6D2DCE010E94F5097D
:100550006C2DCE010E94F50911E08DA9181734F415
:1005600065E0CE010E94620A1F5FF7CF61E089A9B2
:10057000DF91CF911F91FF90EF90DF90CF900C947F
:100580007E0ACF92DF92EF92FF921F93CF93DF9379
:10059000EC01F62E8BA99CA9892B11F40E94740200
:1005A00060E089A90E947E0A6F2DCE010E94F509A4
:1005B00064E0CE010E94620A11E08DA9181734F49C
:1005C00065E0CE010E94620A1F5FF7CF61E089A952
:1005D0000E947E0A60E089A90E947E0A8091FB0148
:1005E000181734F465E0CE010E94620A1F5FF6CF4F
:1005F0006F2DCE010E94F509898B60E0CE010E942B
:10060000F509C82ED12CE12CF12CFE2CED2CDC2C84
:10061000CC2460E0CE010E94F509C82AFE2CED2C06
:10062000DC2CCC2460E0CE010E94F509C82AFE2C07
:10063000ED2CDC2CCC2460E0CE010E94F509C82A08
:1006400061E089A90E947E0AC701B601DF91CF91BE
:100650001F91FF90EF90DF90CF9008951F93CF935D
:10066000DF93882329F081E0682784E013E002C04B
:1006700086E015E00E947E0A61E0812F0E947E0ADA
:10068000CBEDD1E0CE010197F1F760E0812F0E9420
:100690007E0A2197F1F7DF91CF911F910895CF93B3
:1006A000DF93FC0124813581232B69F0C081D18146
:1006B000062E000C770BCE010E945419009719F0FA
:1006C0008C1B9D0B02C08FEF9FEFDF91CF910895A0
:1006D0000F931F93CF93DF93EC018881998100974B
:1006E00029F02A813B812617370788F48B016F5F39
:1006F0007F4F0E948518009761F0998388831B8340
:100700000A832C813D81232B11F4FC01108281E0AE
:1007100001C080E0DF91CF911F910F910895EF927A
:10072000FF920F931F93CF93DF93EC017B018A011C
:10073000BA010E9468032881398181110DC02115F9
:10074000310519F0C9010E94FC17198218821D8217
:100750001C821B821A8206C01D830C83B701C9014B
:100760000E945F19CE01DF91CF911F910F91FF90F1
:10077000EF900895FC01808191810C94FC17FC019D
:100780001182108213821282158214826115710502
:1007900051F0FB0101900020E9F73197AF01461BB2
:1007A000570B0C948F030895BF92CF92DF92EF9274
:1007B000FF920F931F93CF93DF937C016B01EA01AC
:1007C00089012417350720F48D2FE901042F182FF4
:1007D0006AE571E0C7010E94BF03D60114968D91AE
:1007E0009C911597C817D907C0F58017910708F491
:1007F0008C01D601ED91FC911197E00FF11FB080B3
:1008000010826D917C916C0F7D1F6115710561F0F7
:10081000FB0101900020E9F73197AF01461B570B10
:10082000C7010E948F0313C0F70180819181009757
:1008300011F00E94FC17D70111961C921E9215967A
:100840001C921E92149713961C921E921297D60118
:10085000ED91FC91E00FF11FB082C701DF91CF91C4
:100860001F910F91FF90EF90DF90CF90BF90089570
:100870001F920F920FB60F9211242F933F934F9315
:100880005F936F937F938F939F93AF93BF93EF93F8
:10089000FF938EE591E00E942001FF91EF91BF91BF
:1008A000AF919F918F917F916F915F914F913F9108
:1008B0002F910F900FBE0F901F9018951F920F92BF
:1008C0000FB60F9211242F938F939F93EF93FF9363
:1008D000E0916E01F0916F018081E0917401F091DF
:1008E000750182FD12C09081809177018F5F8F73B7
:1008F00020917801821751F0E0917701F0E0E25AFF
:10090000FE4F958F8093770101C08081FF91EF9119
:100910009F918F912F910F900FBE0F901F90189560
:100920001F920F920FB60F9211242F933F934F9364
:100930005F936F937F938F939F93AF93BF93EF9347
:10094000FF9380915D0187FF05C010928500109292
:1009500084001BC020915D01022E000C330B80919E
:10096000200290E02817390784F480915D01082E59
:10097000000C990BFC01EE0FFF1F8E0F9F1FFC0157
:10098000E450FE4F808186FD15C080915D018F5F30
:1009900080935D0120915D01022E000C330B80914C
:1009A000200290E028173907C4F480915D018C3053
:1009B00064F113C080915D01082E000C990BFC01BD
:1009C000EE0FFF1F8E0F9F1FFC01E450FE4F808132
:1009D00060E08F730E947E0AD8CF8091840090914E
:1009E0008500049680349C4918F480E49CE905C095
:1009F0008091840090918500049690938900809363
:100A000088008FEF80935D013BC02091840030917E
:100A1000850080915D01082E000C990BFC01EE0F02
:100A2000FF1F8E0F9F1FFC01E450FE4F81819281BA
:100A3000820F931F909389008093880080915D01BD
:100A4000082E000C990BFC01EE0FFF1F8E0F9F1F4D
:100A5000FC01E450FE4F808186FF12C080915D0151
:100A6000082E000C990BFC01EE0FFF1F8E0F9F1F2D
:100A7000FC01E450FE4F808161E08F730E947E0A8A
:100A8000FF91EF91BF91AF919F918F917F916F9166
:100A90005F914F913F912F910F900FBE0F901F903C
:100AA00018954F925F926F927F928F929F92AF9222
:100AB000BF92EF92FF920F931F93CF93DF93811119
:100AC00003C0C4E6D0E002C0C8E7D0E008E810E008
:100AD000B8E5EB2EB2E0FB2E84EB882E912CA12CF6
:100AE000B12C80910001909101018C179D0709F4B0
:100AF00088C08C179D0714F4019601C0019790934C
:100B00000101809300016091000170910101603248
:100B100082E07807DCF577FD06C0653B71052CF0B7
:100B200064EB70E002C060E070E08091A4022801F4
:100B3000481A510887FD5394D201AA0FBB1FAA0F70
:100B4000BB1F2D01BB0F660877088091A502970196
:100B5000281B310987FD3395220F331F220F331FC6
:100B6000C901330FAA0BBB0B9C01AD012419350938
:100B700046095709DB010E947415A50194010E94E2
:100B80004A15420E531E641E751EB2018091A302C7
:100B90008C3080F59091A402A801491B510997FD62
:100BA0005395440F551F440F551F6417750784F064
:100BB0009091A5029701291B310997FD3395220FCA
:100BC000331F220F331FAB01261737070CF4A9017F
:100BD00042505109440F551F2FB7F89490E0FC0183
:100BE000EE0FFF1F8E0F9F1FFC01E450FE4F52833C
:100BF00041832FBF6EE170E080E090E00E94B30B74
:100C000070CF64E670E080E090E0DF91CF911F91BB
:100C10000F91FF90EF90BF90AF909F908F907F903B
:100C20006F905F904F900C94B30B2F923F924F9226
:100C30005F926F927F928F929F92AF92BF92CF926C
:100C4000DF92EF92FF920F931F93CF93DF93CDB775
:100C5000DEB7A2970FB6F894DEBF0FBECDBF762EDB
:100C6000872E982E9AA328A339834D83652E1701CA
:100C7000280120E030E846EB54E4C801B7010E94A7
:100C8000231418165CF420E030E04AE754E4C6016F
:100C9000B5010E94231418160CF49BC220922B025B
:100CA00030922C0240922D0250922E02A0922702E6
:100CB000B0922802C0922902D0922A02272D382D04
:100CC000492D5AA1C201B1010E94F6156C8B7D8B92
:100CD0008E8B9F8B28A139814D81562DC601B50180
:100CE0000E94F615688F798F8A8F9B8F9B01AC01CC
:100CF0000E9489146B017C012C893D894E895F8992
:100D0000CA01B9010E9489149B01AC01C701B60157
:100D10000E94F7150E940F176E877F87888B998B2B
:100D200080E090E0A0E2B1E48A879B87AC87BD8732
:100D30001E821F82188619862E853F85488959890B
:100D40006E817F81888599850E94231487FF41C227
:100D50002A853B854C855D856E857F858889998947
:100D60000E94F6159B01AC016E817F818885998573
:100D70000E940417181674F42E813F814885598506
:100D80006E857F85888999890E94F6156A877B8799
:100D90008C879D872E853F85488959896A857B8503
:100DA0008C859D850E9463166B017C019B01AC01C3
:100DB0006C897D898E899F890E948914272D382D01
:100DC000492D5AA10E94F715162F272E8A8B9B8B2F
:100DD000A7019601688D798D8A8D9B8D0E9489145B
:100DE00028A139814D81562D0E94F7156C8F7D8F7A
:100DF0008E8F9F8F28A139814D81562D68A17981D1
:100E00008D81962D0E9489146B017C01272D382D30
:100E1000492D5AA1672D782D892D9AA10E948914F8
:100E2000A70196010E94F7150E940F1769837A8324
:100E30008B839C83272D382D492D5AA160E070E8C3
:100E400086EB94E40E94F6159B01AC010E94891484
:100E5000A70196010E94F7150E940F172B013C0174
:100E60002C8D3D8D4E8D5F8D6C8D7D8D8E8D9F8DEE
:100E70000E9489144B015C01212F322D4A895B8924
:100E8000612F722D8A899B890E948914A501940182
:100E90000E94F7150E940F176B017C01212F322D44
:100EA0004A895B8960E070E886EB94E40E94F6155D
:100EB0009B01AC010E948914A50194010E94F715C1
:100EC0000E940F174B015C0129813A814B815C81A3
:100ED000C701B6010E94F6156B017C01A3019201C6
:100EE000C501B4010E94F6154B015C0120E030E021
:100EF000A901C701B6010E94041787FD12C020E0B6
:100F000030E0A901C501B4010E94041787FF1DC08C
:100F100020E030E0A901C501B4010E94231487FD3F
:100F200016C020E030E0A901C701B6010E942314D9
:100F300087FF11C001E020E030E0A901C501B40144
:100F40000E94041787FF08C006C001E001C000E04E
:100F50003324339402C000E0312C20E030E0A901BA
:100F6000C701B6010E94041726013701181624F0A4
:100F700077FA709477F8709420E030E0A901C50109
:100F8000B4010E940417A501940118160CF05058E2
:100F9000C301B2010E94041787FD06C0802F032DF4
:100FA000382E91E09D8301C01D8220E030E0A90130
:100FB000C701B6010E94041726013701181624F054
:100FC00077FA709477F8709420E030E0A901C501B9
:100FD000B4010E94041718160CF4CDC0D501C40149
:100FE000B05889839A83AB83BC83A3019201BC016F
:100FF000CD010E940417181684F420E030E0A90106
:10100000C701B6010E9404171816BCF0D701C6012B
:10101000B05889839A83AB83BC8320E030E0A90178
:10102000C701B6010E94041718165CF026013701AB
:1010300077FA709477F8709406C0C982DA82EB82EE
:10104000FC822601370120E030E0A901C501B4018E
:101050000E940417181624F0B7FAB094B7F8B094A9
:10106000A3019201C501B4010E94231487FF0FC0A0
:1010700020E030E0A901C701B6010E940417460133
:101080005701181624F0B7FAB094B7F8B09420912D
:101090002F02309130024091310250913202C5014D
:1010A000B4010E9463166B017C01A5019401698162
:1010B0007A818B819C810E9463162B013C0119A2CD
:1010C00018A2812C912C54019D81A1E09A2799832B
:1010D00028A139A1B901330F880B990B0E942A145A
:1010E0009B01AC01C701B6010E940417181644F514
:1010F000602F8D810E942E03A3019201C501B401CE
:101100000E94F7154B015C0120E030E040E85FE30E
:101110000E94041787FD0EC0632D89810E942E0353
:1011200020E030E040E85FE3C501B4010E94F6151D
:101130004B015C0188A199A1019699A388A3C8CF0E
:101140002A853B854C855D856E817F818885998563
:101150000E94F7156E837F8388879987712E822C72
:101160009A889B899AA3AC8DA8A3BD8DB9832E8D37
:101170002D836F8CE1CDA3019201C501B4010E94C2
:10118000041718168CF420E030E0A901C701B6015D
:101190000E94041718160CF039CF26013701C982B6
:1011A000DA82EB82FC825CCF20E030E0A901C7014B
:1011B000B6010E94041718163CF4260137018982F3
:1011C0009A82AB82BC824CCF89829A82AB82BC82EB
:1011D0002DCFA2960FB6F894DEBF0FBECDBFDF9124
:1011E000CF911F910F91FF90EF90DF90CF90BF9024
:1011F000AF909F908F907F906F905F904F903F90B7
:101200002F9008951F93CF93DF93EC012AE037EDE1
:1012100043EA5CE369857A858B859C850E94F71596
:101220002AE23DE64DEF51E40E94891426E636E6B7
:1012300046EA5EE30E94631620E030E040E85FE3A8
:101240000E94F6150E94D516162F603120F561E038
:10125000CE010E94DA012AE037ED43EA5CE36985BA
:101260007A858B859C850E94F7152AE23DE64DEF35
:1012700051E40E9489142CEE31E548E35EE30E94BC
:10128000631620E030E040E85FE30E94F6150E941C
:10129000D516162F04C060E0CE010E94DA0110328C
:1012A00008F01FE1912F9F718B81807E892B8B83AA
:1012B0002A81382F8C81482F4F7050E060E1CE0199
:1012C0000E947902612F70E080E090E00E942A1471
:1012D0002D853E854F8558890E9489140E94D51618
:1012E0006F718A81807E682B6A83262F3B818C8177
:1012F000482F4F7050E060E1CE01DF91CF911F91F8
:101300000C94790242E050E068E571E08EE591E0EE
:101310000C94AC00FC0180819181009711F00C9439
:10132000741260E070E0CB010895FC01808191812E
:10133000009711F00C94781260E070E0CB010895F2
:101340000F931F93CF93DF938C01EB01FC018081FE
:1013500091810097B1F0688179816115710579F00B
:10136000428153812C813D814217530740F00E94F6
:101370005F198C819D81F8019583848313C00E943D
:10138000FC1788819981F801918380838A819B81F0
:10139000938382838C819D819583848319821882B3
:1013A0001B821A821D821C82DF91CF911F910F91A7
:1013B0000895CF93DF932091250230912602232BAD
:1013C00079F0FC01C0912102D091220260817181EB
:1013D000CE010E946619009719F08C1B9D0B02C06C
:1013E0008FEF9FEFDF91CF910895CF93DF93DC01D3
:1013F000D396ED91FC91D497309709F45AC0A58506
:10140000B6859C918085809589238C9327E030E078
:1014100080E0C62FD0E0722FA185B2859681AE0103
:10142000022E02C0559547950A94E2F740FF03C08B
:101430004C91942B03C04C91909594239C93A5853B
:10144000B6854C919085942B9C93A385B4854C9143
:101450009781942341E050E011F440E050E001C056
:10146000440F7A95EAF7842BA585B6854C91908533
:10147000909594239C932150310969F6A185B285FA
:1014800096812C9160FF02C0922B02C0909592230E
:101490009C93A585B6852C919085922B9C93A385D2
:1014A000B4852C919781922321E009F420E0822BCE
:1014B00006C06EBD00000DB407FEFDCF8EB5DF91F6
:1014C000CF9108950F931F93CF93DF938C01D62F65
:1014D000C0E0CD1731F060E0C8010E94F509CF5F90
:1014E000F8CFDF91CF911F910F910895DC01ED911D
:1014F000FC910280F381E02D6CE6099490E0FC0100
:10150000E355FF4F2491FC01EF53FF4F3491FC0151
:10151000E751FF4FE491EE2309F43CC0222339F157
:10152000233091F038F42130A9F0223001F584B550
:101530008F7D12C0273091F02830A1F02430B9F40B
:10154000809180008F7D03C0809180008F77809391
:1015500080000DC084B58F7784BD09C08091B00034
:101560008F7703C08091B0008F7D8093B000F0E052
:10157000EE0FFF1FE152FF4FA591B4919FB7F89472
:10158000611104C08C913095382302C0EC913E2B40
:101590003C939FBF0895CF93DF9390E0FC01EF53FE
:1015A000FF4F2491FC01E751FF4F8491882361F1A3
:1015B00090E0880F991FFC01ED55FF4FC591D49124
:1015C000FC01E152FF4FA591B491611109C09FB791
:1015D000F8948881209582238883EC912E230BC078
:1015E000623061F49FB7F8948881322F309583235D
:1015F0008883EC912E2B2C939FBF06C08FB7F89455
:10160000E8812E2B28838FBFDF91CF9108950F9310
:101610001F93CF93DF93EC0161E089A90E94CB0A6D
:1016200061E089A90E947E0A0BA91CA90115110578
:1016300009F456C061E0F80180810E94CB0A61E0A4
:10164000F80184810E94CB0A62E0F80182810E9445
:10165000CB0AF80140815181FA01E751FF4FE49133
:10166000F0E0EE0FFF1FE152FF4F85919491F801DA
:101670009287818722813381F901E751FF4FE491FD
:10168000F0E0EE0FFF1FEB52FF4F85919491F801B0
:101690009487838784819581FC01E751FF4FE49112
:1016A000F0E0EE0FFF1FE152FF4FA591B491F8015A
:1016B000B687A587FA01EF53FF4F4491F80146839F
:1016C000F901EF53FF4F2491F8012783FC01EF53F9
:1016D000FF4F9491F80190878C91E92FE82BEC93C0
:1016E0002A893B898C89482F437050E060E0CE0105
:1016F0000E9479022AA13BA14CA15DA16CE6CE011A
:101700000E9479022EA13FA148A559A551706DE60E
:10171000CE010E9479022DA53EA58FA5482F4F73BB
:1017200050E060E7CE010E9479022A813B818C81E2
:10173000482F4F7050E060E1CE010E9479028AA1EB
:10174000807F88608AA32AA13BA14CA15DA16CE6A1
:10175000CE010E94790261E0CE01DF91CF911F910D
:101760000F910C94F0018F929F92AF92BF92CF9203
:10177000DF92EF92FF926B017C010E94ED0B4B0117
:101780005C01C114D104E104F104F1F00E94ED0BFD
:10179000DC01CB0188199909AA09BB09883E93404D
:1017A000A105B10570F321E0C21AD108E108F108E2
:1017B00088EE880E83E0981EA11CB11CC114D104D0
:1017C000E104F10419F7DDCFFF90EF90DF90CF90A7
:1017D000BF90AF909F908F9008953FB7F8948091FD
:1017E000AB029091AC02A091AD02B091AE0226B5D1
:1017F000A89B05C02F3F19F00196A11DB11D3FBF49
:10180000BA2FA92F982F8827820F911DA11DB11DD6
:10181000BC01CD0142E0660F771F881F991F4A95D2
:10182000D1F708951F920F920FB60F9211242F93A4
:101830003F938F939F93AF93BF938091A702909113
:10184000A802A091A902B091AA023091A60223E0B9
:10185000230F2D3720F40196A11DB11D05C026E8E8
:10186000230F0296A11DB11D2093A6028093A7020B
:101870009093A802A093A902B093AA028091AB0210
:101880009091AC02A091AD02B091AE020196A11D63
:10189000B11D8093AB029093AC02A093AD02B093C4
:1018A000AE02BF91AF919F918F913F912F910F9079
:1018B0000FBE0F901F901895CF93DF93CDB7DEB773
:1018C000AA970FB6F894DEBF0FBECDBF789484B54B
:1018D000826084BD84B5816084BD85B5826085BD2C
:1018E00085B5816085BD80916E00816080936E00BA
:1018F00010928100809181008260809381008091AC
:10190000810081608093810080918000816080935C
:1019100080008091B10084608093B1008091B0001C
:1019200081608093B00080917A00846080937A0017
:1019300080917A00826080937A0080917A00816041
:1019400080937A0080917A00806880937A00109268
:10195000C100E0916E01F0916F0182E08083E0911F
:101960006A01F0916B011082E0916C01F0916D01C0
:101970008FEC808310927601E0917201F0917301F7
:1019800086E08083E0917001F09171018081806137
:101990008083E0917001F091710180818860808383
:1019A000E0917001F0917101808180688083E09105
:1019B0007001F091710180818F7D80838091A302FD
:1019C0008C3008F051C061E08AE00E94CB0A80911F
:1019D000A302E82FF0E09F01220F331FE20FF31F55
:1019E000E450FE4F9081907C9A6090831092A40204
:1019F0001092A5026CE00E94E4152CE0829FB001D9
:101A0000112440E050E09B01240F351FF901EE0F37
:101A1000FF1F2E0F3F1FF901E450FE4F908196FDEE
:101A200016C04F5F5F4F4C30510569F781110FC0F1
:101A30001092800082E080938100109285001092C5
:101A40008400B19A80916F00826080936F00E09172
:101A5000A302F0E0CF01880F991FE80FF91FE450AF
:101A6000FE4F80818064808348E050E06EE371E047
:101A70008EE591E00E94AC000E94820980E00E9405
:101A8000510561E083E00E94CB0A61E084E00E949E
:101A9000CB0A61E085E00E94CB0A61E086E00E940B
:101AA000CB0A61E082E00E94CB0A60E082E00E9403
:101AB0007E0A1FB7F89480915C01811127C0E3EF83
:101AC000F0E08491EBECF0E09491E82FF0E0EE0F81
:101AD000FF1FED55FF4FA591B491EC91E92321F43F
:101AE00061E08AE00E947E0A61E08AE00E94CB0AFF
:101AF0008CB580618CBD8CB580648CBD61E08DE05F
:101B00000E94CB0A61E08BE00E94CB0A80915C01CD
:101B10008F5F80935C011FBF8DE692E00E94070BF0
:101B20008DE692E00E94020964E08DE692E00E9458
:101B3000C30180917F02846080937F02282F3091BF
:101B4000800280918102482F437050E060E08DE672
:101B500092E00E94790280919C02846080939C02B2
:101B600020919A0230919B02482F4F7350E060E71A
:101B70008DE692E00E94790287E392E00E94070BD3
:101B800087E392E00E94020964E087E392E00E940A
:101B9000C30180914902846080934902282F3091CB
:101BA0004A0280914B02482F437050E060E087E387
:101BB00092E00E94790280916602846080936602BE
:101BC0002091640230916502482F4F7350E060E726
:101BD00087E392E00E9479028EE591E00E940A017B
:101BE000181619060CF0B3C18EE591E00E94E800CA
:101BF0008A3009F089C167E471E0CE0101960E9444
:101C0000BF03CE0101960E94D909019699F46AE4B6
:101C100071E0CE0107960E94BF03CE0107960E9495
:101C2000D90911E0019609F410E0CE0107960E944F
:101C3000BA0301C011E0CE0101960E94BA0311233C
:101C400009F41DC16EE471E0CE0149960E94BF0304
:101C50006EE471E0CE0143960E94BF036EE471E032
:101C6000CE010D960E94BF0368E581E292E00E94DA
:101C70004F038F3F5FEF950709F44EC09C012E5F25
:101C80003F4FAC014F5F5F4F61E272E0CE010796BC
:101C90000E94D40360E2CE0107960E944F036C01BC
:101CA00068E581E292E00E944F039601281B390B00
:101CB0002F5F3F4FAC014F5F5F4F61E272E0CE019B
:101CC00001960E94D403BE016F5F7F4FCE014996FB
:101CD0000E94A009CE0101960E94BA03CE01079688
:101CE0000E94BA0360E2CE0149960E944F039C0114
:101CF00040E050E0BE01675E7F4FCE0101960E943A
:101D0000D403BE016F5F7F4FCE0149960E94A009A8
:101D1000CE0101960E94BA0369E581E292E00E9439
:101D20004F038F3FAFEF9A0709F44AC09C012E5F23
:101D30003F4FAC014F5F5F4F61E272E0CE0107960B
:101D40000E94D40360E2CE0107960E944F038C01EB
:101D500069E581E292E00E944F03AC014F5F5F4F63
:101D6000980161E272E0CE0101960E94D403BE01A7
:101D70006F5F7F4FCE0143960E94A009CE0101966E
:101D80000E94BA03CE0107960E94BA0360E2CE0118
:101D900043960E944F039C0140E050E0BE016D5EFF
:101DA0007F4FCE0101960E94D403BE016F5F7F4F2B
:101DB000CE0143960E94A009CE0101960E94BA036B
:101DC0006AE581E292E00E944F038F3FBFEF9B07DD
:101DD00009F44AC09C012E5F3F4FAC014F5F5F4F3B
:101DE00061E272E0CE0107960E94D40360E2CE0168
:101DF00007960E944F038C016AE581E292E00E94FF
:101E00004F03AC014F5F5F4F980161E272E0CE017A
:101E100001960E94D403BE016F5F7F4FCE010D96E5
:101E20000E94A009CE0101960E94BA03CE01079636
:101E30000E94BA0360E2CE010D960E944F039C01FE
:101E400040E050E0BE01635F7F4FCE0101960E94EB
:101E5000D403BE016F5F7F4FCE010D960E94A00993
:101E6000CE0101960E94BA03CE010D960E949509FB
:101E7000623071058105910508F46CC085C061E58B
:101E800071E0CE0101960E94BF03CE0101960E942F
:101E9000D9098C01CE0101960E94BA030F3F1F4F52
:101EA00001F1E0903302F09034020091350210917C
:101EB0003602209127023091280240912902509148
:101EC0002A0260912B0270912C0280912D02909138
:101ED0002E02A12CB12CE8E4CE2EE3E4DE2E0E94EB
:101EE000150640E050E06AE571E081E292E00E9470
:101EF0008F0342E050E065E571E08EE591E00E94DD
:101F0000AC000E94820923C089831A82C0902502F6
:101F1000D09026023FEFC31AD30AB60181E292E0C5
:101F20000E946803882399F02091210230912202B7
:101F30008091250290912602BE016F5F7F4F820F34
:101F4000931F0E945F19D0922602C09225020E9420
:101F5000B10142CECE0149960E948A0920E030E0CC
:101F600040E85FEB0E942314882309F495C0CE015A
:101F700043960E948A0920E030E040E85FEB0E942F
:101F80002314811146C088C0CE0149960E948A0957
:101F900020E030E040E85FEB0E942314882309F43E
:101FA00089C0CE0143960E948A0920E030E040E8D3
:101FB0005FEB0E942314882309F47CC0CE01439672
:101FC0000E948A095B016C01CE0149960E948A0930
:101FD0007B018C0120912702309128024091290237
:101FE00050912A0260912B0270912C0280912D0257
:101FF00090912E020E941506CE010D960E94BA0302
:10200000CE0143960E94BA03CE0149960E94BA03BC
:1020100068CFCE010D960E9495096F8F78A389A392
:102020009AA3CE0143960E948A095B016C01CE01FE
:1020300049960E948A092B013C01809127029091C8
:102040002802A0912902B0912A028BA39CA3ADA3E0
:10205000BEA320912B0230912C0240912D02509171
:102060002E022FA338A749A75AA781E02F8D38A1A8
:1020700049A15AA1232B242B252B09F080E00E9493
:102080005105830172012BA13CA14DA15EA16FA15D
:1020900078A589A59AA5AECFCE010D960E94950987
:1020A00021E0672B682B692B09F020E0822F0E942A
:1020B0005105A2CFCE0149960E948A0920E030E066
:1020C00040E85FEB0E9423148823C9F0CE014996B3
:1020D0000E948A097B018C012091270230912802FD
:1020E0004091290250912A0260912B0270912C029A
:1020F00080912D0290912E0259016A017BCFCE0171
:1021000043960E948A0920E030E040E85FEB0E949D
:102110002314882309F470CFCE0143960E948A09C4
:102120005B016C0160912B0270912C0280912D0259
:1021300090912E022091270230912802409129028D
:1021400050912A027B018C0155CF81E292E00C94E0
:10215000BA03109261011092600188EE93E0A0E052
:10216000B0E08093620190936301A0936401B09307
:1021700065018CE091E090935F0180935E0185ECB6
:1021800090E090936B0180936A0184EC90E09093CF
:102190006D0180936C0180EC90E090936F018093CF
:1021A0006E0181EC90E0909371018093700182EC5C
:1021B00090E0909373018093720186EC90E090938D
:1021C000750180937401109277011092780110923A
:1021D000790110927A01809120028C30A0F491E074
:1021E000980F909320028093A30290E0FC01EE0FE1
:1021F000FF1F8E0F9F1FFC01E450FE4F88EB9BE0FA
:102200009283818303C08FEF8093A30210926F02A9
:102210001092700280917102807F809371021092FF
:102220007202109273021092740280917502807F84
:10223000809375028EEA97E4A1EEBDE38093760267
:1022400090937702A0937802B093790280E090E0B7
:10225000A0E0BFE380937A0290937B02A0937C027C
:10226000B0937D028EE191E090936E0280936D02B7
:1022700010927F0210928002809181028C7F809365
:102280008102109282021092830280918402807FE8
:1022900080938402109285021092860280918702B8
:1022A000807F809387021092880210928902109298
:1022B0008A0280918B028E7F80938B0210928C0217
:1022C00010928D0280918E02807880938E021092FF
:1022D0008F0210929002109291021092920210922C
:1022E00093021092940210929502809196028E7F32
:1022F000809396021092970210929802109299027F
:1023000080919D028C7F80939D0287E090E0909366
:102310009F0280939E021092A1021092A0029FEF52
:102320009093A20280E880939A0284E080939B02BB
:1023300080919C02807C856080939C028091FB014F
:102340008F3F14F49093FB011092390210923A02DD
:1023500080913B02807F80933B0210923C0210925E
:102360003D0210923E0280913F02807F80933F02A7
:102370008EEA97E4A1EEBDE3809340029093410280
:10238000A0934202B093430280E090E0A0E0BFE35C
:102390008093440290934502A0934602B093470273
:1023A0008EE191E0909338028093370210924902B7
:1023B00010924A0280914B028C7F80934B021092C4
:1023C0004C0210924D0280914E02807F80934E020B
:1023D00010924F021092500280915102807F8093A0
:1023E00051021092520210925302109254028091A4
:1023F00055028E7F8093550210925602109257021A
:10240000809158028078809358021092590210925D
:102410005A0210925B0210925C0210925D021092BE
:102420005E0210925F02809160028E7F8093600254
:102430001092610210926202109263028091670210
:102440008C7F8093670288E090E09093690280938C
:10245000680210926B0210926A029FEF90936C02D6
:1024600080E88093640284E0809365028091660234
:10247000807C8560809366028091FB018F3F14F41D
:102480009093FB0180E090E8A6E3B4E480933302EC
:1024900090933402A0933502B093360243E053E5A3
:1024A00067E47CE340932F02509330026093310243
:1024B0007093320280932B0290932C02A0932D02F2
:1024C000B0932E0280E090E0A8E4B3E4809327026A
:1024D00090932802A0932902B0932A026AE571E042
:1024E00081E292E00C94BF03662777270C94B41224
:1024F0001F93FC0199278827BC01E89411911032A1
:10250000E9F3193010F01E30C8F31B3251F01D32C0
:1025100049F4689406C00E949F12610F711D811DCD
:10252000911D119110531A30B0F33EF4909580959F
:10253000709561957F4F8F4F9F4F1F910895592F31
:10254000482F372F262F660F771F881F991F660F7A
:10255000771F881F991F620F731F841F951F660FB7
:10256000771F881F991F0895A0E0B0E0EAEBF2E121
:102570000C948215EC016B016115710519F0FB01DA
:10258000918380837E01FFEFEF1AFF0A0881802F7D
:1025900090E00E940214892B11F0E701F3CF0D3275
:1025A00039F47E0182E0E80EF11C098111E008C0D7
:1025B0000B3229F47E0192E0E90EF11C098110E052
:1025C000E701219743E050E060E770E0CE010E9410
:1025D0000B14892BC1F4239645E050E06BE670E0C4
:1025E000CE010E940B14892B09F42596C114D10445
:1025F00019F0F601D183C0831111F6C060E070E0DC
:1026000080E89FE7FAC043E050E068E670E0CE0162
:102610000E940B14892B59F4C114D10409F4E9C0A8
:10262000F2E0EF0EF11CF601F182E082E2C020E060
:1026300030E0A901C0E0D0E0F70180EDA82EA00EA7
:1026400089E08A1530F1912F9260B92E812F887020
:1026500012FF04C0811124C0219622C0811121974C
:10266000A5E0B0E00E946915DC01CB01880F991F3D
:10267000AA1FBB1F9C01AD012A0D311D411D511D1B
:10268000283989E93807480789E1580748F0166072
:1026900006C09EEFA9120AC013FD40C01860B12EFB
:1026A0008FEFE81AF80A00811B2DC6CF802F8F7D8F
:1026B0008534A1F580818D3211F4106106C08B3212
:1026C00021F0319661E070E004C08181329662E0D1
:1026D00070E080538A3018F0E61BF70B1FC060E0F3
:1026E00070E060389CE079075CF4DB01AA0FBB1F47
:1026F000AA0FBB1F6A0F7B1F660F771F680F711D24
:102700003196DF0111978C9180538A3050F314FF7A
:1027100003C0719561957109C60FD71F11FF08C0DD
:10272000C114D10429F0CF010197F6019183808370
:10273000CA01B9010E942814212F2370233019F0F7
:102740004B015C0106C04B015C01B7FAB094B7F8CD
:10275000B09420E030E0A901C501B4010E94231427
:10276000882309F43EC0D7FF06C0D195C195D10991
:1027700007E810E002C00FE910E06801F8E1CF1AA5
:10278000D10890E2E92EF12CCE15DF0574F0F801A6
:102790002591359145915491C501B4010E94891448
:1027A0004B015C01CE19DF09EFCF04501109F594FC
:1027B000E7940C151D0541F78A2D880F8B2D881F76
:1027C0008F3F49F020E030E0A901C501B4010E942B
:1027D0002314811106C082E290E09093B0028093AE
:1027E000AF02C501B40109C060E070E080E89FEF6E
:1027F00004C060E070E080EC9FE7CDB7DEB7ECE0AE
:102800000C949E1591110C94F614803219F0895095
:102810008550C8F70895FB01DC014150504088F015
:102820008D9181341CF08B350CF4805E65916134A0
:102830001CF06B350CF4605E861B611171F3990B13
:102840000895881BFCCF0E94651408F481E0089568
:10285000E89409C097FB3EF490958095709561953A
:102860007F4F8F4F9F4F9923A9F0F92F96E9BB27F0
:102870009395F695879577956795B795F111F8CF6C
:10288000FAF4BB0F11F460FF1BC06F5F7F4F8F4FD7
:102890009F4F16C0882311F096E911C0772321F0CD
:1028A0009EE8872F762F05C0662371F096E8862F65
:1028B00070E060E02AF09A95660F771F881FDAF7BC
:1028C000880F9695879597F90895990F0008550FE9
:1028D000AA0BE0E8FEEF16161706E807F907C0F0A6
:1028E00012161306E407F50798F0621B730B840BAE
:1028F000950B39F40A2661F0232B242B252B21F488
:1029000008950A2609F4A140A6958FEF811D811D27
:1029100008950E949C140C9410150E94021538F022
:102920000E94091520F0952311F00C94F9140C94D1
:10293000FF1411240C9444150E94211570F3959FE7
:10294000C1F3950F50E0551F629FF001729FBB27A6
:10295000F00DB11D639FAA27F00DB11DAA1F649F42
:102960006627B00DA11D661F829F2227B00DA11DF5
:10297000621F739FB00DA11D621F839FA00D611D7B
:10298000221F749F3327A00D611D231F849F600D9C
:10299000211D822F762F6A2F11249F5750409AF0C5
:1029A000F1F088234AF0EE0FFF1FBB1F661F771F51
:1029B000881F91505040A9F79E3F510580F00C941C
:1029C000F9140C9444155F3FE4F3983ED4F38695D4
:1029D00077956795B795F795E7959F5FC1F7FE2BBC
:1029E000880F911D9695879597F9089599278827BF
:1029F000089597F99F6780E870E060E008959FEF81
:102A000080EC089500240A94161617061806090685
:102A1000089500240A941216130614060506089554
:102A2000092E0394000C11F4882352F0BB0F40F4DC
:102A3000BF2B11F460FF04C06F5F7F4F8F4F9F4F1C
:102A4000089557FD9058440F551F59F05F3F71F09E
:102A50004795880F97FB991F61F09F3F79F0879505
:102A60000895121613061406551FF2CF4695F1DF8E
:102A700008C0161617061806991FF1CF869571051E
:102A8000610508940895E894BB2766277727CB0152
:102A900097F90895052E97FB1EF400940E94611586
:102AA00057FD07D00E94B31507FC03D04EF40C94D9
:102AB000611550954095309521953F4F4F4F5F4F91
:102AC000089590958095709561957F4F8F4F9F4F9A
:102AD00008950E94D515A59F900DB49F900DA49FB9
:102AE000800D911D11240895B7FF0C9469150E9463
:102AF0006915821B930B08952F923F924F925F921C
:102B00006F927F928F929F92AF92BF92CF92DF92FD
:102B1000EF92FF920F931F93CF93DF93CDB7DEB762
:102B2000CA1BDB0B0FB6F894DEBF0FBECDBF0994F6
:102B30002A88398848885F846E847D848C849B844D
:102B4000AA84B984C884DF80EE80FD800C811B815B
:102B5000AA81B981CE0FD11D0FB6F894DEBF0FBE8A
:102B6000CDBFED010895A1E21A2EAA1BBB1BFD01EA
:102B70000DC0AA1FBB1FEE1FFF1FA217B307E4075C
:102B8000F50720F0A21BB30BE40BF50B661F771FB4
:102B9000881F991F1A9469F7609570958095909594
:102BA0009B01AC01BD01CF010895A29FB001B39F6D
:102BB000C001A39F700D811D1124911DB29F700D46
:102BC000811D1124911D0895991B79E004C0991F5E
:102BD000961708F0961B881F7A95C9F78095089577
:102BE000EE0FFF1F0590F491E02D09945058BB277C
:102BF000AA270E940E160C9410150E94021538F098
:102C00000E94091520F039F49F3F19F426F40C9422
:102C1000FF140EF4E095E7FB0C94F914E92F0E94E1
:102C2000211558F3BA17620773078407950720F038
:102C300079F4A6F50C9443150EF4E0950B2EBA2FFB
:102C4000A02D0B01B90190010C01CA01A0011124B2
:102C5000FF27591B99F0593F50F4503E68F11A165E
:102C6000F040A22F232F342F4427585FF3CF4695EF
:102C700037952795A795F0405395C9F77EF41F1611
:102C8000BA0B620B730B840BBAF09150A1F0FF0FDB
:102C9000BB1F661F771F881FC2F70EC0BA0F621FC7
:102CA000731F841F48F4879577956795B795F795B7
:102CB0009E3F08F0B0CF9395880F08F09927EE0F4C
:102CC0009795879508950E9477160C9410150E9489
:102CD000091558F00E94021540F029F45F3F29F0D1
:102CE0000C94F91451110C9444150C94FF140E9487
:102CF000211568F39923B1F3552391F3951B550BD7
:102D0000BB27AA2762177307840738F09F5F5F4FBE
:102D1000220F331F441FAA1FA9F335D00E2E3AF0FD
:102D2000E0E832D091505040E695001CCAF72BD015
:102D3000FE2F29D0660F771F881FBB1F2617370766
:102D40004807AB07B0E809F0BB0B802DBF01FF2798
:102D500093585F4F3AF09E3F510578F00C94F91468
:102D60000C9444155F3FE4F3983ED4F38695779531
:102D70006795B795F7959F5FC9F7880F911D969551
:102D8000879597F90895E1E0660F771F881FBB1FAD
:102D9000621773078407BA0720F0621B730B840B5A
:102DA000BA0BEE1F88F7E09508950E94291588F068
:102DB0009F5798F0B92F9927B751B0F0E1F0660FFF
:102DC000771F881F991F1AF0BA95C9F714C0B13040
:102DD00091F00E944315B1E008950C944315672FBC
:102DE000782F8827B85F39F0B93FCCF3869577956F
:102DF0006795B395D9F73EF4909580957095619558
:102E00007F4F8F4F9F4F08950E94651408F48FEFF6
:102E1000089519F416F40C94FF140C944F170E94A3
:102E20002915B8F39923C9F3B6F39F57550B87FFBC
:102E30000E945D170024A0E640EA90018058569554
:102E4000979528F4805C660F771F881F20F026175F
:102E50003707480730F4621B730B840B2029312994
:102E60004A2BA69517940794202531254A2758F711
:102E7000660F771F881F20F026173707480730F4A2
:102E8000620B730B840B200D311D411DA09581F742
:102E9000B901842F9158880F9695879508959F3F83
:102EA00031F0915020F4879577956795B795880F05
:102EB000911D9695879597F9089591505040660F0A
:102EC000771F881FD2F708950F931F93CF93DF9337
:102ED0008230910510F482E090E0E091B302F0912D
:102EE000B40220E030E0A0E0B0E0309719F140817A
:102EF00051810281138148175907C8F0841795073B
:102F000069F4109731F012960C93129713961C9354
:102F100027C00093B3021093B40222C021153105DB
:102F200019F04217530718F49A01BD01EF01DF01B0
:102F3000F801DBCF21153105F9F0281B390B2430BE
:102F4000310580F48A819B816115710521F0FB01B7
:102F50009383828304C09093B4028093B302FE01F2
:102F6000329644C0FE01E20FF31F819391932250E9
:102F70003109398328833AC02091B1023091B202DD
:102F8000232B41F420910401309105013093B202CA
:102F90002093B102209102013091030121153105E6
:102FA00041F42DB73EB74091060150910701241B13
:102FB000350BE091B102F091B202E217F307A0F4F1
:102FC0002E1B3F0B2817390778F0AC014E5F5F4F7F
:102FD0002417350748F04E0F5F1F5093B2024093FD
:102FE000B1028193919302C0E0E0F0E0CF01DF9164
:102FF000CF911F910F910895CF93DF93009709F41C
:1030000081C0FC01329713821282A091B302B09169
:10301000B402109781F420813181820F931F209197
:10302000B1023091B2022817390751F5F093B2027C
:10303000E093B10267C0ED0120E030E0CE17DF077A
:1030400040F44A815B819E0141155105F1F0EA018E
:10305000F5CFD383C28340815181840F951FC81758
:10306000D90759F488819981840F951F029691831D
:1030700080838A819B81938382832115310529F482
:10308000F093B402E093B3023DC0E901FB83EA830D
:1030900049915991C40FD51FEC17FD0761F4808148
:1030A0009181840F951F0296E9019983888382811B
:1030B00093819B838A83E0E0F0E012968D919C914E
:1030C0001397009719F0FD01DC01F7CF8D919C91CA
:1030D00011979D012E5F3F4F820F931F2091B102E8
:1030E0003091B2022817390769F4309729F4109209
:1030F000B4021092B30202C013821282B093B202E1
:10310000A093B102DF91CF910895A0E0B0E0EBE889
:10311000F8E10C948015EC01009721F4CB010E949A
:103120006417B4C0FC01E60FF71F9C01225031095F
:10313000E217F30708F4A8C0D9010D911C9111976B
:1031400006171707B0F00530110508F49BC0C80139
:1031500004978617970708F495C002501109061BBB
:10316000170B019311936D937C93CF010E94FC1771
:1031700089C05B01A01AB10A4C01800E911EA0917A
:10318000B302B091B402612C712CE12CF12C109798
:1031900009F446C08D919C911197A815B905B1F518
:1031A0006C0142E0C40ED11CCA14DB0478F14C015E
:1031B0008A189B08640142E0C40ED11C1296BC9090
:1031C00012971396AC91B5E0CB16D10440F0B282C1
:1031D000A38391828082D9016D937C9309C00E5F95
:1031E0001F4F800F911FF90191838083EB2DFA2FE0
:1031F000E114F10431F0D7011396FC93EE9312978A
:1032000041C0F093B402E093B3023CC06816790663
:1032100008F43C017D0112960D90BC91A02DB7CF12
:103220008091B1029091B20288169906E1F4661677
:103230007706C8F48091020190910301009741F450
:103240008DB79EB74091060150910701841B950BE5
:10325000E817F907C8F4F093B202E093B102F9015C
:10326000718360830FC0CB010E9464177C010097BB
:1032700059F0A801BE010E944B19CE010E94FC1713
:10328000C70104C0CE0102C080E090E0CDB7DEB738
:10329000EEE00C949C15FB01DC0102C001900D9244
:1032A00041505040D8F70895FC018191861721F0D4
:1032B0008823D9F7992708953197CF010895FB0105
:1032C000DC0101900D920020E1F70895FB0151917E
:1032D0005523A9F0BF01DC014D9145174111E1F7DC
:1032E00059F4CD010190002049F04D914015411154
:1032F000C9F3FB014111EFCF81E090E00197089500
:1033000010E0C0E8D0E004C0FE010E94F015219654
:0A331000C138D107C9F7F894FFCFC8
:10331A0078000000B5028000000000004201AC0005
:10332A00D9008F010A01E800FC00000000007902C0
:10333A00C102DA015602BB011202640234026E02B1
:10334A00C3015102F0015B0200004843B405537403
:10335A00617274696E6700473100473031002D3160
:0C336A000047323800474F000D0A0000F9
:00000001FF
