:100000000C947C000C94A4000C94A4000C94A40008
:100010000C94A4000C94A4000C94A4000C94A400D0
:100020000C94A4000C94A4000C94A4000C94050758
:100030000C94A4000C94A4000C94A4000C94A400B0
:100040000C94CA080C94A4000C94D3060C94AD062E
:100050000C94A4000C94A4000C94A4000C94A40090
:100060000C94A4000C94A4004E414E494E4954599E
:10007000494E46CDCCCC3D0AD7233C17B7D1387773
:10008000CC2B329595E6241FB14F0A000020410089
:1000900000C84200401C4620BCBE4CCA1B0E5AAED3
:1000A000C59D740000000800020100000304070061
:1000B0000000000000000000000000250028002BC8
:1000C0000000000000240027002A000404040404A7
:1000D00004040402020202020203030303030301F5
:1000E00002040810204080010204081020010204CC
:1000F00008102000BF0CBB0C11241FBECFEFD8E0AE
:10010000DEBFCDBF11E0A0E0B1E0EAE7F8E202C057
:1001100005900D92AE33B107D9F722E0AEE3B1E01E
:1001200001C01D92A932B207E1F710E0CBE7D0E0A1
:1001300004C02197FE010E94CA10CA37D107C9F72F
:100140000E9414090C9430140C9400000895CF926E
:10015000DF92EF92FF920F931F93CF93DF936C0187
:100160007A018B01C0E0D0E0CE15DF0581F0D80127
:100170006D918D01D601ED91FC910190F081E02D02
:10018000C6010995892B11F02196EECF7E01C7019A
:10019000DF91CF911F910F91FF90EF90DF90CF9063
:1001A000089580E090E00895FC01538D448D252F43
:1001B00030E0842F90E0821B930B541710F0CF9601
:1001C000089501970895FC01918D828D981761F033
:1001D000828DDF01A80FB11D5D968C91928D9F5F7E
:1001E0009F73928F90E008958FEF9FEF0895FC0129
:1001F000918D828D981731F0828DE80FF11D858DDC
:1002000090E008958FEF9FEF0895FC01918D228D6E
:10021000892F90E0805C9F4F821B91098F739927F3
:1002200008958FE391E00E94050121E0892B09F4F4
:1002300020E0822F0895FC01848DDF01A80FB11DFD
:10024000A35ABF4F2C91848D90E001968F7399270C
:10025000848FA689B7892C93A089B1898C918370EA
:1002600080648C93938D848D981306C00288F389E3
:10027000E02D80818F7D80830895EF92FF920F9310
:100280001F93CF93DF93EC0181E0888F9B8D8C8D42
:10029000981305C0E889F989808185FD26C0F62E6E
:1002A0000B8D10E00F5F1F4F0F731127E02E8C8D09
:1002B000E8120CC00FB607FCFACFE889F9898081F3
:1002C00085FFF5CFCE010E941B01F1CF8B8DFE0182
:1002D000E80FF11DE35AFF4FF0829FB7F8940B8FA0
:1002E000EA89FB89808180620AC09FB7F894EE8911
:1002F000FF896083E889F9898081837080648083C5
:100300009FBF81E090E0DF91CF911F910F91FF900F
:10031000EF900895CF93DF93EC01888D8823C9F087
:10032000EA89FB89808185FD05C0A889B9898C91FE
:1003300086FD0FC00FB607FCF5CF808185FFF2CF99
:10034000A889B9898C9185FFEDCFCE010E941B0150
:10035000E7CFDF91CF91089580E090E0892B29F0DD
:100360000E94110181110C9400000895FC0180810C
:1003700091810C94A7120E94F613CF93DF93FC0196
:1003800024813581232B69F0C081D181062E000C98
:10039000770BCE010E940414009719F08C1B9D0B63
:1003A00002C08FEF9FEFDF91CF9108950F931F93BE
:1003B000CF93DF93EC0188819981009729F02A81FE
:1003C0003B812617370788F48B016F5F7F4F0E94B0
:1003D0003013009761F0998388831B830A832C81F3
:1003E0003D81232B11F4FC01108281E001C080E0EB
:1003F000DF91CF911F910F910895EF92FF920F938C
:100400001F93CF93DF93EC017B018A01BA010E9415
:10041000D6012881398181110DC02115310519F0CE
:10042000C9010E94A712198218821D821C821B8298
:100430001A8206C01D830C83B701C9010E940F14E4
:10044000CE01DF91CF911F910F91FF90EF90089512
:100450001F93CF93DF93811105C081E0682786E069
:1004600015E002C084E013E00E94580861E0812F8B
:100470000E945808CBEDD1E0CE010197F1F760E082
:10048000812F0E9458082197F1F7DF91CF911F919A
:1004900008952F923F924F925F926F927F928F9228
:1004A0009F92AF92BF92CF92DF92EF92FF920F9303
:1004B0001F93CF93DF9300D000D0CDB7DEB781116B
:1004C00009C028E030E03A83298344E650E05C83A9
:1004D0004B8308C08EE090E09A83898326E930E060
:1004E0003C832B8358E8252E312C08E512E064EB81
:1004F000462E512C612C712C8091000190910101AC
:100500004B815C818417950709F4AAC0841795076D
:1005100014F4019601C001979093010180930001AA
:100520008091000190910101803252E09507E4F53D
:1005300097FD06C0853B91052CF084EB90E002C04E
:1005400080E090E0209118026101C21AD10827FDD5
:10055000D394D601AA0FBB1FAA0FBB1F6D01BB0FFF
:10056000EE08FF0820911902A801421B510927FD3E
:1005700053959A01220F331F220F331FA901330F06
:10058000660B770B9A01AB012C193D094E095F09E7
:10059000DC010E944E10A30192010E942410C20EA1
:1005A000D31EE41EF51EC601209117022C3080F5E3
:1005B00030911802A101431B510937FD5395440F97
:1005C000551F440F551F8417950784F03091190269
:1005D000B801631B710937FD7395660F771F660FAE
:1005E000771FAC01681779070CF4AB01CA010297B9
:1005F000880F991F4FB7F89430E0F901EE0FFF1FF5
:100600002E0F3F1FF901E452FE4F928381834FBFAB
:1006100089819A814C01990FAA08BB080E94A508FC
:100620006B017C010E94A508DC01CB018C199D099E
:10063000AE09BF09883E9340A105B10598F391E04A
:10064000891A9108A108B10828EEC20E23E0D21E33
:10065000E11CF11C81149104A104B10419F74CCFE1
:100660000F900F900F900F90DF91CF911F910F91EE
:10067000FF90EF90DF90CF90BF90AF909F908F90C2
:100680007F906F905F904F903F902F9008952F92A2
:100690003F924F925F926F927F928F929F92AF9212
:1006A000BF92CF92DF92EF92FF920F931F93CF935F
:1006B000DF93CDB7DEB7A2970FB6F894DEBF0FBEBB
:1006C000CDBF762E872E982E9AA328A339834D83EB
:1006D000652E1701280120E030E846EB54E4C801FC
:1006E000B7010E94FD0E18165CF420E030E04AE7E6
:1006F00054E4C601B5010E94FD0E18160CF49BC20D
:1007000020920B0230920C0240920D0250920E0287
:10071000A0920702B0920802C0920902D0920A0287
:10072000272D382D492D5AA1C201B1010E94D010A8
:100730006C8B7D8B8E8B9F8B28A139814D81562DA3
:10074000C601B5010E94D010688F798F8A8F9B8F68
:100750009B01AC010E94630F6B017C012C893D89D8
:100760004E895F89CA01B9010E94630F9B01AC01E8
:10077000C701B6010E94D1100E94BA116E877F870F
:10078000888B998B80E090E0A0E2B1E48A879B8718
:10079000AC87BD871E821F82188619862E853F85ED
:1007A000488959896E817F81888599850E94FD0ECF
:1007B00087FF41C22A853B854C855D856E857F8597
:1007C000888999890E94D0109B01AC016E817F813C
:1007D000888599850E94AF11181674F42E813F8187
:1007E000488559856E857F85888999890E94D010B2
:1007F0006A877B878C879D872E853F8548895989A5
:100800006A857B858C859D850E943D116B017C01ED
:100810009B01AC016C897D898E899F890E94630F41
:10082000272D382D492D5AA10E94D110162F272E81
:100830008A8B9B8BA7019601688D798D8A8D9B8D04
:100840000E94630F28A139814D81562D0E94D1103D
:100850006C8F7D8F8E8F9F8F28A139814D81562D72
:1008600068A179818D81962D0E94630F6B017C01B7
:10087000272D382D492D5AA1672D782D892D9AA124
:100880000E94630FA70196010E94D1100E94BA1125
:1008900069837A838B839C83272D382D492D5AA118
:1008A00060E070E886EB94E40E94D0109B01AC01FC
:1008B0000E94630FA70196010E94D1100E94BA11F5
:1008C0002B013C012C8D3D8D4E8D5F8D6C8D7D8D72
:1008D0008E8D9F8D0E94630F4B015C01212F322D65
:1008E0004A895B89612F722D8A899B890E94630FD7
:1008F000A50194010E94D1100E94BA116B017C01E4
:10090000212F322D4A895B8960E070E886EB94E400
:100910000E94D0109B01AC010E94630FA5019401BD
:100920000E94D1100E94BA114B015C0129813A81C9
:100930004B815C81C701B6010E94D0106B017C0124
:10094000A3019201C501B4010E94D0104B015C01CA
:1009500020E030E0A901C701B6010E94AF1187FD78
:1009600012C020E030E0A901C501B4010E94AF111E
:1009700087FF1DC020E030E0A901C501B4010E943D
:10098000FD0E87FD16C020E030E0A901C701B601C9
:100990000E94FD0E87FF11C001E020E030E0A901B8
:1009A000C501B4010E94AF1187FF08C006C001E075
:1009B00001C000E03324339402C000E0312C20E079
:1009C00030E0A901C701B6010E94AF11260137012D
:1009D000181624F077FA709477F8709420E030E0DD
:1009E000A901C501B4010E94AF11A5019401181617
:1009F0000CF05058C301B2010E94AF1187FD06C030
:100A0000802F032D382E91E09D8301C01D8220E0B0
:100A100030E0A901C701B6010E94AF1126013701DC
:100A2000181624F077FA709477F8709420E030E08C
:100A3000A901C501B4010E94AF1118160CF4CDC074
:100A4000D501C401B05889839A83AB83BC83A301C9
:100A50009201BC01CD010E94AF11181684F420E070
:100A600030E0A901C701B6010E94AF111816BCF011
:100A7000D701C601B05889839A83AB83BC8320E039
:100A800030E0A901C701B6010E94AF1118165CF051
:100A90002601370177FA709477F8709406C0C982FE
:100AA000DA82EB82FC822601370120E030E0A901E6
:100AB000C501B4010E94AF11181624F0B7FAB09422
:100AC000B7F8B094A3019201C501B4010E94FD0ED4
:100AD00087FF0FC020E030E0A901C701B6010E94E6
:100AE000AF1146015701181624F0B7FAB094B7F8C1
:100AF000B09420910F023091100240911102509158
:100B00001202C501B4010E943D116B017C01A501D7
:100B1000940169817A818B819C810E943D112B0116
:100B20003C0119A218A2812C912C54019D81A1E0B5
:100B30009A27998328A139A1B901330F880B990B02
:100B40000E94040F9B01AC01C701B6010E94AF11C6
:100B5000181644F5602F8D810E942802A30192018E
:100B6000C501B4010E94D1104B015C0120E030E0CE
:100B700040E85FE30E94AF1187FD0EC0632D8981BD
:100B80000E94280220E030E040E85FE3C501B401A4
:100B90000E94D0104B015C0188A199A1019699A3F4
:100BA00088A3C8CF2A853B854C855D856E817F8172
:100BB000888599850E94D1106E837F838887998765
:100BC000712E822C9A889B899AA3AC8DA8A3BD8D87
:100BD000B9832E8D2D836F8CE1CDA3019201C501C8
:100BE000B4010E94AF1118168CF420E030E0A90186
:100BF000C701B6010E94AF1118160CF039CF2601BB
:100C00003701C982DA82EB82FC825CCF20E030E0DF
:100C1000A901C701B6010E94AF1118163CF42601C4
:100C2000370189829A82AB82BC824CCF89829A82B8
:100C3000AB82BC822DCFA2960FB6F894DEBF0FBE5A
:100C4000CDBFDF91CF911F910F91FF90EF90DF907B
:100C5000CF90BF90AF909F908F907F906F905F905C
:100C60004F903F902F900895FC01118210821382C3
:100C70001282158214826115710551F0FB010190F9
:100C80000020E9F73197AF01461B570B0C94FD018B
:100C90000895BF92CF92DF92EF92FF920F931F932E
:100CA000CF93DF937C016B01EA018901241735079B
:100CB00020F48D2FE901042F182F6CE371E0C70198
:100CC0000E943406D60114968D919C911597C817F1
:100CD000D907C0F58017910708F48C01D601ED9172
:100CE000FC911197E00FF11FB08010826D917C9103
:100CF0006C0F7D1F6115710561F0FB0101900020F3
:100D0000E9F73197AF01461B570BC7010E94FD0160
:100D100013C0F70180819181009711F00E94A71202
:100D2000D70111961C921E9215961C921E92149732
:100D300013961C921E921297D601ED91FC91E00F32
:100D4000F11FB082C701DF91CF911F910F91FF90EA
:100D5000EF90DF90CF90BF9008951F920F920FB643
:100D60000F9211242F933F934F935F936F937F9331
:100D70008F939F93AF93BF93EF93FF938FE391E094
:100D80000E941B01FF91EF91BF91AF919F918F91B5
:100D90007F916F915F914F913F912F910F900FBE77
:100DA0000F901F9018951F920F920FB60F9211245B
:100DB0002F938F939F93EF93FF93E0914F01F091C7
:100DC00050018081E0915501F091560182FD12C0E1
:100DD0009081809158018F5F8F7320915901821704
:100DE00051F0E0915801F0E0E15CFE4F958F809367
:100DF000580101C08081FF91EF919F918F912F91B8
:100E00000F900FBE0F901F9018951F920F920FB664
:100E10000F9211242F933F934F935F936F937F9380
:100E20008F939F93AF93BF93EF93FF9380913E0176
:100E300087FF05C010928500109284001BC020918E
:100E40003E01022E000C330B8091000290E0281727
:100E5000390784F480913E01082E000C990BFC01A7
:100E6000EE0FFF1F8E0F9F1FFC01E452FE4F80818B
:100E700086FD15C080913E018F5F80933E012091D9
:100E80003E01022E000C330B8091000290E02817E7
:100E90003907C4F480913E018C3064F113C0809115
:100EA0003E01082E000C990BFC01EE0FFF1F8E0F68
:100EB0009F1FFC01E452FE4F808160E08F730E940F
:100EC0005808D8CF80918400909185000496803492
:100ED0009C4918F480E49CE905C0809184009091BD
:100EE0008500049690938900809388008FEF80930B
:100EF0003E013BC0209184003091850080913E01ED
:100F0000082E000C990BFC01EE0FFF1F8E0F9F1F88
:100F1000FC01E452FE4F81819281820F931F9093D6
:100F200089008093880080913E01082E000C990B67
:100F3000FC01EE0FFF1F8E0F9F1FFC01E452FE4FBE
:100F4000808186FF12C080913E01082E000C990B13
:100F5000FC01EE0FFF1F8E0F9F1FFC01E452FE4F9E
:100F6000808161E08F730E945808FF91EF91BF91DB
:100F7000AF919F918F917F916F915F914F913F9131
:100F80002F910F900FBE0F901F90189542E050E0E8
:100F90006AE371E08FE391E00C94A70090E0FC011C
:100FA000E152FF4F2491FC01E553FF4F84918823C8
:100FB00099F090E0880F991FFC01EF53FF4FA59126
:100FC000B491FC01E954FF4F859194918FB7F89447
:100FD000EC91E22BEC938FBF0895FC01808191810D
:100FE000009711F00C944E0D60E070E0CB01089575
:100FF000FC0180819181009711F00C94520D60E00A
:1010000070E0CB0108950F931F93CF93DF938C0172
:10101000EB01FC01808191810097B1F068817981B9
:101020006115710579F0428153812C813D81421710
:10103000530740F00E940F148C819D81F801958325
:10104000848313C00E94A71288819981F80191833B
:1010500080838A819B81938382838C819D81958308
:101060008483198218821B821A821D821C82DF915E
:10107000CF911F910F910895CF93DF932091050297
:1010800030910602232B79F0FC01C0910102D0912E
:10109000020260817181CE010E941614009719F03E
:1010A0008C1B9D0B02C08FEF9FEFDF91CF910895B6
:1010B00090E0FC01ED55FF4F2491FC01E152FF4F00
:1010C0003491FC01E553FF4FE491EE2309F43CC059
:1010D000222339F1233091F038F42130A9F0223065
:1010E00001F584B58F7D12C0273091F02830A1F032
:1010F0002430B9F4809180008F7D03C080918000FE
:101100008F77809380000DC084B58F7784BD09C030
:101110008091B0008F7703C08091B0008F7D809365
:10112000B000F0E0EE0FFF1FE954FF4FA591B4911E
:101130009FB7F894611104C08C913095382302C098
:10114000EC913E2B3C939FBF08953FB7F89480915C
:101150001F0290912002A0912102B091220226B597
:10116000A89B05C02F3F19F00196A11DB11D3FBFDF
:10117000BA2FA92F982F8827820F911DA11DB11D6D
:10118000BC01CD0142E0660F771F881F991F4A9569
:10119000D1F708951F920F920FB60F9211242F933B
:1011A0003F938F939F93AF93BF9380911B02909136
:1011B0001C02A0911D02B0911E0230911A0223E080
:1011C000230F2D3720F40196A11DB11D05C026E87F
:1011D000230F0296A11DB11D20931A0280931B02BA
:1011E00090931C02A0931D02B0931E0280911F02D7
:1011F00090912002A0912102B09122020196A11D9E
:10120000B11D80931F0290932002A0932102B093FE
:101210002202BF91AF919F918F913F912F910F909B
:101220000FBE0F901F901895CF93DF93CDB7DEB709
:10123000AA970FB6F894DEBF0FBECDBF789484B5E1
:10124000826084BD84B5816084BD85B5826085BDC2
:1012500085B5816085BD80916E00816080936E0050
:101260001092810080918100826080938100809142
:1012700081008160809381008091800081608093F3
:1012800080008091B10084608093B1008091B000B3
:1012900081608093B00080917A00846080937A00AE
:1012A00080917A00826080937A0080917A008160D8
:1012B00080937A0080917A00806880937A001092FF
:1012C000C100E0914F01F091500182E08083E091F4
:1012D0004B01F0914C011082E0914D01F0914E01D3
:1012E0008FEC808310925701E0915301F0915401EB
:1012F00086E08083E0915101F0915201808180610C
:101300008083E0915101F091520180818860808357
:10131000E0915101F0915201808180688083E091D9
:101320005101F091520180818F7D808383E00E9482
:10133000CE0784E00E94CE0785E00E94CE0786E0BB
:101340000E94CE07809117028C3008F050C089E0CF
:101350000E94CE0780911702E82FF0E09F01220F34
:10136000331FE20FF31FE452FE4F9081907C99608F
:10137000908310921802109219026CE00E94BE1025
:101380002CE0829FB001112440E050E09B01240F2B
:10139000351FF901EE0FFF1F2E0F3F1FF901E45219
:1013A000FE4F908196FD16C04F5F5F4F4C30510548
:1013B00069F781110FC01092800082E08093810054
:1013C0001092850010928400B19A80916F00826023
:1013D00080936F00E0911702F0E0CF01880F991F12
:1013E000E80FF91FE452FE4F80818064808348E05B
:1013F00050E060E271E08FE391E00E94A7000E945C
:10140000C60780E00E9449028FE391E00E94050137
:10141000181619060CF0B3C18FE391E00E94E300A7
:101420008A3009F089C169E271E0CE0101960E941B
:101430003406CE0101960E943C08019699F46CE2B4
:1014400071E0CE0107960E943406CE0107960E94F5
:101450003C0811E0019609F410E0CE0107960E94C5
:10146000B60101C011E0CE0101960E94B601112320
:1014700009F41DC160E371E0CE0149960E94340673
:1014800060E371E0CE0143960E94340660E371E0B0
:10149000CE010D960E94340668E581E092E00E943C
:1014A000BD018F3F5FEF950709F44EC09C012E5F91
:1014B0003F4FAC014F5F5F4F61E072E0CE01079696
:1014C0000E94490660E2CE0107960E94BD016C01B0
:1014D00068E581E092E00E94BD019601281B390B6E
:1014E0002F5F3F4FAC014F5F5F4F61E072E0CE0175
:1014F00001960E944906BE016F5F7F4FCE0149965B
:101500000E940308CE0101960E94B601CE01079603
:101510000E94B60160E2CE0149960E94BD019C0185
:1015200040E050E0BE01675E7F4FCE0101960E9411
:101530004906BE016F5F7F4FCE0149960E940308A6
:10154000CE0101960E94B60169E581E092E00E9419
:10155000BD018F3FAFEF9A0709F44AC09C012E5F8F
:101560003F4FAC014F5F5F4F61E072E0CE010796E5
:101570000E94490660E2CE0107960E94BD018C01DF
:1015800069E581E092E00E94BD01AC014F5F5F4FD1
:10159000980161E072E0CE0101960E944906BE0109
:1015A0006F5F7F4FCE0143960E940308CE010196E4
:1015B0000E94B601CE0107960E94B60160E2CE01FC
:1015C00043960E94BD019C0140E050E0BE016D5E6B
:1015D0007F4FCE0101960E944906BE016F5F7F4F8B
:1015E000CE0143960E940308CE0101960E94B601E7
:1015F0006AE581E092E00E94BD018F3FBFEF9B074B
:1016000009F44AC09C012E5F3F4FAC014F5F5F4F12
:1016100061E072E0CE0107960E94490660E2CE01C9
:1016200007960E94BD018C016AE581E092E00E946C
:10163000BD01AC014F5F5F4F980161E072E0CE01E8
:1016400001960E944906BE016F5F7F4FCE010D9645
:101650000E940308CE0101960E94B601CE010796B2
:101660000E94B60160E2CE010D960E94BD019C0170
:1016700040E050E0BE01635F7F4FCE0101960E94C3
:101680004906BE016F5F7F4FCE010D960E94030891
:10169000CE0101960E94B601CE010D960E94F80778
:1016A000623071058105910508F4B1C06BC063E338
:1016B00071E0CE0101960E943406CE0101960E948F
:1016C0003C088C01CE0101960E94B6010F3F1F4FCE
:1016D00001F1E0901302F0901402009115021091B4
:1016E00016022091070230910802409109025091A0
:1016F0000A0260910B0270910C0280910D02909190
:101700000E02A12CB12CE8E4CE2EE3E4DE2E0E94E2
:10171000470340E050E06CE371E081E092E00E941A
:10172000FD0142E050E067E371E08FE391E00E9449
:10173000A7000E94C60723C089831A82C0900502B1
:10174000D09006023FEFC31AD30AB60181E092E0BF
:101750000E94D601882399F0209101023091020263
:101760008091050290910602BE016F5F7F4F820F4C
:10177000931F0E940F14D0920602C09205020E948D
:10178000AC0142CECE0149960E94ED0720E030E048
:1017900040E85FEB0E94FD0E882309F4A1C0CE0152
:1017A00043960E94ED0720E030E040E85FEB0E94A6
:1017B000FD0E882309F494C0CE0143960E94ED07E4
:1017C0005B016C01CE0149960E94ED077B018C0103
:1017D00020910702309108024091090250910A02BB
:1017E00060910B0270910C0280910D0290910E029B
:1017F0000E944703CE010D960E94B601CE0143968A
:101800000E94B601CE0149960E94B60182CFCE0158
:1018100049960E94ED0720E030E040E85FEB0E942F
:10182000FD0E882361F0CE0143960E94ED0720E073
:1018300030E040E85FEB0E94FD0E81110EC0CE014A
:101840000D960E94F80721E0672B682B692B09F0A1
:1018500020E0822F0E944902CDCFCE010D960E943A
:10186000F8076F8F78A389A39AA3CE0143960E94AD
:10187000ED075B016C01CE0149960E94ED072B013B
:101880003C018091070290910802A0910902B09159
:101890000A028BA39CA3ADA3BEA320910B0230919F
:1018A0000C0240910D0250910E022FA338A749A7B8
:1018B0005AA781E02F8D38A149A15AA1232B242BAF
:1018C000252B09F080E00E944902830172012BA1BF
:1018D0003CA14DA15EA16FA178A589A59AA588CF4D
:1018E000CE0149960E94ED0720E030E040E85FEB32
:1018F0000E94FD0E8823C9F0CE0149960E94ED0793
:101900007B018C012091070230910802409109026D
:1019100050910A0260910B0270910C0280910D02AD
:1019200090910E0259016A0163CFCE0143960E9445
:10193000ED0720E030E040E85FEB0E94FD0E8823D9
:1019400009F458CFCE0143960E94ED075B016C016C
:1019500060910B0270910C0280910D0290910E0229
:1019600020910702309108024091090250910A0229
:101970007B018C013DCF81E092E00C94B601109286
:1019800042011092410188EE93E0A0E0B0E0809324
:10199000430190934401A0934501B09346018CE02C
:1019A00091E09093400180933F0185EC90E090930B
:1019B0004C0180934B0184EC90E090934E01809316
:1019C0004D0180EC90E09093500180934F0181ECA9
:1019D00090E0909352018093510182EC90E09093BB
:1019E00054018093530186EC90E0909356018093CC
:1019F0005501109258011092590110925A011092FB
:101A00005B01809100028C30A0F491E0980F9093DC
:101A100000028093170290E0FC01EE0FFF1F8E0F73
:101A20009F1FFC01E452FE4F88EB9BE09283818371
:101A300003C08FEF8093170280E090E8A6E3B4E440
:101A40008093130290931402A0931502B093160290
:101A50004CE156EA6CE47CE340930F025093100291
:101A6000609311027093120280930B0290930C0208
:101A7000A0930D02B0930E0280E090E0A8E4B3E4DE
:101A80008093070290930802A0930902B0930A0280
:101A90006CE371E081E092E00C94340666277727CE
:101AA0000C948E0D1F93FC0199278827BC01E894A4
:101AB00011911032E9F3193010F01E30C8F31B32C7
:101AC00051F01D3249F4689406C00E94790D610FEF
:101AD000711D811D911D119110531A30B0F33EF408
:101AE00090958095709561957F4F8F4F9F4F1F9177
:101AF0000895592F482F372F262F660F771F881FDD
:101B0000991F660F771F881F991F620F731F841F0D
:101B1000951F660F771F881F991F0895A0E0B0E0FA
:101B2000E4E9FDE00C945C10EC016B0161157105BA
:101B300019F0FB01918380837E01FFEFEF1AFF0A0A
:101B40000881802F90E00E94DC0E892B11F0E701C4
:101B5000F3CF0D3239F47E0182E0E80EF11C0981E9
:101B600011E008C00B3229F47E0192E0E90EF11C6D
:101B7000098110E0E701219743E050E060E770E061
:101B8000CE010E94E50E892BC1F4239645E050E07A
:101B90006BE670E0CE010E94E50E892B09F42596D4
:101BA000C114D10419F0F601D183C0831111F6C01C
:101BB00060E070E080E89FE7FAC043E050E068E64C
:101BC00070E0CE010E94E50E892B59F4C114D104B6
:101BD00009F4E9C0F2E0EF0EF11CF601F182E082B7
:101BE000E2C020E030E0A901C0E0D0E0F70180EDE4
:101BF000A82EA00E89E08A1530F1912F9260B92E9F
:101C0000812F887012FF04C0811124C0219622C048
:101C100081112197A5E0B0E00E944310DC01CB01C7
:101C2000880F991FAA1FBB1F9C01AD012A0D311DF2
:101C3000411D511D283989E93807480789E15807AE
:101C400048F0166006C09EEFA9120AC013FD40C0FE
:101C50001860B12E8FEFE81AF80A00811B2DC6CF4D
:101C6000802F8F7D8534A1F580818D3211F4106134
:101C700006C08B3221F0319661E070E004C08181B2
:101C8000329662E070E080538A3018F0E61BF70B62
:101C90001FC060E070E060389CE079075CF4DB0115
:101CA000AA0FBB1FAA0FBB1F6A0F7B1F660F771FF0
:101CB000680F711D3196DF0111978C9180538A3026
:101CC00050F314FF03C0719561957109C60FD71FBA
:101CD00011FF08C0C114D10429F0CF010197F6010A
:101CE00091838083CA01B9010E94020F212F2370C2
:101CF000233019F04B015C0106C04B015C01B7FABF
:101D0000B094B7F8B09420E030E0A901C501B40167
:101D10000E94FD0E882309F43EC0D7FF06C0D1956E
:101D2000C195D10907E810E002C00FE910E0680191
:101D3000F8E1CF1AD10890E2E92EF12CCE15DF059B
:101D400074F0F8012591359145915491C501B40184
:101D50000E94630F4B015C01CE19DF09EFCF0450E5
:101D60001109F594E7940C151D0541F78A2D880F8C
:101D70008B2D881F8F3F49F020E030E0A901C5017D
:101D8000B4010E94FD0E811106C082E290E09093A2
:101D9000240280932302C501B40109C060E070E011
:101DA00080E89FEF04C060E070E080EC9FE7CDB773
:101DB000DEB7ECE00C94781091110C94D00F8032C7
:101DC00019F089508550C8F70895FB01DC01415096
:101DD000504088F08D9181341CF08B350CF4805E7E
:101DE000659161341CF06B350CF4605E861B6111EB
:101DF00071F3990B0895881BFCCF0E943F0F08F4E4
:101E000081E00895E89409C097FB3EF49095809591
:101E1000709561957F4F8F4F9F4F9923A9F0F92FB0
:101E200096E9BB279395F695879577956795B7952E
:101E3000F111F8CFFAF4BB0F11F460FF1BC06F5F14
:101E40007F4F8F4F9F4F16C0882311F096E911C026
:101E5000772321F09EE8872F762F05C0662371F047
:101E600096E8862F70E060E02AF09A95660F771F5B
:101E7000881FDAF7880F9695879597F90895990F37
:101E80000008550FAA0BE0E8FEEF16161706E80744
:101E9000F907C0F012161306E407F50798F0621B65
:101EA000730B840B950B39F40A2661F0232B242B3A
:101EB000252B21F408950A2609F4A140A6958FEF59
:101EC000811D811D08950E94760F0C94EA0F0E94D7
:101ED000DC0F38F00E94E30F20F0952311F00C94F2
:101EE000D30F0C94D90F11240C941E100E94FB0FD9
:101EF00070F3959FC1F3950F50E0551F629FF0015D
:101F0000729FBB27F00DB11D639FAA27F00DB11D75
:101F1000AA1F649F6627B00DA11D661F829F2227FE
:101F2000B00DA11D621F739FB00DA11D621F839F85
:101F3000A00D611D221F749F3327A00D611D231F5B
:101F4000849F600D211D822F762F6A2F11249F57A9
:101F500050409AF0F1F088234AF0EE0FFF1FBB1FAC
:101F6000661F771F881F91505040A9F79E3F51056B
:101F700080F00C94D30F0C941E105F3FE4F3983E56
:101F8000D4F3869577956795B795F795E7959F5F15
:101F9000C1F7FE2B880F911D9695879597F90895A7
:101FA00099278827089597F99F6780E870E060E097
:101FB00008959FEF80EC089500240A9416161706E2
:101FC00018060906089500240A941216130614062A
:101FD00005060895092E0394000C11F4882352F08D
:101FE000BB0F40F4BF2B11F460FF04C06F5F7F4F45
:101FF0008F4F9F4F089557FD9058440F551F59F02C
:102000005F3F71F04795880F97FB991F61F09F3FE5
:1020100079F087950895121613061406551FF2CF0E
:102020004695F1DF08C0161617061806991FF1CF5E
:1020300086957105610508940895E894BB27662785
:102040007727CB0197F90895052E97FB1EF400948E
:102050000E943B1057FD07D00E948D1007FC03D053
:102060004EF40C943B1050954095309521953F4F80
:102070004F4F5F4F089590958095709561957F4F74
:102080008F4F9F4F08950E94AF10A59F900DB49F52
:10209000900DA49F800D911D11240895B7FF0C94FD
:1020A00043100E944310821B930B08952F923F927E
:1020B0004F925F926F927F928F929F92AF92BF9258
:1020C000CF92DF92EF92FF920F931F93CF93DF9304
:1020D000CDB7DEB7CA1BDB0B0FB6F894DEBF0FBE61
:1020E000CDBF09942A88398848885F846E847D84AE
:1020F0008C849B84AA84B984C884DF80EE80FD80B0
:102100000C811B81AA81B981CE0FD11D0FB6F89425
:10211000DEBF0FBECDBFED010895A1E21A2EAA1BAE
:10212000BB1BFD010DC0AA1FBB1FEE1FFF1FA21787
:10213000B307E407F50720F0A21BB30BE40BF50B84
:10214000661F771F881F991F1A9469F7609570950D
:10215000809590959B01AC01BD01CF010895A29F90
:10216000B001B39FC001A39F700D811D1124911D6B
:10217000B29F700D811D1124911D0895991B79E066
:1021800004C0991F961708F0961B881F7A95C9F707
:1021900080950895EE0FFF1F0590F491E02D0994AE
:1021A0005058BB27AA270E94E8100C94EA0F0E94FF
:1021B000DC0F38F00E94E30F20F039F49F3F19F450
:1021C00026F40C94D90F0EF4E095E7FB0C94D30F92
:1021D000E92F0E94FB0F58F3BA17620773078407B1
:1021E000950720F079F4A6F50C941D100EF4E095F7
:1021F0000B2EBA2FA02D0B01B90190010C01CA01C1
:10220000A0011124FF27591B99F0593F50F4503E6B
:1022100068F11A16F040A22F232F342F4427585F5D
:10222000F3CF469537952795A795F0405395C9F775
:102230007EF41F16BA0B620B730B840BBAF091502D
:10224000A1F0FF0FBB1F661F771F881FC2F70EC0CC
:10225000BA0F621F731F841F48F48795779567959F
:10226000B795F7959E3F08F0B0CF9395880F08F08B
:102270009927EE0F9795879508950E9451110C9418
:10228000EA0F0E94E30F58F00E94DC0F40F029F49F
:102290005F3F29F00C94D30F51110C941E100C9435
:1022A000D90F0E94FB0F68F39923B1F3552391F3E3
:1022B000951B550BBB27AA2762177307840738F0B5
:1022C0009F5F5F4F220F331F441FAA1FA9F335D012
:1022D0000E2E3AF0E0E832D091505040E695001CC6
:1022E000CAF72BD0FE2F29D0660F771F881FBB1F80
:1022F000261737074807AB07B0E809F0BB0B802D5E
:10230000BF01FF2793585F4F3AF09E3F510578F089
:102310000C94D30F0C941E105F3FE4F3983ED4F35B
:10232000869577956795B795F7959F5FC9F7880F5D
:10233000911D9695879597F90895E1E0660F771FAF
:10234000881FBB1F621773078407BA0720F0621B40
:10235000730B840BBA0BEE1F88F7E09508950E946B
:102360003F0F08F48FEF089519F416F40C94D90F69
:102370000C94FA110E940310B8F39923C9F3B6F331
:102380009F57550B87FF0E9408120024A0E640EAE1
:10239000900180585695979528F4805C660F771FBA
:1023A000881F20F026173707480730F4621B730B8D
:1023B000840B202931294A2BA695179407942025B0
:1023C00031254A2758F7660F771F881F20F02617F8
:1023D0003707480730F4620B730B840B200D311D57
:1023E000411DA09581F7B901842F9158880F9695CA
:1023F000879508959F3F31F0915020F48795779508
:102400006795B795880F911D9695879597F90895CB
:1024100091505040660F771F881FD2F708950F9391
:102420001F93CF93DF938230910510F482E090E008
:10243000E0912702F091280220E030E0A0E0B0E037
:10244000309719F140815181028113814817590752
:10245000C8F08417950769F4109731F012960C9321
:10246000129713961C9327C00093270210932802FB
:1024700022C02115310519F04217530718F49A01AB
:10248000BD01EF01DF01F801DBCF21153105F9F0C6
:10249000281B390B2430310580F48A819B8161151A
:1024A000710521F0FB019383828304C0909328027D
:1024B00080932702FE01329644C0FE01E20FF31F13
:1024C0008193919322503109398328833AC0209116
:1024D000250230912602232B41F4209104013091F2
:1024E00005013093260220932502209102013091AC
:1024F00003012115310541F42DB73EB74091060186
:1025000050910701241B350BE0912502F091260222
:10251000E217F307A0F42E1B3F0B2817390778F0BA
:10252000AC014E5F5F4F2417350748F04E0F5F1F19
:1025300050932602409325028193919302C0E0E0DC
:10254000F0E0CF01DF91CF911F910F910895CF93CC
:10255000DF93009709F481C0FC0132971382128245
:10256000A0912702B0912802109781F42081318137
:10257000820F931F209125023091260228173907D8
:1025800051F5F0932602E093250267C0ED0120E0AB
:1025900030E0CE17DF0740F44A815B819E01411590
:1025A0005105F1F0EA01F5CFD383C2834081518117
:1025B000840F951FC817D90759F488819981840F12
:1025C000951F0296918380838A819B819383828366
:1025D0002115310529F4F0932802E09327023DC02C
:1025E000E901FB83EA8349915991C40FD51FEC1788
:1025F000FD0761F480819181840F951F0296E901A6
:1026000099838883828193819B838A83E0E0F0E0D1
:1026100012968D919C911397009719F0FD01DC01A2
:10262000F7CF8D919C9111979D012E5F3F4F820FA7
:10263000931F20912502309126022817390769F44B
:10264000309729F4109228021092270202C01382B8
:102650001282B0932602A0932502DF91CF910895B4
:10266000A0E0B0E0E6E3F3E10C945A10EC0100972F
:1026700021F4CB010E940F12B4C0FC01E60FF71F3A
:102680009C0122503109E217F30708F4A8C0D901D0
:102690000D911C91119706171707B0F00530110521
:1026A00008F49BC0C80104978617970708F495C0E3
:1026B00002501109061B170B019311936D937C9324
:1026C000CF010E94A71289C05B01A01AB10A4C0178
:1026D000800E911EA0912702B0912802612C712CCE
:1026E000E12CF12C109709F446C08D919C91119723
:1026F000A815B905B1F56C0142E0C40ED11CCA148D
:10270000DB0478F14C018A189B08640142E0C40E96
:10271000D11C1296BC9012971396AC91B5E0CB16D3
:10272000D10440F0B282A38391828082D9016D935B
:102730007C9309C00E5F1F4F800F911FF901918399
:102740008083EB2DFA2FE114F10431F0D7011396B9
:10275000FC93EE93129741C0F0932802E093270276
:102760003CC06816790608F43C017D0112960D9074
:10277000BC91A02DB7CF809125029091260288169A
:102780009906E1F466167706C8F4809102019091EB
:102790000301009741F48DB79EB740910601509117
:1027A0000701841B950BE817F907C8F4F09326027C
:1027B000E0932502F901718360830FC0CB010E9471
:1027C0000F127C01009759F0A801BE010E94FB1373
:1027D000CE010E94A712C70104C0CE0102C080E052
:1027E00090E0CDB7DEB7EEE00C94761081E090E09B
:1027F000F8940C943014FB01DC0102C001900D929E
:1028000041505040D8F70895FC018191861721F07E
:102810008823D9F7992708953197CF010895FB01AF
:10282000DC0101900D920020E1F70895FB01519128
:102830005523A9F0BF01DC014D9145174111E1F786
:1028400059F4CD010190002049F04D9140154111FE
:10285000C9F3FB014111EFCF81E090E001970895AA
:1028600010E0CBE7D0E004C0FE010E94CA10219620
:0A287000CC37D107C9F7F894FFCF69
:10287A009600000029028000000000003D01A70028
:10288A00D4008A010501E300F70000004843B405BB
:10289A005374617274696E670047310047303100C2
:0E28AA002D310047323800474F000D0A000064
:00000001FF
