:100000000C9491000C94B9000C94B9000C94B900B4
:100010000C94B9000C94B9000C94B9000C94B9007C
:100020000C94B9000C94B9000C94B9000C94D3064C
:100030000C94B9000C94B9000C94B9000C94B9005C
:100040000C94B4110C94B9000C94A1060C947B068A
:100050000C94B9000C94B9000C94B9000C94B9003C
:100060000C94B9000C94B900E301E901EF01F5012A
:10007000FB0101020702000307030E0315031C0323
:100080003303230333032A034E414E494E49545947
:10009000494E46CDCCCC3D0AD7233C17B7D1387753
:1000A000CC2B329595E6241FB14F0A000020410069
:1000B00000C84200401C4620BCBE4CCA1B0E5AAEB3
:1000C000C59D74010204081020408001020408103C
:1000D000200102040810200000000023002600294F
:1000E0000000000000250028002B00040404040484
:1000F00004040402020202020203030303030300D6
:10010000000000240027002A00000000080002016F
:1001100000000304070000000000000000004B1670
:10012000FE1111241FBECFEFD8E0DEBFCDBF11E01E
:10013000A0E0B1E0E4E8FEE302C005900D92AA372A
:10014000B107D9F723E0AAE7B1E001C01D92A536B7
:10015000B207E1F710E0C0E9D0E004C02197FE014A
:100160000E949E1BCF38D107C9F70E9402120C943F
:10017000351F0C9400000895CF92DF92EF92FF920A
:100180000F931F93CF93DF936C017A018B01C0E033
:10019000D0E0CE15DF0581F0D8016D918D01D6013B
:1001A000ED91FC910190F081E02DC6010995892B1C
:1001B00011F02196EECF7E01C701DF91CF911F9103
:1001C0000F91FF90EF90DF90CF90089580E090E046
:1001D0000895FC01538D448D252F30E0842F90E04D
:1001E000821B930B541710F0CF9608950197089532
:1001F000FC01918D828D981761F0828DDF01A80F2F
:10020000B11D5D968C91928D9F5F9F73928F90E050
:1002100008958FEF9FEF0895FC01918D828D9817BF
:1002200031F0828DE80FF11D858D90E008958FEFFC
:100230009FEF0895FC01918D228D892F90E0805CC5
:100240009F4F821B91098F739927089586E891E04B
:100250000E941A0121E0892B09F420E0822F0895E1
:10026000FC01848DDF01A80FB11DA35ABF4F2C9153
:10027000848D90E001968F739927848FA689B78922
:100280002C93A089B1898C91837080648C93938D19
:10029000848D981306C00288F389E02D80818F7DBC
:1002A00080830895EF92FF920F931F93CF93DF9374
:1002B000EC0181E0888F9B8D8C8D981305C0E889B7
:1002C000F989808185FD26C0F62E0B8D10E00F5F29
:1002D0001F4F0F731127E02E8C8DE8120CC00FB644
:1002E00007FCFACFE889F989808185FFF5CFCE0137
:1002F0000E943001F1CF8B8DFE01E80FF11DE35A12
:10030000FF4FF0829FB7F8940B8FEA89FB898081B9
:1003100080620AC09FB7F894EE89FF896083E889FC
:10032000F98980818370806480839FBF81E090E041
:10033000DF91CF911F910F91FF90EF900895CF9390
:10034000DF93EC01888D8823C9F0EA89FB898081DD
:1003500085FD05C0A889B9898C9186FD0FC00FB6AF
:1003600007FCF5CF808185FFF2CFA889B9898C91F0
:1003700085FFEDCFCE010E943001E7CFDF91CF9115
:10038000089580E090E0892B29F00E9426018111D8
:100390000C9400000895CF93DF934770552766278C
:1003A0007727FA013197EC01A881B981E730F1058F
:1003B00020F4EC5CFF4F0C949E1B1496ED91FC9185
:1003C000159761E029C01496ED91FC91159765E0B1
:1003D00023C01496ED91FC91159764E01DC014960E
:1003E000ED91FC91159766E017C01496ED91FC9184
:1003F000159762E011C01496ED91FC9115976AE093
:100400000BC01496ED91FC91159768E005C0149609
:10041000ED91FC91159769E0DF91CF910994CF930D
:10042000DF93EC01CB01BA0126E030E040E050E080
:100430000E94F81A623071058105910559F18CF41A
:100440006115710581059105F1F061307105810536
:100450009105C1F5E881F9810480F581E02D65E021
:100460002DC0643071058105910511F1D4F065301E
:1004700071058105910531F5E881F9810480F581E7
:10048000E02D66E01BC0E881F9810480F581E02D54
:1004900064E014C0E881F9810480F581E02D61E019
:1004A0000DC0E881F9810480F581E02D63E006C08C
:1004B000E881F9810480F581E02D62E0CE01DF91D1
:1004C000CF910994DF91CF91089543705527662706
:1004D0007727DC01ED91FC910480F581E02D42301D
:1004E00051056105710571F04330510561057105D4
:1004F00059F0413051056105710511F065E005C005
:1005000066E003C06AE001C069E00994CF93DF931D
:10051000EC01CB01BA0123E030E040E050E00E9462
:10052000F81A613071058105910581F0623071051D
:100530008105910591F0672B682B692BC1F4E88147
:10054000F9810480F581E02D64E00DC0E881F98136
:100550000480F581E02D61E006C0E881F981048026
:10056000F581E02D62E0CE01DF91CF910994DF911A
:10057000CF9108954370552766277727DC01ED91C9
:10058000FC910480F581E02D423051056105710533
:1005900071F0433051056105710559F04130510545
:1005A0006105710511F062E005C063E003C061E020
:1005B00001C060E00994CF93DF93EC0120E030E0CC
:1005C000A9016C897D898E899F890E94B91C1816A2
:1005D0001CF4E8A9F9A902C0EAA9FBA9DF91CF910F
:1005E00009940F931F93DC011396EC910E2F10E0EA
:1005F00009301105C0F5F801E55CFF4F0C949E1B16
:10060000DC01ED91FC910084F185E02D29C0DC0135
:10061000ED91FC910284F385E02D22C0DC01ED9187
:10062000FC910484F585E02D1BC0DC01ED91FC916B
:100630000684F785E02D14C0DC01ED91FC91008863
:10064000F189E02D0DC0DC01ED91FC910288F38968
:10065000E02D06C0DC01ED91FC910488F589E02DC8
:100660001F910F9109941F910F910895DC01ED9155
:10067000FC910280F381E02D6FE609946F70DC013C
:1006800095962C919597207F622B95966C939597D4
:1006900092962D913D914D915C919597ED91FC91A4
:1006A0000190F081E02D6CE60994DC0194962C9188
:1006B000949760FB21F994962C93949792962D91A0
:1006C0003D914D915C919597ED91FC910190F08158
:1006D000E02D6CE60994DC0193968C91939760FB76
:1006E00087F993968C9393976695617094968C9105
:1006F00094978E7F682B94966C93949792962D91F5
:100700003D914D915C919597ED91FC9111970190E0
:10071000F081E02D6CE6CD010994DC0192968C917C
:10072000929760FB87F992968C9392976695677083
:1007300093968C919397887F682B93966C9393975D
:1007400092962D913D914D915C919597ED91FC91F3
:1007500011970190F081E02D6CE6CD010994DC0148
:100760006770962F9295907F92966C9192976F7882
:10077000692B92966C93929792962D913D914D9103
:100780005C919597ED91FC9111970190F081E02D8E
:100790006CE6CD0109940895CF92DF92EF92FF921B
:1007A0000F931F93CF93DF93EC019B81943041F023
:1007B000983031F0933031F0963021F012E003C0E0
:1007C00014E001C013E02496E12CF12CC62ED12CAC
:1007D00001E0C6010E2C02C0959587950A94E2F7B8
:1007E0006C8180FD602789910E94E6108FEFE81AE6
:1007F000F80AE11670F3DF91CF911F910F91FF90EE
:10080000EF90DF90CF900895CF93DF93FC01238189
:10081000222359F1EC0161E084810E94331161E0EF
:100820008D810E9433118B81843011F0883039F42E
:1008300061E08E810E94331161E08F8106C08330B8
:1008400011F0863021F461E08E810E9433118FA572
:100850008F3F59F061E00E9433116EA581E0682757
:100860008FA5DF91CF910C94E610DF91CF91089581
:10087000CF93DF93FC0123812223A9F0EC010190A7
:10088000F081E02D0480F581E02D60E009958FA5D1
:100890008F3F49F061E00E9433116EA58FA5DF9173
:1008A000CF910C94E610DF91CF910895CF93DF9311
:1008B000EC01E881F9810480F581E02D8A818111C4
:1008C00002C060E001C062E0CE010995E881F981D3
:1008D0000480F581E02D8A81811102C061E001C0B0
:1008E00063E0CE0109958CA59DA50E946F11E8815A
:1008F000F9810480F581E02D8A81811102C060E0D8
:1009000001C062E0CE01DF91CF910994CF92DF92D6
:10091000EF92FF92CF93882329F081E0682784E04B
:10092000C3E002C086E0C5E00E94E61061E08C2FC3
:100930000E94E61060910201709103018091040110
:10094000909105010E948A1C6B017C01CB010E94E1
:100950006F1160E08C2F0E94E610C601CF91FF90CE
:10096000EF90DF90CF900C946F110E94DE10892FD2
:100970008F7008950E94DE108695817008950E9400
:10098000DE10771F7727771F8170880F872B0895D8
:100990000E94DE10862F881F8827881F7770770FA8
:1009A000872B08950E94DE10862F82958770089508
:1009B0008DE58CBD81E08DBD0895CF92DF92EF92E1
:1009C000FF921F93CF93DF93EC0169017A01162FF9
:1009D00010688BA99CA9892B11F40E94D80460E0AF
:1009E00089A90E94E610612FCE010E945D10898BBB
:1009F0006F2D772788279927CE010E945D10B701B8
:100A000088279927CE010E945D1099278F2D7E2D72
:100A10006D2DCE010E945D106C2DCE010E945D10E7
:100A200011E08DA9181734F465E0CE010E94CA10B8
:100A30001F5FF7CF61E089A9DF91CF911F91FF90F0
:100A4000EF90DF90CF900C94E610CF92DF92EF9270
:100A5000FF921F93CF93DF93EC01F62E8BA99CA9F5
:100A6000892B11F40E94D80460E089A90E94E61045
:100A70006F2DCE010E945D1064E0CE010E94CA106D
:100A800011E08DA9181734F465E0CE010E94CA1058
:100A90001F5FF7CF61E089A90E94E61060E089A995
:100AA0000E94E61080912302181734F465E0CE010D
:100AB0000E94CA101F5FF6CF6F2DCE010E945D10FD
:100AC000898B60E0CE010E945D10C82ED12CE12CF4
:100AD000F12CFE2CED2CDC2CCC2460E0CE010E940D
:100AE0005D10C82AFE2CED2CDC2CCC2460E0CE015D
:100AF0000E945D10C82AFE2CED2CDC2CCC2460E07A
:100B0000CE010E945D10C82A61E089A90E94E6100A
:100B1000C701B601DF91CF911F91FF90EF90DF9059
:100B2000CF900895CF93DF93FC0124813581232B4F
:100B300069F0C081D181062E000C770BCE010E9496
:100B4000091F009719F08C1B9D0B02C08FEF9FEFC0
:100B5000DF91CF9108950F931F93CF93DF93EC0113
:100B600088819981009729F02A813B8126173707D0
:100B700088F48B016F5F7F4F0E943A1E009761F0EF
:100B8000998388831B830A832C813D81232B11F455
:100B9000FC01108281E001C080E0DF91CF911F91C4
:100BA0000F910895EF92FF920F931F93CF93DF93CE
:100BB000EC017B018A01BA010E94AB0528813981D1
:100BC00081110DC02115310519F0C9010E94B11D17
:100BD000198218821D821C821B821A8206C01D8304
:100BE0000C83B701C9010E94141FCE01DF91CF9180
:100BF0001F910F91FF90EF900895FC0180819181EA
:100C00000C94B11DFC011182108213821282158294
:100C100014826115710551F0FB0101900020E9F784
:100C20003197AF01461B570B0C94D2050895BF9224
:100C3000CF92DF92EF92FF920F931F93CF93DF93A8
:100C40007C016B01EA0189012417350720F48D2FFF
:100C5000E901042F182F68E771E0C7010E9402061E
:100C6000D60114968D919C911597C817D907C0F598
:100C70008017910708F48C01D601ED91FC91119732
:100C8000E00FF11FB08010826D917C916C0F7D1F81
:100C90006115710561F0FB0101900020E9F73197C2
:100CA000AF01461B570BC7010E94D20513C0F701C5
:100CB00080819181009711F00E94B11DD70111969A
:100CC0001C921E9215961C921E92149713961C92BB
:100CD0001E921297D601ED91FC91E00FF11FB082A8
:100CE000C701DF91CF911F910F91FF90EF90DF909F
:100CF000CF90BF9008951F920F920FB60F921124BC
:100D00002F933F934F935F936F937F938F939F9313
:100D1000AF93BF93EF93FF9386E891E00E94300179
:100D2000FF91EF91BF91AF919F918F917F916F91C3
:100D30005F914F913F912F910F900FBE0F901F9099
:100D400018951F920F920FB60F9211242F938F9325
:100D50009F93EF93FF93E0919601F091970180812B
:100D6000E0919C01F0919D0182FD12C090818091E3
:100D70009F018F5F8F732091A001821751F0E09146
:100D80009F01F0E0EA57FE4F958F80939F0101C0CD
:100D90008081FF91EF919F918F912F910F900FBEC6
:100DA0000F901F9018951F920F920FB60F9211245B
:100DB0002F933F934F935F936F937F938F939F9363
:100DC000AF93BF93EF93FF938091840187FF05C09A
:100DD00010928500109284001BC020918401022E85
:100DE000000C330B8091480290E02817390784F4F7
:100DF00080918401082E000C990BFC01EE0FFF1F5F
:100E00008E0F9F1FFC01EC5DFD4F808186FD15C09C
:100E1000809184018F5F8093840120918401022E50
:100E2000000C330B8091480290E028173907C4F476
:100E3000809184018C3064F113C080918401082E6C
:100E4000000C990BFC01EE0FFF1F8E0F9F1FFC0182
:100E5000EC5DFD4F808160E08F730E94E610D8CF7B
:100E60008091840090918500049680349C4918F408
:100E700080E49CE905C080918400909185000496EF
:100E800090938900809388008FEF809384013BC00A
:100E9000209184003091850080918401082E000CFF
:100EA000990BFC01EE0FFF1F8E0F9F1FFC01EC5DE5
:100EB000FD4F81819281820F931F909389008093CF
:100EC000880080918401082E000C990BFC01EE0F24
:100ED000FF1F8E0F9F1FFC01EC5DFD4F808186FF81
:100EE00012C080918401082E000C990BFC01EE0FBA
:100EF000FF1F8E0F9F1FFC01EC5DFD4F808161E0A5
:100F00008F730E94E610FF91EF91BF91AF919F9177
:100F10008F917F916F915F914F913F912F910F90A2
:100F20000FBE0F901F9018954F925F926F927F9215
:100F30008F929F92AF92BF92EF92FF920F931F9367
:100F4000CF93DF93811103C0C4E6D0E002C0C6E9AD
:100F5000D0E008E810E0B8E5EB2EB2E0FB2E84EB21
:100F6000882E912CA12CB12C80910001909101012F
:100F70008C179D0709F488C08C179D0714F40196FF
:100F800001C00197909301018093000160910001DD
:100F900070910101603282E07807DCF577FD06C0D0
:100FA000653B71052CF064EB70E002C060E070E01E
:100FB0008091CC022801481A510887FD5394D20130
:100FC000AA0FBB1FAA0FBB1F2D01BB0F6608770816
:100FD0008091CD029701281B310987FD3395220F9F
:100FE000331F220F331FC901330FAA0BBB0B9C0108
:100FF000AD012419350946095709DB010E94221B5E
:10100000A50194010E94F81A420E531E641E751E1B
:10101000B2018091CB028C3080F59091CC02A80176
:10102000491B510997FD5395440F551F440F551FF8
:101030006417750784F09091CD029701291B31093F
:1010400097FD3395220F331F220F331FAB01261755
:1010500037070CF4A90142505109440F551F2FB70F
:10106000F89490E0FC01EE0FFF1F8E0F9F1FFC0114
:10107000EC5DFD4F528341832FBF6CE070E080E058
:1010800090E00E947A1170CF64E670E080E090E01A
:10109000DF91CF911F910F91FF90EF90BF90AF9094
:1010A0009F908F907F906F905F904F900C947A11EB
:1010B0002F923F924F925F926F927F928F929F9268
:1010C000AF92BF92CF92DF92EF92FF920F931F9356
:1010D000CF93DF93CDB7DEB7AC970FB6F894DEBFF2
:1010E0000FBECDBF1B018BA79CA7298339874D87D6
:1010F0005E872701380120E030E846EB54E4C80160
:10110000B7010E94D11918165CF420E030E04AE7DC
:1011100054E4C601B5010E94D11918160CF42BC471
:1011200040925302509254026092550270925602BD
:10113000A0924F02B0925002C0925102D09252023D
:1011400091014BA55CA5C301B2010E94A41B6B8F4A
:101150007C8F8D8F9E8F298139854D855E85C60157
:10116000B5010E94A41B6F8F78A389A39AA32B8D2E
:101170003C8D4D8D5E8DCA01B9010E94371A6D8379
:101180007E838F8398872F8D38A149A15AA1CA01E8
:10119000B9010E94371A9B01AC016D817E818F815C
:1011A00098850E94A51B0E94C41C6B8B7C8B8D8B29
:1011B0009E8B298139854D855E85698179858D85EF
:1011C0009E850E94371A6D837E838F839887910155
:1011D0004BA55CA5B1018BA59CA50E94371A2D815A
:1011E0003E814F8158850E94A51B0E94C41C6F87B9
:1011F000788B898B9A8B91014BA55CA560E070E898
:1012000086EB94E40E94A41B9B01AC010E94371A58
:101210002D813E814F8158850E94A51B0E94C41CD0
:101220006D837E838F839887A6019501C601B501E2
:101230000E94371A6B017C01A3019201C301B20124
:101240000E94371AA70196010E94A51B0E94C41C88
:101250004B015C01A301920160E070E886EB94E42D
:101260000E94A41B9B01AC010E94371AA7019601A2
:101270000E94A51B0E94C41C6B017C012F8538892C
:1012800049895A89C501B4010E94A41B2B013C0164
:101290002D813E814F815885C701B6010E94A41B54
:1012A0006B017C0120E030E0A901C301B2010E9482
:1012B000B91C53014201181624F0B7FAB094B7F8DC
:1012C000B09420E030E0A901C701B6010E94B91C2A
:1012D000181624F0F7FAF094F7F8F094A7019601A5
:1012E000C501B4010E94B91C18167CF420E030E05E
:1012F000A901C301B2010E94B91C73016201181651
:1013000024F0F7FAF094F7F8F09420915702309116
:1013100058024091590250915A02C701B6010E94E9
:10132000111C6FA378A789A79AA760938001709377
:101330008101809382019093830110927C0110922D
:101340007D0110927E0110927F0180E090E0A0E28A
:10135000B1E48F87988BA98BBA8B1D821E821F8266
:1013600018862B893C894D895E896D817E818F81AC
:1013700098850E94D11987FFFEC22F853889498937
:101380005A896B897C898D899E890E94A41B9B0147
:10139000AC016D817E818F8198850E94B91C1816E1
:1013A00074F42D813E814F8158856B897C898D89AC
:1013B0009E890E94A41B6F87788B898B9A8B2B89BF
:1013C0003C894D895E896F85788989899A890E94CF
:1013D000111C6B017C019B01AC016B8D7C8D8D8D93
:1013E0009E8D0E94371A91014BA55CA50E94A51BFA
:1013F0006F8B788F898F9A8FA70196016F8D78A157
:1014000089A19AA10E94371A298139854D855E8567
:101410000E94A51B6BA37CA38DA39EA32981398564
:101420004D855E85698179858D859E850E94371AF7
:101430006B017C0191014BA55CA5B1018BA59CA51D
:101440000E94371AA70196010E94A51B0E94C41C86
:1014500069837A838B839C8391014BA55CA560E0B3
:1014600070E886EB94E40E94A41B9B01AC010E94EF
:10147000371AA70196010E94A51B0E94C41C2B01CC
:101480003C012BA13CA14DA15EA16BA17CA18DA132
:101490009EA10E94371A4B015C012F89388D498D1E
:1014A0005A8D6F89788D898D9A8D0E94371AA50182
:1014B00094010E94A51B0E94C41C6B017C012F8912
:1014C000388D498D5A8D60E070E886EB94E40E9477
:1014D000A41B9B01AC010E94371AA50194010E9434
:1014E000A51B0E94C41C4B015C0129813A814B81E0
:1014F0005C81C701B6010E94A41B6B017C01A301A2
:101500009201C501B4010E94A41B4B015C0120E0C3
:1015100030E0A901C701B6010E94B91C87FD12C0C5
:1015200020E030E0A901C501B4010E94B91C87FF89
:101530001EC020E030E0A901C501B4010E94D1190C
:1015400087FD1AC020E030E0A901C701B6010E9462
:10155000D11987FF15C091E09D8720E030E0A901F7
:10156000C501B4010E94B91C87FF0BC009C0A1E0EE
:10157000AD87B1E0BE8706C01D8621E02E8702C080
:101580001D861E8620E030E0A901C701B6010E9439
:10159000B91C26013701181624F077FA709477F8F1
:1015A000709420E030E0A901C501B4010E94B91C8B
:1015B000A501940118160CF05058C301B2010E9405
:1015C000B91C87FD07C08D859E859D878E87222447
:1015D000239401C0212C20E030E0A901C701B6010D
:1015E0000E94B91C26013701181624F077FA70946E
:1015F00077F8709420E030E0A901C501B4010E94A1
:10160000B91C18160CF489C1D501C401B0588983DE
:101610009A83AB83BC83A3019201BC01CD010E94DC
:10162000B91C181684F420E030E0A901C701B60106
:101630000E94B91C1816BCF0D701C601B0588983A6
:101640009A83AB83BC8320E030E0A901C701B601D7
:101650000E94B91C18165CF02601370177FA7094C5
:1016600077F8709406C0C982DA82EB82FC82260188
:10167000370120E030E0A901C501B4010E94B91C86
:10168000181624F0B7FAB094B7F8B094A3019201F9
:10169000C501B4010E94D11987FF0FC020E030E0DE
:1016A000A901C701B6010E94B91C460157011816CD
:1016B00024F0B7FAB094B7F8B09420915702309163
:1016C00058024091590250915A02C501B4010E943A
:1016D000111C69877A878B879C87A5019401698192
:1016E0007A818B819C810E94111C69837A838B8310
:1016F0009C8300E010E0C12CD12C7601332433947C
:101700003224B801012E000C880B990B0E94D819C5
:101710009B01AC0169857A858B859C850E94B91CEB
:1017200018160CF0DDC080907C0190907D01A09097
:101730007E01B0907F0120E030E046E953E4C5012E
:10174000B4010E94A41B20E030E0A9010E94D1193D
:1017500087FF12C0A1E0B0E0B0937B01A0937A01B3
:1017600080E090E0A8E4B4E4809302019093030148
:10177000A0930401B093050120E030E046E953E472
:10178000C501B4010E94A51B9B01AC016FA178A506
:1017900089A59AA50E94D11987FF06C0AFEFBFEFB8
:1017A000B0937B01A0937A0180917A0190917B01A3
:1017B000019741F526E636E646EE5FE360910201C9
:1017C0007091030180910401909105010E94A41B76
:1017D0002B013C0120E030E04CED52E40E94D11995
:1017E00087FF2EC080E090E0ACEDB2E48093020170
:1017F00090930301A0930401B093050110927B0123
:1018000010927A0180917A0190917B01019689F57D
:1018100026E636E646EE5FE3609102017091030131
:1018200080910401909105010E94A51B2B013C01B0
:1018300020E030E048E454E40E94B91C18164CF053
:1018400040920201509203016092040170920501DE
:1018500010C080E090E0A8E4B4E48093020190938B
:101860000301A0930401B093050110927B01109233
:101870007A0120E030E040E85FE3C501B4010E9456
:10188000A51B60937C0170937D0180937E019093F2
:101890007F016D85822D0E94860429813A814B81CA
:1018A0005C81C701B6010E94A51B6B017C0120E091
:1018B00030E040E85FE30E94B91C87FD0EC06E85F2
:1018C000832D0E94860420E030E040E85FE3C701FA
:1018D000B6010E94A41B6B017C010F5F1F4F11CF4B
:1018E0002F85388949895A896D817E818F819885B4
:1018F0000E94A51B6D837E838F8398872F88388CE9
:10190000998D9BA7AA8DACA7BBA1B9832CA12987D0
:101910008DA18D879EA19E8724CDA3019201C50133
:10192000B4010E94B91C18168CF420E030E0A90123
:10193000C701B6010E94B91C18160CF07DCE260115
:101940003701C982DA82EB82FC82A0CE20E030E04F
:10195000A901C701B6010E94B91C18163CF4260162
:10196000370189829A82AB82BC8290CE89829A8228
:10197000AB82BC8271CEAC960FB6F894DEBF0FBEC0
:10198000CDBFDF91CF911F910F91FF90EF90DF902E
:10199000CF90BF90AF909F908F907F906F905F900F
:1019A0004F903F902F9008954F925F926F927F9249
:1019B0008F929F92AF92BF92CF92DF92EF92FF925F
:1019C0000F931F93CF93DF93EC0180E191E0998314
:1019D000888381E08B831C861D861E861F86188A5D
:1019E000198A1A8A1B8A1C8A1D8A1E8A1F8A812CC0
:1019F000912C80E8A82E8FE3B82E888E998EAA8E1F
:101A0000BB8E1C8E1D8E1E8E1F8E88A299A2AAA22E
:101A1000BBA21CA21DA21EA21FA281E090E09DA756
:101A20008CA78FEF8FA718A619A61AA61BA66C83E2
:101A30004D8384E08E8385E08F831EA61CAA1DAA99
:101A40001EAA1FAA18AE19AE1AAE1BAE1CAE1DAE52
:101A50001EAE1FAE8E01005C1F4FF8018082918286
:101A6000A282B3821A82188619861A861B86CE0134
:101A70000E940404CC8CDD8CEE8CFF8CA5019401BB
:101A8000C701B6010E94D119882309F441C16CA98C
:101A90007DA98EA99FA90E94D819A70196010E942D
:101AA000371A0E94831C6B017C016CAB7DAB8EAB43
:101AB0009FAB86E896E6A9E6B9E488AF99AFAAAFEE
:101AC000BBAF8C8E9D8EAE8EBF8E88889988AA887B
:101AD000BB888C859D85AE85BF85881A990AAA0A20
:101AE000BB0A6C897D898E899F899B01AC010E940C
:101AF000371A20E030E040E05FE30E94371A0E948E
:101B0000831C81149104A104B10499F4623071051D
:101B1000810591050CF073C01CA21DA21EA21FA27C
:101B20001C8A1D8A1E8A1F8A1CAA1DAA1EAA1FAAF9
:101B3000EFC0181419041A041B04FCF41C141D042F
:101B40001E041F044CF4681579058A059B054CF5A5
:101B50002A81211154C025C0C114D104E104F1042B
:101B600009F44DC0681579058A059B050CF047C03E
:101B70008A81882309F443C036C01C141D041E0446
:101B80001F04ECF4CC24DD247601C818D908EA0837
:101B9000FB086C157D058E059F051CF42A81222308
:101BA00071F19B01AC0188279927DC01821B930B03
:101BB000A40BB50B8CAB9DABAEABBFAB20C0C114BF
:101BC000D104E104F104D9F0442455243201481829
:101BD00059086A087B0864157505860597057CF425
:101BE0008A8181110CC0F094E094D094C094C11CFF
:101BF000D11CE11CF11CCCAADDAAEEAAFFAACCA83C
:101C0000DDA8EEA8FFA8C114D104E104F10489F411
:101C100086E896E6A9E6B9E48CAF9DAFAEAFBFAF5C
:101C200081E0181419041A041B040CF080E08A8364
:101C300044C08CAC9DACAEACBFACA5019401C50159
:101C4000B4010E94A51B2B013C01C701B6010E94F3
:101C5000D81920E030E040E850E40E94371A20E034
:101C600030E040E85FE30E94A51B9B01AC01C3018B
:101C7000B2010E94111C9B01AC01C501B4010E947C
:101C8000A41B562E672E782E892EF8019080A180F5
:101C9000B2801381292D3A2D4B2D512F0E94B91C52
:101CA00018161CF4952C5301182D892D9A2DAB2D47
:101CB000B12F8CAF9DAFAEAFBFAFFFEFCF1ADF0A32
:101CC000EF0AFF0ACCAADDAAEEAAFFAACCACDDACD3
:101CD000EEACFFACC701B6010E948A1C6CA37DA3C9
:101CE0008EA39FA3A701960160E074E284E799E4C4
:101CF0000E94111C6C8B7D8B8E8B9F8B2A812111F6
:101D000007C0DC01CB01B0588C8B9D8BAE8BBF8B99
:101D1000DF91CF911F910F91FF90EF90DF90CF90C7
:101D2000BF90AF909F908F907F906F905F904F90FB
:101D300008951F93CF93DF93EC012AE037ED43EA38
:101D40005CE369857A858B859C850E94A51B2AE2C8
:101D50003DE64DEF51E40E94371A26E636E646EAA4
:101D60005EE30E94111C20E030E040E85FE30E9447
:101D7000A41B0E948A1C162F603120F561E0CE0161
:101D80000E9455032AE037ED43EA5CE369857A85D2
:101D90008B859C850E94A51B2AE23DE64DEF51E410
:101DA0000E94371A2CEE31E548E35EE30E94111CD5
:101DB00020E030E040E85FE30E94A41B0E948A1C00
:101DC000162F04C060E0CE010E945503103208F0C7
:101DD0001FE1912F9F718B81807E892B8B832A81BC
:101DE000382F8C81482F4F7050E060E1CE010E9467
:101DF000DD04612F70E080E090E00E94D8192D850D
:101E00003E854F8558890E94371A0E948A1C6F713F
:101E10008A81807E682B6A83262F3B818C81482FA4
:101E20004F7050E060E1CE01DF91CF911F910C9493
:101E3000DD040F931F93CF93DF93EC0161E089A939
:101E40000E94331161E089A90E94E6100BA91CA928
:101E50000115110509F456C061E0F80180810E9466
:101E6000331161E0F80184810E94331162E0F801CE
:101E700082810E943311F80140815181FA01E551BC
:101E8000FF4FE491F0E0EE0FFF1FEF51FF4F859100
:101E90009491F8019287818722813381F901E5517C
:101EA000FF4FE491F0E0EE0FFF1FE952FF4F8591E5
:101EB0009491F8019487838784819581FC01E55191
:101EC000FF4FE491F0E0EE0FFF1FEF51FF4FA591A0
:101ED000B491F801B687A587FA01ED53FF4F4491FD
:101EE000F8014683F901ED53FF4F2491F801278350
:101EF000FC01ED53FF4F9491F80190878C91E92FED
:101F0000E82BEC932A893B898C89482F437050E059
:101F100060E0CE010E94DD042AA13BA14CA15DA19D
:101F20006CE6CE010E94DD042EA13FA148A559A573
:101F300051706DE6CE010E94DD042DA53EA58FA552
:101F4000482F4F7350E060E7CE010E94DD042A81E4
:101F50003B818C81482F4F7050E060E1CE010E94A0
:101F6000DD048AA1807F88608AA32AA13BA14CA1BD
:101F70005DA16CE6CE010E94DD0461E0CE01DF913F
:101F8000CF911F910F910C946B0342E050E066E7F4
:101F900071E086E891E00C94BC00FC0180819181A5
:101FA000009711F00C94221860E070E0CB010895C6
:101FB000FC0180819181009711F00C94261860E05B
:101FC00070E0CB0108950F931F93CF93DF938C01A3
:101FD000EB01FC01808191810097B1F068817981EA
:101FE0006115710579F0428153812C813D81421741
:101FF000530740F00E94141F8C819D81F801958346
:10200000848313C00E94B11D88819981F801918356
:1020100080838A819B81938382838C819D81958338
:102020008483198218821B821A821D821C82DF918E
:10203000CF911F910F9108953FB7F89480915B0362
:1020400090915C03A0915D03B0915E0326B5A89BBF
:1020500005C02F3F19F00196A11DB11D3FBFBA2F3A
:10206000A92F982F8827820F911DA11DB11DBC019A
:10207000CD0142E0660F771F881F991F4A95D1F75F
:102080000895CF93DF9320914D0230914E02232B80
:1020900079F0FC01C0914902D0914A0260817181BE
:1020A000CE010E941B1F009719F08C1B9D0B02C0D4
:1020B0008FEF9FEFDF91CF910895CF93DF93DC01F6
:1020C000D396ED91FC91D497309709F45AC0A58529
:1020D000B6859C918085809589238C9327E030E09C
:1020E00080E0C62FD0E0722FA185B2859681AE0127
:1020F000022E02C0559547950A94E2F740FF03C0AF
:102100004C91942B03C04C91909594239C93A5855E
:10211000B6854C919085942B9C93A385B4854C9166
:102120009781942341E050E011F440E050E001C079
:10213000440F7A95EAF7842BA585B6854C91908556
:10214000909594239C932150310969F6A185B2851D
:1021500096812C9160FF02C0922B02C09095922331
:102160009C93A585B6852C919085922B9C93A385F5
:10217000B4852C919781922321E009F420E0822BF1
:1021800006C06EBD00000DB407FEFDCF8EB5DF9119
:10219000CF9108950F931F93CF93DF938C01D62F88
:1021A000C0E0CD1731F060E0C8010E945D10CF5F44
:1021B000F8CFDF91CF911F910F910895DC01ED9140
:1021C000FC910280F381E02D6CE6099490E0FC0123
:1021D000E75FFE4F2491FC01ED53FF4F3491FC016A
:1021E000E551FF4FE491EE2309F43CC0222339F17D
:1021F000233091F038F42130A9F0223001F584B574
:102200008F7D12C0273091F02830A1F02430B9F42E
:10221000809180008F7D03C0809180008F778093B4
:1022200080000DC084B58F7784BD09C08091B00057
:102230008F7703C08091B0008F7D8093B000F0E075
:10224000EE0FFF1FEF51FF4FA591B4919FB7F89488
:10225000611104C08C913095382302C0EC913E2B63
:102260003C939FBF0895CF93DF9390E0FC01ED5323
:10227000FF4F2491FC01E551FF4F8491882361F1C8
:1022800090E0880F991FFC01E150FF4FC591D49158
:10229000FC01EF51FF4FA591B491611109C09FB7A7
:1022A000F8948881209582238883EC912E230BC09B
:1022B000623061F49FB7F8948881322F3095832380
:1022C0008883EC912E2B2C939FBF06C08FB7F89478
:1022D000E8812E2B28838FBFDF91CF910895823024
:1022E000910538F0880F991F880F991F059701975E
:1022F000F1F708958F929F92AF92BF92CF92DF92A3
:10230000EF92FF926B017C010E941C104B015C015B
:10231000C114D104E104F104F1F00E941C10DC01AD
:10232000CB0188199909AA09BB09883E9340A105E8
:10233000B10570F321E0C21AD108E108F10888EE76
:10234000880E83E0981EA11CB11CC114D104E104C5
:10235000F10419F7DDCFFF90EF90DF90CF90BF90A1
:10236000AF909F908F9008951F920F920FB60F928B
:1023700011242F933F938F939F93AF93BF9380919B
:10238000570390915803A0915903B0915A0330918B
:10239000560323E0230F2D3720F40196A11DB11D14
:1023A00005C026E8230F0296A11DB11D20935603F8
:1023B0008093570390935803A0935903B0935A0303
:1023C00080915B0390915C03A0915D03B0915E03EB
:1023D0000196A11DB11D80935B0390935C03A093B4
:1023E0005D03B0935E03BF91AF919F918F913F9139
:1023F0002F910F900FBE0F901F90189589E492E0D7
:102400000C94FD05CF93DF93CDB7DEB7AA970FB637
:10241000F894DEBF0FBECDBF789484B5826084BDD2
:1024200084B5816084BD85B5826085BD85B58160D8
:1024300085BD80916E00816080936E001092810056
:102440008091810082608093810080918100816011
:1024500080938100809180008160809380008091D2
:10246000B10084608093B1008091B000816080935E
:10247000B00080917A00846080937A0080917A0025
:10248000826080937A0080917A00816080937A00E4
:1024900080917A00806880937A001092C100E09168
:1024A0009601F091970182E08083E0919201F09192
:1024B00093011082E0919401F09195018FEC80835B
:1024C00010929E01E0919A01F0919B0186E0808339
:1024D000E0919801F0919901808180618083E09181
:1024E0009801F0919901808188608083E091980142
:1024F000F0919901808180688083E0919801F0914A
:10250000990180818F7D80838091CB028C3008F08F
:1025100051C061E08AE00E9433118091CB02E82F24
:10252000F0E09F01220F331FE20FF31FEC5DFD4F20
:102530009081907C9A6090831092CC021092CD0290
:102540006CE00E94921B2CE0829FB001112440E0BD
:1025500050E09B01240F351FF901EE0FFF1F2E0FD6
:102560003F1FF901EC5DFD4F908196FD16C04F5F56
:102570005F4F4C30510569F781110FC010928000F8
:1025800082E0809381001092850010928400B19ABD
:1025900080916F00826080936F00E091CB02F0E049
:1025A000CF01880F991FE80FF91FEC5DFD4F808167
:1025B0008064808348E050E06CE571E086E891E05B
:1025C0000E94BC000E94C50F80E00E94940761E059
:1025D00083E00E94331161E084E00E94331161E0E6
:1025E00085E00E94331161E086E00E94331161E0D2
:1025F00082E00E94331160E082E00E94E6101FB783
:10260000F89480918501811127C0E5EFF0E0849175
:10261000EDECF0E09491E82FF0E0EE0FFF1FE150B9
:10262000FF4FA591B491EC91E92321F461E08AE098
:102630000E94E61061E08AE00E9433118CB580614F
:102640008CBD8CB580648CBD61E08DE00E9433113F
:1026500061E08BE00E943311809185018F5F809350
:1026600085011FBF85E992E00E94190F85E992E07C
:102670000E94990E64E085E992E00E943E038091F9
:10268000A70284608093A702282F3091A80280912E
:10269000A902482F437050E060E085E992E00E9473
:1026A000DD048091C40284608093C4022091C20240
:1026B0003091C302482F4F7350E060E785E992E004
:1026C0000E94DD048FE592E00E94190F8FE592E0F1
:1026D0000E94990E64E08FE592E00E943E03809193
:1026E0007102846080937102282F30917202809170
:1026F0007302482F437050E060E08FE592E00E9443
:10270000DD0480918E02846080938E0220918C0281
:1027100030918D02482F4F7350E060E78FE592E0D3
:102720000E94DD0486E891E00E941A01181619063D
:102730000CF0B3C186E891E00E94F8008A3009F0FD
:1027400089C165E671E0CE0101960E940206CE01C4
:1027500001960E944110019699F468E671E0CE015D
:1027600007960E940206CE0107960E94411011E0D2
:10277000019609F410E0CE0107960E94FD0501C004
:1027800011E0CE0101960E94FD05112309F41DC13F
:102790006CE671E0CE0149960E9402066CE671E09B
:1027A000CE0143960E9402066CE671E0CE010D96C2
:1027B0000E94020668E589E492E00E9492058F3F3C
:1027C0005FEF950709F44EC09C012E5F3F4FAC01AF
:1027D0004F5F5F4F69E472E0CE0107960E941706D3
:1027E00060E2CE0107960E9492056C0168E589E4DB
:1027F00092E00E9492059601281B390B2F5F3F4FF4
:10280000AC014F5F5F4F69E472E0CE0101960E9418
:102810001706BE016F5F7F4FCE0149960E94E30FFE
:10282000CE0101960E94FD05CE0107960E94FD058E
:1028300060E2CE0149960E9492059C0140E050E082
:10284000BE01675E7F4FCE0101960E941706BE0152
:102850006F5F7F4FCE0149960E94E30FCE01019634
:102860000E94FD0569E589E492E00E9492058F3F90
:10287000AFEF9A0709F44AC09C012E5F3F4FAC01AD
:102880004F5F5F4F69E472E0CE0107960E94170622
:1028900060E2CE0107960E9492058C0169E589E409
:1028A00092E00E949205AC014F5F5F4F980169E48E
:1028B00072E0CE0101960E941706BE016F5F7F4F46
:1028C000CE0143960E94E30FCE0101960E94FD05C2
:1028D000CE0107960E94FD0560E2CE0143960E945C
:1028E00092059C0140E050E0BE016D5E7F4FCE013D
:1028F00001960E941706BE016F5F7F4FCE0143967F
:102900000E94E30FCE0101960E94FD056AE589E46D
:1029100092E00E9492058F3FBFEF9B0709F44AC0E7
:102920009C012E5F3F4FAC014F5F5F4F69E472E047
:10293000CE0107960E94170660E2CE0107960E941C
:1029400092058C016AE589E492E00E949205AC014F
:102950004F5F5F4F980169E472E0CE0101960E94DB
:102960001706BE016F5F7F4FCE010D960E94E30FE9
:10297000CE0101960E94FD05CE0107960E94FD053D
:1029800060E2CE010D960E9492059C0140E050E06D
:10299000BE01635F7F4FCE0101960E941706BE0104
:1029A0006F5F7F4FCE010D960E94E30FCE0101961F
:1029B0000E94FD05CE010D960E94D80F6230710570
:1029C0008105910508F46CC085C06FE671E0CE0109
:1029D00001960E940206CE0101960E9441108C01D0
:1029E000CE0101960E94FD050F3F1F4F01F1E090BF
:1029F0005B02F0905C0200915D0210915E022091FA
:102A00004F02309150024091510250915202609118
:102A10005302709154028091550290915602A12C5C
:102A2000B12CE8E4CE2EE3E4DE2E0E94580840E00C
:102A300050E068E771E089E492E00E94D20542E04C
:102A400050E063E771E086E891E00E94BC000E94DC
:102A5000C50F23C089831A82C0904D02D0904E02C8
:102A60003FEFC31AD30AB60189E492E00E94AB0596
:102A7000882399F02091490230914A0280914D02B9
:102A800090914E02BE016F5F7F4F820F931F0E9495
:102A9000141FD0924E02C0924D020E94C10142CE3C
:102AA000CE0149960E94CD0F20E030E040E85FEB78
:102AB0000E94D119882309F495C0CE0143960E9443
:102AC000CD0F20E030E040E85FEB0E94D11981118A
:102AD00046C088C0CE0149960E94CD0F20E030E06C
:102AE00040E85FEB0E94D119882309F489C0CE0128
:102AF00043960E94CD0F20E030E040E85FEB0E945B
:102B0000D119882309F47CC0CE0143960E94CD0FD1
:102B10005B016C01CE0149960E94CD0F7B018C01B7
:102B200020914F0230915002409151025091520237
:102B30006091530270915402809155029091560217
:102B40000E945808CE010D960E94FD05CE014396C5
:102B50000E94FD05CE0149960E94FD0568CFCE0179
:102B60000D960E94D80F6F8F78A389A39AA3CE01E8
:102B700043960E94CD0F5B016C01CE0149960E94E5
:102B8000CD0F2B013C0180914F0290915002A091FA
:102B90005102B09152028BA39CA3ADA3BEA320917E
:102BA00053023091540240915502509156022FA386
:102BB00038A749A75AA781E02F8D38A149A15AA16A
:102BC000232B242B252B09F080E00E9494078301FE
:102BD00072012BA13CA14DA15EA16FA178A589A591
:102BE0009AA5AECFCE010D960E94D80F21E0672B9B
:102BF000682B692B09F020E0822F0E949407A2CF56
:102C0000CE0149960E94CD0F20E030E040E85FEB16
:102C10000E94D1198823C9F0CE0149960E94CD0F98
:102C20007B018C0120914F02309150024091510262
:102C3000509152026091530270915402809155025A
:102C40009091560259016A017BCFCE0143960E94B2
:102C5000CD0F20E030E040E85FEB0E94D1198823DF
:102C600009F470CFCE0143960E94CD0F5B016C0139
:102C700060915302709154028091550290915602D6
:102C800020914F02309150024091510250915202D6
:102C90007B018C0155CF109289011092880188EE3A
:102CA00093E0A0E0B0E080938A0190938B01A09321
:102CB0008C01B0938D018AE291E09093870180931B
:102CC000860185EC90E0909393018093920184ECCF
:102CD00090E0909395018093940180EC90E0909324
:102CE00097018093960181EC90E0909399018093F5
:102CF000980182EC90E090939B0180939A0186EC7E
:102D000090E090939D0180939C0110929F011092FE
:102D1000A0011092A1011092A201809148028C3072
:102D2000A0F491E0980F909348028093CB0290E03A
:102D3000FC01EE0FFF1F8E0F9F1FFC01EC5DFD4F8E
:102D400088EB9BE09283818303C08FEF8093CB025B
:102D5000109297021092980280919902807F80933E
:102D6000990210929A0210929B0210929C028091FA
:102D70009D02807F80939D028EEA97E4A1EEBDE3E1
:102D800080939E0290939F02A093A002B093A10211
:102D900080E090E0A0E0BFE38093A2029093A302C2
:102DA000A093A402B093A5028CE391E090939602C5
:102DB000809395021092A7021092A8028091A90216
:102DC0008C7F8093A9021092AA021092AB0280918C
:102DD000AC02807F8093AC021092AD021092AE02E2
:102DE0008091AF02807F8093AF021092B002109268
:102DF000B1021092B2028091B3028E7F8093B3022F
:102E00001092B4021092B5028091B602807880933D
:102E1000B6021092B7021092B8021092B902109244
:102E2000BA021092BB021092BC021092BD028091B5
:102E3000BE028E7F8093BE021092BF021092C0022B
:102E40001092C1028091C5028C7F8093C50287E0F9
:102E500090E09093C7028093C6021092C90210922C
:102E6000C8029FEF9093CA0280E88093C20284E078
:102E70008093C3028091C402807C85608093C402E9
:102E8000809123028F3F14F49093230210926102E9
:102E90001092620280916302807F8093630210929D
:102EA0006402109265021092660280916702807F30
:102EB000809367028EEA97E4A1EEBDE380936802F7
:102EC00090936902A0936A02B0936B0280E090E055
:102ED000A0E0BFE380936C0290936D02A0936E021A
:102EE000B0936F028CE391E09093600280935F0255
:102EF0001092710210927202809173028C7F809303
:102F00007302109274021092750280917602807F93
:102F10008093760210927702109278028091790263
:102F2000807F8093790210927A0210927B02109235
:102F30007C0280917D028E7F80937D0210927E02C2
:102F400010927F028091800280788093800210929C
:102F500081021092820210928302109284021092D7
:102F600085021092860210928702809188028E7FDD
:102F7000809388021092890210928A0210928B022A
:102F800080918F028C7F80938F0288E090E09093F5
:102F900091028093900210929302109292029FEFFE
:102FA0009093940280E880938C0284E080938D0259
:102FB00080918E02807C856080938E0280912302B6
:102FC0008F3F14F49093230244E063E082E193E0A6
:102FD0000E94D40C46E065E08EEC92E00E94D40C96
:102FE00080E090E8A6E3B4E480935B0290935C02F7
:102FF000A0935D02B0935E0243E053E567E47CE397
:1030000040935702509358026093590270935A02AA
:103010008093530290935402A0935502B0935602AA
:1030200080E090E0A8E4B3E480934F0290935002D4
:10303000A0935102B093520268E771E089E492E0F4
:103040000C940206662777270C9462181F93FC01E4
:1030500099278827BC01E89411911032E9F31930BF
:1030600010F01E30C8F31B3251F01D3249F4689441
:1030700006C00E944D18610F711D811D911D119197
:1030800010531A30B0F33EF4909580957095619589
:103090007F4F8F4F9F4F1F910895592F482F372FE4
:1030A000262F660F771F881F991F660F771F881FAF
:1030B000991F620F731F841F951F660F771F881F4C
:1030C000991F0895A0E0B0E0E8E6F8E10C94301B09
:1030D000EC016B016115710519F0FB01918380838F
:1030E0007E01FFEFEF1AFF0A0881802F90E00E9417
:1030F000B019892B11F0E701F3CF0D3239F47E01BD
:1031000082E0E80EF11C098111E008C00B3229F4BD
:103110007E0192E0E90EF11C098110E0E7012197A0
:1031200043E050E060E970E0CE010E94B919892BBC
:10313000C1F4239645E050E06BE870E0CE010E94B8
:10314000B919892B09F42596C114D10419F0F60197
:10315000D183C0831111F6C060E070E080E89FE782
:10316000FAC043E050E068E870E0CE010E94B9196F
:10317000892B59F4C114D10409F4E9C0F2E0EF0E2F
:10318000F11CF601F182E082E2C020E030E0A9010A
:10319000C0E0D0E0F70180EDA82EA00E89E08A15EE
:1031A00030F1912F9260B92E812F887012FF04C0E8
:1031B000811124C0219622C081112197A5E0B0E0A1
:1031C0000E94171BDC01CB01880F991FAA1FBB1F90
:1031D0009C01AD012A0D311D411D511D283989E980
:1031E0003807480789E1580748F0166006C09EEF87
:1031F000A9120AC013FD40C01860B12E8FEFE81A63
:10320000F80A00811B2DC6CF802F8F7D8534A1F554
:1032100080818D3211F4106106C08B3221F031961D
:1032200061E070E004C08181329662E070E080531A
:103230008A3018F0E61BF70B1FC060E070E06038C2
:103240009CE079075CF4DB01AA0FBB1FAA0FBB1F30
:103250006A0F7B1F660F771F680F711D3196DF01A4
:1032600011978C9180538A3050F314FF03C07195ED
:1032700061957109C60FD71F11FF08C0C114D10491
:1032800029F0CF010197F60191838083CA01B9012A
:103290000E94D619212F2370233019F04B015C01B5
:1032A00006C04B015C01B7FAB094B7F8B09420E0C7
:1032B00030E0A901C501B4010E94D119882309F4A5
:1032C0003EC0D7FF06C0D195C195D10907EA10E0ED
:1032D00002C00FEB10E06801F8E1CF1AD10890E2CC
:1032E000E92EF12CCE15DF0574F0F801259135910A
:1032F00045915491C501B4010E94371A4B015C01FC
:10330000CE19DF09EFCF04501109F594E7940C159D
:103310001D0541F78A2D880F8B2D881F8F3F49F09F
:1033200020E030E0A901C501B4010E94D11981114A
:1033300006C082E290E09093600380935F03C50132
:10334000B40109C060E070E080E89FEF04C060E075
:1033500070E080EC9FE7CDB7DEB7ECE00C944C1B3F
:1033600091110C94A41A803219F089508550C8F735
:103370000895FB01DC014150504088F08D9181346B
:103380001CF08B350CF4805E659161341CF06B355C
:103390000CF4605E861B611171F3990B0895881B14
:1033A000FCCF0E94131A08F481E00895E89409C044
:1033B00097FB3EF490958095709561957F4F8F4F68
:1033C0009F4F9923A9F0F92F96E9BB279395F6957E
:1033D000879577956795B795F111F8CFFAF4BB0FFC
:1033E00011F460FF1BC06F5F7F4F8F4F9F4F16C060
:1033F000882311F096E911C0772321F09EE8872FEA
:10340000762F05C0662371F096E8862F70E060E0A5
:103410002AF09A95660F771F881FDAF7880F96951E
:10342000879597F90895990F0008550FAA0BE0E8C2
:10343000FEEF16161706E807F907C0F01216130676
:10344000E407F50798F0621B730B840B950B39F4B6
:103450000A2661F0232B242B252B21F408950A261C
:1034600009F4A140A6958FEF811D811D08950E944A
:103470004A1A0C94BE1A0E94B01A38F00E94B71A69
:1034800020F0952311F00C94A71A0C94AD1A112476
:103490000C94F21A0E94CF1A70F3959FC1F3950F06
:1034A00050E0551F629FF001729FBB27F00DB11DC8
:1034B000639FAA27F00DB11DAA1F649F6627B00D58
:1034C000A11D661F829F2227B00DA11D621F739F41
:1034D000B00DA11D621F839FA00D611D221F749F4F
:1034E0003327A00D611D231F849F600D211D822F96
:1034F000762F6A2F11249F5750409AF0F1F08823BD
:103500004AF0EE0FFF1FBB1F661F771F881F9150E9
:103510005040A9F79E3F510580F00C94A71A0C94D7
:10352000F21A5F3FE4F3983ED4F38695779567955A
:10353000B795F795E7959F5FC1F7FE2B880F911D13
:103540009695879597F9089599278827089597F96B
:103550009F6780E870E060E008959FEF80EC089539
:1035600000240A9416161706180609060895002462
:103570000A9412161306140605060895092E0394DC
:10358000000C11F4882352F0BB0F40F4BF2B11F450
:1035900060FF04C06F5F7F4F8F4F9F4F089557FDAF
:1035A0009058440F551F59F05F3F71F04795880FB1
:1035B00097FB991F61F09F3F79F087950895121648
:1035C00013061406551FF2CF4695F1DF08C01616F4
:1035D00017061806991FF1CF8695710561050894A5
:1035E0000895E894BB2766277727CB0197F90895BC
:1035F000052E97FB1EF400940E940F1B57FD07D069
:103600000E94611B07FC03D04EF40C940F1B5095D5
:103610004095309521953F4F4F4F5F4F08959095BE
:103620008095709561957F4F8F4F9F4F08950E94B1
:10363000831BA59F900DB49F900DA49F800D911D9D
:1036400011240895B7FF0C94171B0E94171B821BAF
:10365000930B08952F923F924F925F926F927F92B9
:103660008F929F92AF92BF92CF92DF92EF92FF9292
:103670000F931F93CF93DF93CDB7DEB7CA1BDB0B3E
:103680000FB6F894DEBF0FBECDBF09942A883988E3
:1036900048885F846E847D848C849B84AA84B984EA
:1036A000C884DF80EE80FD800C811B81AA81B981F6
:1036B000CE0FD11D0FB6F894DEBF0FBECDBFED010A
:1036C0000895A1E21A2EAA1BBB1BFD010DC0AA1F63
:1036D000BB1FEE1FFF1FA217B307E407F50720F07B
:1036E000A21BB30BE40BF50B661F771F881F991FF6
:1036F0001A9469F760957095809590959B01AC013F
:10370000BD01CF010895A29FB001B39FC001A39F47
:10371000700D811D1124911DB29F700D811D11240A
:10372000911D0895991B79E004C0991F961708F020
:10373000961B881F7A95C9F780950895EE0FFF1F95
:103740000590F491E02D09945058BB27AA270E94B8
:10375000BC1B0C94BE1A0E94B01A38F00E94B71A13
:1037600020F039F49F3F19F426F40C94AD1A0EF4AE
:10377000E095E7FB0C94A71AE92F0E94CF1A58F3A3
:10378000BA17620773078407950720F079F4A6F546
:103790000C94F11A0EF4E0950B2EBA2FA02D0B010C
:1037A000B90190010C01CA01A0011124FF27591B86
:1037B00099F0593F50F4503E68F11A16F040A22F8C
:1037C000232F342F4427585FF3CF469537952795FD
:1037D000A795F0405395C9F77EF41F16BA0B620BFC
:1037E000730B840BBAF09150A1F0FF0FBB1F661F43
:1037F000771F881FC2F70EC0BA0F621F731F841F86
:1038000048F4879577956795B795F7959E3F08F0AB
:10381000B0CF9395880F08F09927EE0F979587956D
:1038200008950E94251C0C94BE1A0E94B71A58F0E5
:103830000E94B01A40F029F45F3F29F00C94A71AB7
:1038400051110C94F21A0C94AD1A0E94CF1A68F31D
:103850009923B1F3552391F3951B550BBB27AA2749
:1038600062177307840738F09F5F5F4F220F331F83
:10387000441FAA1FA9F335D00E2E3AF0E0E832D04B
:1038800091505040E695001CCAF72BD0FE2F29D04E
:10389000660F771F881FBB1F261737074807AB0720
:1038A000B0E809F0BB0B802DBF01FF2793585F4F95
:1038B0003AF09E3F510578F00C94A71A0C94F21A36
:1038C0005F3FE4F3983ED4F3869577956795B79577
:1038D000F7959F5FC9F7880F911D9695879597F982
:1038E0000895E1E0660F771F881FBB1F62177307FB
:1038F0008407BA0720F0621B730B840BBA0BEE1F10
:1039000088F7E09508950E948A1C6894B1110C9480
:10391000F21A08950E94D71A88F09F5798F0B92F8D
:103920009927B751B0F0E1F0660F771F881F991FF4
:103930001AF0BA95C9F714C0B13091F00E94F11A8B
:10394000B1E008950C94F11A672F782F8827B85F9B
:1039500039F0B93FCCF3869577956795B395D9F74C
:103960003EF490958095709561957F4F8F4F9F4F56
:1039700008950E94131A08F48FEF089519F416F4AD
:103980000C94AD1A0C94041D0E94D71AB8F3992315
:10399000C9F3B6F39F57550B87FF0E94121D0024F1
:1039A000A0E640EA900180585695979528F4805CEF
:1039B000660F771F881F20F026173707480730F457
:1039C000621B730B840B202931294A2BA69517946F
:1039D0000794202531254A2758F7660F771F881F3F
:1039E00020F026173707480730F4620B730B840B5F
:1039F000200D311D411DA09581F7B901842F9158EB
:103A0000880F9695879508959F3F31F0915020F447
:103A1000879577956795B795880F911D96958795AA
:103A200097F9089591505040660F771F881FD2F77D
:103A300008950F931F93CF93DF938230910510F475
:103A400082E090E0E0916303F091640320E030E0D5
:103A5000A0E0B0E0309719F14081518102811381DB
:103A600048175907C8F08417950769F4109731F083
:103A700012960C93129713961C9327C0009363031E
:103A80001093640322C02115310519F04217530722
:103A900018F49A01BD01EF01DF01F801DBCF211518
:103AA0003105F9F0281B390B2430310580F48A8167
:103AB0009B816115710521F0FB019383828304C012
:103AC0009093640380936303FE01329644C0FE0129
:103AD000E20FF31F81939193225031093983288398
:103AE0003AC02091610330916203232B41F420916D
:103AF0000801309109013093620320936103209102
:103B00000601309107012115310541F42DB73EB76B
:103B100040910A0150910B01241B350BE091610388
:103B2000F0916203E217F307A0F42E1B3F0B281756
:103B3000390778F0AC014E5F5F4F2417350748F026
:103B40004E0F5F1F509362034093610381939193E3
:103B500002C0E0E0F0E0CF01DF91CF911F910F9123
:103B60000895CF93DF93009709F481C0FC01329749
:103B700013821282A0916303B0916403109781F4C1
:103B800020813181820F931F209161033091620364
:103B90002817390751F5F0936203E093610367C07A
:103BA000ED0120E030E0CE17DF0740F44A815B8171
:103BB0009E0141155105F1F0EA01F5CFD383C2838F
:103BC00040815181840F951FC817D90759F4888106
:103BD0009981840F951F0296918380838A819B81AE
:103BE000938382832115310529F4F0936403E093D4
:103BF00063033DC0E901FB83EA8349915991C40FF6
:103C0000D51FEC17FD0761F480819181840F951F0A
:103C10000296E90199838883828193819B838A83B9
:103C2000E0E0F0E012968D919C911397009719F0C7
:103C3000FD01DC01F7CF8D919C9111979D012E5FC5
:103C40003F4F820F931F2091610330916203281729
:103C5000390769F4309729F41092640310926303D2
:103C600002C013821282B0936203A0936103DF91BA
:103C7000CF910895A0E0B0E0E0E4FEE10C942E1BAB
:103C8000EC01009721F4CB010E94191DB4C0FC0186
:103C9000E60FF71F9C0122503109E217F30708F4E1
:103CA000A8C0D9010D911C91119706171707B0F004
:103CB0000530110508F49BC0C801049786179707C3
:103CC00008F495C002501109061B170B01931193BC
:103CD0006D937C93CF010E94B11D89C05B01A01A36
:103CE000B10A4C01800E911EA0916303B091640350
:103CF000612C712CE12CF12C109709F446C08D91A8
:103D00009C911197A815B905B1F56C0142E0C40E5C
:103D1000D11CCA14DB0478F14C018A189B08640199
:103D200042E0C40ED11C1296BC9012971396AC912F
:103D3000B5E0CB16D10440F0B282A3839182808299
:103D4000D9016D937C9309C00E5F1F4F800F911FA7
:103D5000F90191838083EB2DFA2FE114F10431F006
:103D6000D7011396FC93EE93129741C0F09364032E
:103D7000E09363033CC06816790608F43C017D01BA
:103D800012960D90BC91A02DB7CF809161039091B8
:103D9000620388169906E1F466167706C8F48091E6
:103DA000060190910701009741F48DB79EB74091AD
:103DB0000A0150910B01841B950BE817F907C8F411
:103DC000F0936203E0936103F901718360830FC094
:103DD000CB010E94191D7C01009759F0A801BE017A
:103DE0000E94001FCE010E94B11DC70104C0CE0178
:103DF00002C080E090E0CDB7DEB7EEE00C944A1B45
:103E0000FB01DC0102C001900D9241505040D8F7F7
:103E10000895FC018191861721F08823D9F799270D
:103E200008953197CF010895FB01DC0101900D92B7
:103E30000020E1F70895FB0151915523A9F0BF013E
:103E4000DC014D9145174111E1F759F4CD01019085
:103E5000002049F04D9140154111C9F3FB0141117A
:103E6000EFCF81E090E00197089510E0C0E9D0E045
:103E700004C0FE010E949E1B2196C139D107C9F7DB
:043E8000F894FFCFE4
:103E840096000000DC420000650380000000000092
:103E940038040404CC03F102DB025604BA0286029D
:103EA40065020F02CB01000000005201BC00E900D2
:103EB4009F011A01F8000C0100000000DD04250533
:103EC4005503BA0436038D03C804AF03D2043E037A
:103ED400B5046B03BF0400004843B4055374617216
:103EE40074696E6700473100473031002D31004757
:0A3EF400323800474F000D0A0000AD
:00000001FF
