:100000000C9481000C94A9000C94A9000C94A900F4
:100010000C94A9000C94A9000C94A9000C94A900BC
:100020000C94A9000C94A9000C94A9000C94DC0475
:100030000C94A9000C94A9000C94A9000C94A9009C
:100040000C94AD000C94A9000C94AA040C948404A4
:100050000C94A9000C94A9000C94A9000C94A9007C
:100060000C94A9000C94A9004E414E494E49545994
:10007000494E46CDCCCC3D0AD7233C17B7D1387773
:10008000CC2B329595E6241FB14F0A000020410089
:1000900000C84200401C4620BCBE4CCA1B0E5AAED3
:1000A000C59D7400000000240027002A0000000005
:1000B0000800020100000304070000000000000027
:1000C00000010204081020408001020408102001F1
:1000D0000204081020000000002300260029000070
:1000E000000000250028002B00040404040404047C
:1000F0000402020202020203030303030300AB1023
:10010000A71011241FBECFEFD8E0DEBFCDBF11E096
:10011000A0E0B1E0E8E2F3E302C005900D92AC3557
:10012000B107D9F722E0ACE5B1E001C01D92A53BD3
:10013000B207E1F710E0C0E8D0E004C02197FE016B
:100140000E94F215CF37D107C9F70E945E0C0C94BC
:1001500087190C9400000E944D191F920F920FB640
:100160000F9211242F933F938F939F93AF93BF933D
:1001700080915E0190915F01A0916001B091610159
:1001800030915D0123E0230F2D3720F40196A11D4E
:10019000B11D05C026E8230F0296A11DB11D2093B5
:1001A0005D0180935E0190935F01A0936001B09325
:1001B00061018091630190916401A0916501B0910A
:1001C00066010196A11DB11D8093630190936401A6
:1001D000A0936501B0936601BF91AF919F918F91FC
:1001E0003F912F910F900FBE0F901F90189508957B
:1001F000CF92DF92EF92FF920F931F93CF93DF93F3
:100200006C017A018B01C0E0D0E0CE15DF0581F0F2
:10021000D8016D918D01D601ED91FC910190F08195
:10022000E02DC6010995892B11F02196EECF7E01B4
:10023000C701DF91CF911F910F91FF90EF90DF9059
:10024000CF90089580E090E00895FC01538D448D97
:10025000252F30E0842F90E0821B930B541710F071
:10026000CF96089501970895FC01918D828D98177E
:1002700061F0828DDF01A80FB11D5D968C91928D8A
:100280009F5F9F73928F90E008958FEF9FEF089587
:10029000FC01918D828D981731F0828DE80FF11D50
:1002A000858D90E008958FEF9FEF0895FC01918D6B
:1002B000228D892F90E0805C9F4F821B91098F7364
:1002C0009927089587E691E00E94560121E0892B45
:1002D00009F420E0822F0895FC01848DDF01A80F2E
:1002E000B11DA35ABF4F2C91848D90E001968F735E
:1002F0009927848FA689B7892C93A089B1898C917D
:10030000837080648C93938D848D981306C00288CB
:10031000F389E02D80818F7D80830895EF92FF9295
:100320000F931F93CF93DF93EC0181E0888F9B8D18
:100330008C8D981305C0E889F989808185FD26C0D8
:10034000F62E0B8D10E00F5F1F4F0F731127E02E5D
:100350008C8DE8120CC00FB607FCFACFE889F9893A
:10036000808185FFF5CFCE010E946C01F1CF8B8D8E
:10037000FE01E80FF11DE35AFF4FF0829FB7F8949A
:100380000B8FEA89FB89808180620AC09FB7F8944D
:10039000EE89FF896083E889F989808183708064B0
:1003A00080839FBF81E090E0DF91CF911F910F91FB
:1003B000FF90EF900895CF93DF93EC01888D882311
:1003C000C9F0EA89FB89808185FD05C0A889B989C2
:1003D0008C9186FD0FC00FB607FCF5CF808185FF9D
:1003E000F2CFA889B9898C9185FFEDCFCE010E940B
:1003F0006C01E7CFDF91CF91089580E090E0892BE9
:1004000029F00E94620181110C9400000895DC0122
:10041000ED91FC910280F381E02D6FE609946F70FD
:10042000DC0195962C919597207F622B95966C9385
:10043000959792962D913D914D915C919597ED9167
:10044000FC910190F081E02D6CE60994DC0194961A
:100450002C91949760FB21F994962C939497929603
:100460002D913D914D915C919597ED91FC9101906D
:10047000F081E02D6CE60994DC0193968C919397C2
:1004800060FB87F993968C93939766956170949629
:100490008C9194978E7F682B94966C9394979296F8
:1004A0002D913D914D915C919597ED91FC91119716
:1004B0000190F081E02D6CE6CD010994DC0192966B
:1004C0008C91929760FB87F992968C9392976695A0
:1004D000677093968C919397887F682B93966C9313
:1004E000939792962D913D914D915C919597ED91B9
:1004F000FC9111970190F081E02D6CE6CD010994FB
:10050000DC016770962F9295907F92966C919297EE
:100510006F78692B92966C93929792962D913D915C
:100520004D915C919597ED91FC9111970190F0811F
:10053000E02D6CE6CD01099408950E94FC0A892FF4
:100540008F7008950E94FC0A8695817008950E941C
:10055000FC0A771F7727771F8170880F872B0895F4
:100560000E94FC0A862F881F8827881F7770770FC4
:10057000872B08950E94FC0A862F82958770089524
:100580008DE58CBD81E08DBD0895CF92DF92EF9215
:10059000FF921F93CF93DF93EC0169017A01162F2D
:1005A00010688BA99CA9892B11F40E94C00260E0FD
:1005B00089A90E94040B612FCE010E947B0A898BBE
:1005C0006F2D772788279927CE010E947B0AB701D4
:1005D00088279927CE010E947B0A99278F2D7E2D8F
:1005E0006D2DCE010E947B0A6C2DCE010E947B0AEC
:1005F00011E08DA9181734F465E0CE010E94E80AD5
:100600001F5FF7CF61E089A9DF91CF911F91FF9024
:10061000EF90DF90CF900C94040BCF92DF92EF928B
:10062000FF921F93CF93DF93EC01F62E8BA99CA929
:10063000892B11F40E94C00260E089A90E94040B7A
:100640006F2DCE010E947B0A64E0CE010E94E80A71
:1006500011E08DA9181734F465E0CE010E94E80A74
:100660001F5FF7CF61E089A90E94040B60E089A9B0
:100670000E94040B80910402181734F465E0CE0147
:100680000E94E80A1F5FF6CF6F2DCE010E947B0A01
:10069000898B60E0CE010E947B0AC82ED12CE12C10
:1006A000F12CFE2CED2CDC2CCC2460E0CE010E9441
:1006B0007B0AC82AFE2CED2CDC2CCC2460E0CE0179
:1006C0000E947B0AC82AFE2CED2CDC2CCC2460E096
:1006D000CE010E947B0AC82A61E089A90E94040B0E
:1006E000C701B601DF91CF911F91FF90EF90DF908E
:1006F000CF9008951F93CF93DF93882329F081E053
:10070000682784E013E002C086E015E00E94040B35
:1007100061E0812F0E94040BCBEDD1E0CE01019767
:10072000F1F760E0812F0E94040B2197F1F7DF9130
:10073000CF911F910895CF93DF93FC0124813581E0
:10074000232B69F0C081D181062E000C770BCE01DE
:100750000E945B19009719F08C1B9D0B02C08FEF54
:100760009FEFDF91CF9108950F931F93CF93DF9366
:10077000EC0188819981009729F02A813B81261715
:10078000370788F48B016F5F7F4F0E9487180097AF
:1007900061F0998388831B830A832C813D81232BFD
:1007A00011F4FC01108281E001C080E0DF91CF9163
:1007B0001F910F910895EF92FF920F931F93CF9384
:1007C000DF93EC017B018A01BA010E94B403288106
:1007D000398181110DC02115310519F0C9010E941F
:1007E000FE17198218821D821C821B821A8206C083
:1007F0001D830C83B701C9010E946619CE01DF91E8
:10080000CF911F910F91FF90EF900895FC0180818F
:1008100091810C94FE17FC011182108213821282C6
:10082000158214826115710551F0FB0101900020C1
:10083000E9F73197AF01461B570B0C94DB03089582
:10084000BF92CF92DF92EF92FF920F931F93CF93BD
:10085000DF937C016B01EA0189012417350720F43D
:100860008D2FE901042F182F6AE571E0C7010E945E
:100870000B04D60114968D919C911597C817D90732
:10088000C0F58017910708F48C01D601ED91FC9119
:100890001197E00FF11FB08010826D917C916C0F69
:1008A0007D1F6115710561F0FB0101900020E9F7E2
:1008B0003197AF01461B570BC7010E94DB0313C0E2
:1008C000F70180819181009711F00E94FE17D701F6
:1008D00011961C921E9215961C921E9214971396B6
:1008E0001C921E921297D601ED91FC91E00FF11F20
:1008F000B082C701DF91CF911F910F91FF90EF90D0
:10090000DF90CF90BF9008951F920F920FB60F9275
:1009100011242F933F934F935F936F937F938F9304
:100920009F93AF93BF93EF93FF9387E691E00E946D
:100930006C01FF91EF91BF91AF919F918F917F914A
:100940006F915F914F913F912F910F900FBE0F903C
:100950001F9018951F920F920FB60F9211242F938C
:100960008F939F93EF93FF93E0917701F09178013C
:100970008081E0917D01F0917E0182FD12C0908125
:10098000809180018F5F8F7320918101821751F0D8
:10099000E0918001F0E0E959FE4F958F809380014E
:1009A00001C08081FF91EF919F918F912F910F90C6
:1009B0000FBE0F901F9018951F920F920FB60F92B7
:1009C00011242F933F934F935F936F937F938F9354
:1009D0009F93AF93BF93EF93FF938091620187FF43
:1009E00005C010928500109284001BC02091620106
:1009F000022E000C330B8091290290E02817390752
:100A000084F480916201082E000C990BFC01EE0F1A
:100A1000FF1F8E0F9F1FFC01EB5FFD4F808186FD46
:100A200015C0809162018F5F809362012091620105
:100A3000022E000C330B8091290290E02817390711
:100A4000C4F4809162018C3064F113C08091620122
:100A5000082E000C990BFC01EE0FFF1F8E0F9F1F3D
:100A6000FC01EB5FFD4F808160E08F730E94040BFF
:100A7000D8CF8091840090918500049680349C4961
:100A800018F480E49CE905C0809184009091850071
:100A9000049690938900809388008FEF8093620181
:100AA0003BC0209184003091850080916201082E26
:100AB000000C990BFC01EE0FFF1F8E0F9F1FFC0116
:100AC000EB5FFD4F81819281820F931F909389008C
:100AD0008093880080916201082E000C990BFC0124
:100AE000EE0FFF1F8E0F9F1FFC01EB5FFD4F8081FC
:100AF00086FF12C080916201082E000C990BFC0148
:100B0000EE0FFF1F8E0F9F1FFC01EB5FFD4F8081DB
:100B100061E08F730E94040BFF91EF91BF91AF9141
:100B20009F918F917F916F915F914F913F912F9105
:100B30000F900FBE0F901F9018952F923F924F92DB
:100B40005F926F927F928F929F92AF92BF92CF925D
:100B5000DF92EF92FF920F931F93CF93DF9300D01A
:100B600000D0CDB7DEB7811109C028E030E03A836C
:100B7000298344E650E05C834B8308C08EE090E01C
:100B80009A83898326E930E03C832B8358E8252E1D
:100B9000312C08E512E064EB462E512C612C712CAF
:100BA00080910001909101014B815C818417950730
:100BB00009F4AAC08417950714F4019601C001979F
:100BC00090930101809300018091000190910101B7
:100BD000803252E09507E4F597FD06C0853B91050C
:100BE0002CF084EB90E002C080E090E02091AD0218
:100BF0006101C21AD10827FDD394D601AA0FBB1FE9
:100C0000AA0FBB1F6D01BB0FEE08FF082091AE02BB
:100C1000A801421B510927FD53959A01220F331F4A
:100C2000220F331FA901330F660B770B9A01AB011B
:100C30002C193D094E095F09DC010E947615A301BC
:100C400092010E944C15C20ED31EE41EF51EC60171
:100C50002091AC022C3080F53091AD02A101431BF4
:100C6000510937FD5395440F551F440F551F8417E5
:100C7000950784F03091AE02B801631B710937FD0E
:100C80007395660F771F660F771FAC01681779079A
:100C90000CF4AB01CA010297880F991F4FB7F89463
:100CA00030E0F901EE0FFF1F2E0F3F1FF901EB5F40
:100CB000FD4F928381834FBF89819A814C01990FA7
:100CC000AA08BB080E94390C6B017C010E94390CF8
:100CD000DC01CB018C199D09AE09BF09883E934008
:100CE000A105B10598F391E0891A9108A108B1080E
:100CF00028EEC20E23E0D21EE11CF11C81149104E7
:100D0000A104B10419F74CCF0F900F900F900F90E2
:100D1000DF91CF911F910F91FF90EF90DF90CF90D7
:100D2000BF90AF909F908F907F906F905F904F900B
:100D30003F902F9008952F923F924F925F926F9223
:100D40007F928F929F92AF92BF92CF92DF92EF925B
:100D5000FF920F931F93CF93DF93CDB7DEB7A29788
:100D60000FB6F894DEBF0FBECDBF762E872E982E1D
:100D70009AA328A339834D83652E1701280120E00B
:100D800030E846EB54E4C801B7010E942514181658
:100D90005CF420E030E04AE754E4C601B5010E946B
:100DA000251418160CF49BC220923402309235029E
:100DB0004092360250923702A0923002B092310235
:100DC000C0923202D0923302272D382D492D5AA1DC
:100DD000C201B1010E94F8156C8B7D8B8E8B9F8BAD
:100DE00028A139814D81562DC601B5010E94F81503
:100DF000688F798F8A8F9B8F9B01AC010E948B1427
:100E00006B017C012C893D894E895F89CA01B9013A
:100E10000E948B149B01AC01C701B6010E94F91519
:100E20000E9411176E877F87888B998B80E090E0F6
:100E3000A0E2B1E48A879B87AC87BD871E821F82B0
:100E4000188619862E853F85488959896E817F814C
:100E5000888599850E94251487FF41C22A853B8594
:100E60004C855D856E857F85888999890E94F815F6
:100E70009B01AC016E817F81888599850E94061750
:100E8000181674F42E813F81488559856E857F85BB
:100E9000888999890E94F8156A877B878C879D8746
:100EA0002E853F85488959896A857B858C859D85F6
:100EB0000E9465166B017C019B01AC016C897D89E8
:100EC0008E899F890E948B14272D382D492D5AA178
:100ED0000E94F915162F272E8A8B9B8BA70196014E
:100EE000688D798D8A8D9B8D0E948B1428A1398104
:100EF0004D81562D0E94F9156C8F7D8F8E8F9F8F9F
:100F000028A139814D81562D68A179818D81962D39
:100F10000E948B146B017C01272D382D492D5AA17D
:100F2000672D782D892D9AA10E948B14A701960117
:100F30000E94F9150E94111769837A838B839C8321
:100F4000272D382D492D5AA160E070E886EB94E4F6
:100F50000E94F8159B01AC010E948B14A701960119
:100F60000E94F9150E9411172B013C012C8D3D8D1B
:100F70004E8D5F8D6C8D7D8D8E8D9F8D0E948B141F
:100F80004B015C01212F322D4A895B89612F722D23
:100F90008A899B890E948B14A50194010E94F915EE
:100FA0000E9411176B017C01212F322D4A895B8928
:100FB00060E070E886EB94E40E94F8159B01AC01B8
:100FC0000E948B14A50194010E94F9150E9411172B
:100FD0004B015C0129813A814B815C81C701B601DB
:100FE0000E94F8156B017C01A3019201C501B401B7
:100FF0000E94F8154B015C0120E030E0A901C70117
:10100000B6010E94061787FD12C020E030E0A9015A
:10101000C501B4010E94061787FF1DC020E030E023
:10102000A901C501B4010E94251487FD16C020E066
:1010300030E0A901C701B6010E94251487FF11C045
:1010400001E020E030E0A901C501B4010E940617CB
:1010500087FF08C006C001E001C000E033243394DC
:1010600002C000E0312C20E030E0A901C701B60148
:101070000E94061726013701181624F077FA70949B
:1010800077F8709420E030E0A901C501B4010E9416
:101090000617A501940118160CF05058C301B201AF
:1010A0000E94061787FD06C0802F032D382E91E081
:1010B0009D8301C01D8220E030E0A901C701B60177
:1010C0000E94061726013701181624F077FA70944B
:1010D00077F8709420E030E0A901C501B4010E94C6
:1010E000061718160CF4CDC0D501C401B058898379
:1010F0009A83AB83BC83A3019201BC01CD010E9402
:101100000617181684F420E030E0A901C701B601E3
:101110000E9406171816BCF0D701C601B058898383
:101120009A83AB83BC8320E030E0A901C701B601FC
:101130000E94061718165CF02601370177FA7094A2
:1011400077F8709406C0C982DA82EB82FC822601AD
:10115000370120E030E0A901C501B4010E94061763
:10116000181624F0B7FAB094B7F8B094A30192011E
:10117000C501B4010E94251487FF0FC020E030E0B4
:10118000A901C701B6010E940617460157011816AA
:1011900024F0B7FAB094B7F8B094209138023091A7
:1011A000390240913A0250913B02C501B4010E94BC
:1011B00065166B017C01A501940169817A818B819F
:1011C0009C810E9465162B013C0119A218A2812C5A
:1011D000912C54019D81A1E09A27998328A139A1DE
:1011E000B901330F880B990B0E942C149B01AC01A1
:1011F000C701B6010E940617181644F5602F8D81AD
:101200000E947A03A3019201C501B4010E94F9155D
:101210004B015C0120E030E040E85FE30E940617EC
:1012200087FD0EC0632D89810E947A0320E030E0A3
:1012300040E85FE3C501B4010E94F8154B015C0171
:1012400088A199A1019699A388A3C8CF2A853B8537
:101250004C855D856E817F81888599850E94F91511
:101260006E837F8388879987712E822C9A889B89C9
:101270009AA3AC8DA8A3BD8DB9832E8D2D836F8CC1
:10128000E1CDA3019201C501B4010E940617181611
:101290008CF420E030E0A901C701B6010E940617D6
:1012A00018160CF039CF26013701C982DA82EB8299
:1012B000FC825CCF20E030E0A901C701B6010E94AA
:1012C000061718163CF42601370189829A82AB82F0
:1012D000BC824CCF89829A82AB82BC822DCFA296EF
:1012E0000FB6F894DEBF0FBECDBFDF91CF911F9137
:1012F0000F91FF90EF90DF90CF90BF90AF909F90B5
:101300008F907F906F905F904F903F902F900895B7
:101310001F93CF93DF93EC012AE037ED43EA5CE3C0
:1013200069857A858B859C850E94F9152AE23DE6C0
:101330004DEF51E40E948B1426E636E646EA5EE362
:101340000E94651620E030E040E85FE30E94F81557
:101350000E94D716162F603120F561E0CE010E9461
:1013600026022AE037ED43EA5CE369857A858B85BE
:101370009C850E94F9152AE23DE64DEF51E40E945A
:101380008B142CEE31E548E35EE30E94651620E005
:1013900030E040E85FE30E94F8150E94D716162F50
:1013A00004C060E0CE010E942602103208F01FE166
:1013B000912F9F718B81807E892B8B832A81382F7F
:1013C0008C81482F4F7050E060E1CE010E94C50231
:1013D000612F70E080E090E00E942C142D853E8506
:1013E0004F8558890E948B140E94D7166F718A818D
:1013F000807E682B6A83262F3B818C81482F4F701B
:1014000050E060E1CE01DF91CF911F910C94C502B5
:1014100042E050E068E571E087E691E00C94F80066
:10142000FC0180819181009711F00C94761260E0AC
:1014300070E0CB010895FC0180819181009711F04B
:101440000C947A1260E070E0CB0108950F931F9323
:10145000CF93DF938C01EB01FC0180819181009798
:10146000B1F0688179816115710579F0428153810C
:101470002C813D814217530740F00E9466198C81F0
:101480009D81F8019583848313C00E94FE17888193
:101490009981F801918380838A819B8193838283E0
:1014A0008C819D8195838483198218821B821A8284
:1014B0001D821C82DF91CF911F910F910895CF93D0
:1014C000DF9320912E0230912F02232B79F0FC0123
:1014D000C0912A02D0912B0260817181CE010E94BD
:1014E0006D19009719F08C1B9D0B02C08FEF9FEFB9
:1014F000DF91CF910895CF93DF93DC01D396ED91E7
:10150000FC91D497309709F45AC0A585B6859C9173
:101510008085809589238C9327E030E080E0C62F7A
:10152000D0E0722FA185B2859681AE01022E02C055
:10153000559547950A94E2F740FF03C04C91942BD0
:1015400003C04C91909594239C93A585B6854C91AE
:101550009085942B9C93A385B4854C91978194237B
:1015600041E050E011F440E050E001C0440F7A95B2
:10157000EAF7842BA585B6854C91908590959423A8
:101580009C932150310969F6A185B28596812C91F1
:1015900060FF02C0922B02C0909592239C93A58578
:1015A000B6852C919085922B9C93A385B4852C9124
:1015B0009781922321E009F420E0822B06C06EBDC2
:1015C00000000DB407FEFDCF8EB5DF91CF910895D9
:1015D0000F931F93CF93DF938C01D62FC0E0CD17CD
:1015E00031F060E0C8010E947B0ACF5FF8CFDF9145
:1015F000CF911F910F910895DC01ED91FC91028034
:10160000F381E02D6CE6099490E0FC01E355FF4F77
:101610002491FC01EF53FF4F3491FC01E751FF4F40
:10162000E491EE2309F43CC0222339F1233091F0F8
:1016300038F42130A9F0223001F584B58F7D12C035
:10164000273091F02830A1F02430B9F48091800047
:101650008F7D03C0809180008F77809380000DC0C4
:1016600084B58F7784BD09C08091B0008F7703C0A7
:101670008091B0008F7D8093B000F0E0EE0FFF1FEF
:10168000E152FF4FA591B4919FB7F894611104C046
:101690008C913095382302C0EC913E2B3C939FBF38
:1016A0000895CF93DF9390E0FC01EF53FF4F249117
:1016B000FC01E751FF4F8491882361F190E0880F8E
:1016C000991FFC01ED55FF4FC591D491FC01E152EA
:1016D000FF4FA591B491611109C09FB7F89488811B
:1016E000209582238883EC912E230BC0623061F415
:1016F0009FB7F8948881322F309583238883EC91AB
:101700002E2B2C939FBF06C08FB7F894E8812E2B09
:1017100028838FBFDF91CF9108950F931F93CF93AD
:10172000DF93EC0161E089A90E94510B61E089A976
:101730000E94040B0BA91CA90115110509F456C040
:1017400061E0F80180810E94510B61E0F801848121
:101750000E94510B62E0F80182810E94510BF80156
:1017600040815181FA01E751FF4FE491F0E0EE0F23
:10177000FF1FE152FF4F85919491F8019287818775
:1017800022813381F901E751FF4FE491F0E0EE0F40
:10179000FF1FEB52FF4F85919491F8019487838747
:1017A00084819581FC01E751FF4FE491F0E0EE0F59
:1017B000FF1FE152FF4FA591B491F801B687A587AD
:1017C000FA01EF53FF4F4491F8014683F901EF53BB
:1017D000FF4F2491F8012783FC01EF53FF4F9491B1
:1017E000F80190878C91E92FE82BEC932A893B89AB
:1017F0008C89482F437050E060E0CE010E94C50202
:101800002AA13BA14CA15DA16CE6CE010E94C502BC
:101810002EA13FA148A559A551706DE6CE010E94A9
:10182000C5022DA53EA58FA5482F4F7350E060E758
:10183000CE010E94C5022A813B818C81482F4F70C6
:1018400050E060E1CE010E94C5028AA1807F8860DD
:101850008AA32AA13BA14CA15DA16CE6CE010E9406
:10186000C50261E0CE01DF91CF911F910F910C94E1
:101870003C023FB7F8948091630190916401A0917C
:101880006501B091660126B5A89B05C02F3F19F0F0
:101890000196A11DB11D3FBFBA2FA92F982F8827F0
:1018A000820F911DA11DB11DBC01CD0142E0660F4B
:1018B000771F881F991F4A95D1F70895CF93DF931B
:1018C000CDB7DEB7AA970FB6F894DEBF0FBECDBF77
:1018D000789484B5826084BD84B5816084BD85B50B
:1018E000826085BD85B5816085BD80916E00816017
:1018F00080936E00109281008091810082608093BD
:1019000081008091810081608093810080918000BE
:101910008160809380008091B10084608093B100E9
:101920008091B00081608093B00080917A008460E3
:1019300080937A0080917A00826080937A0080910F
:101940007A00816080937A0080917A008068809329
:101950007A001092C100E0917701F091780182E065
:101960008083E0917301F09174011082E091750120
:10197000F09176018FEC808310927F01E0917B01E2
:10198000F0917C0186E08083E0917901F0917A0109
:10199000808180618083E0917901F0917A0180817A
:1019A00088608083E0917901F0917A01808180687C
:1019B0008083E0917901F0917A0180818F7D80832D
:1019C0008091AC028C3008F051C061E08AE00E9446
:1019D000510B8091AC02E82FF0E09F01220F331FE2
:1019E000E20FF31FEB5FFD4F9081907C9A60908334
:1019F0001092AD021092AE026CE00E94E6152CE04F
:101A0000829FB001112440E050E09B01240F351F5C
:101A1000F901EE0FFF1F2E0F3F1FF901EB5FFD4F86
:101A2000908196FD16C04F5F5F4F4C30510569F7AE
:101A300081110FC01092800082E08093810010928B
:101A4000850010928400B19A80916F00826080932B
:101A50006F00E091AC02F0E0CF01880F991FE80F12
:101A6000F91FEB5FFD4F80818064808348E050E088
:101A70006EE371E087E691E00E94F8000E94080A98
:101A800080E00E949D0561E083E00E94510B61E0CF
:101A900084E00E94510B61E085E00E94510B61E0FF
:101AA00086E00E94510B61E082E00E94510B60E0F1
:101AB00082E00E94040B1FB7F89480915C018111B1
:101AC00027C0E3EFF0E08491EBECF0E09491E82F95
:101AD000F0E0EE0FFF1FED55FF4FA591B491EC9193
:101AE000E92321F461E08AE00E94040B61E08AE0CE
:101AF0000E94510B8CB580618CBD8CB580648CBD0F
:101B000061E08DE00E94510B61E08BE00E94510B7F
:101B100080915C018F5F80935C011FBF86E792E03C
:101B20000E948D0B86E792E00E94880964E086E7B8
:101B300092E00E940F028091880284608093880264
:101B4000282F3091890280918A02482F437050E0FB
:101B500060E086E792E00E94C5028091A502846061
:101B60008093A5022091A3023091A402482F4F73C5
:101B700050E060E786E792E00E94C50280E492E0D0
:101B80000E948D0B80E492E00E94880964E080E46A
:101B900092E00E940F028091520284608093520270
:101BA000282F3091530280915402482F437050E007
:101BB00060E080E492E00E94C50280916F02846040
:101BC00080936F0220916D0230916E02482F4F7307
:101BD00050E060E780E492E00E94C50287E691E071
:101BE0000E945601181619060CF0B3C187E691E061
:101BF0000E9434018A3009F089C167E471E0CE01A6
:101C000001960E940B04CE0101960E945F0A019684
:101C100099F46AE471E0CE0107960E940B04CE01AC
:101C200007960E945F0A11E0019609F410E0CE01C8
:101C300007960E94060401C011E0CE0101960E94A1
:101C40000604112309F41DC16EE471E0CE0149962A
:101C50000E940B046EE471E0CE0143960E940B04D7
:101C60006EE471E0CE010D960E940B0468E58AE2F5
:101C700092E00E949B038F3F5FEF950709F44EC0EF
:101C80009C012E5F3F4FAC014F5F5F4F6AE272E0F5
:101C9000CE0107960E94200460E2CE0107960E94C2
:101CA0009B036C0168E58AE292E00E949B03960127
:101CB000281B390B2F5F3F4FAC014F5F5F4F6AE22C
:101CC00072E0CE0101960E942004BE016F5F7F4F3B
:101CD000CE0149960E94260ACE0101960E94060472
:101CE000CE0107960E94060460E2CE0149960E944A
:101CF0009B039C0140E050E0BE01675E7F4FCE0138
:101D000001960E942004BE016F5F7F4FCE0149966D
:101D10000E94260ACE0101960E94060469E58AE225
:101D200092E00E949B038F3FAFEF9A0709F44AC0ED
:101D30009C012E5F3F4FAC014F5F5F4F6AE272E044
:101D4000CE0107960E94200460E2CE0107960E9411
:101D50009B038C0169E58AE292E00E949B03AC013F
:101D60004F5F5F4F98016AE272E0CE0101960E94D8
:101D70002004BE016F5F7F4FCE0143960E94260A6A
:101D8000CE0101960E940604CE0107960E94060429
:101D900060E2CE0143960E949B039C0140E050E02C
:101DA000BE016D5E7F4FCE0101960E942004BE01F0
:101DB0006F5F7F4FCE0143960E94260ACE010196A7
:101DC0000E9406046AE58AE292E00E949B038F3F2C
:101DD000BFEF9B0709F44AC09C012E5F3F4FAC0147
:101DE0004F5F5F4F6AE272E0CE0107960E942004C7
:101DF00060E2CE0107960E949B038C016AE58AE2AD
:101E000092E00E949B03AC014F5F5F4F98016AE232
:101E100072E0CE0101960E942004BE016F5F7F4FE9
:101E2000CE010D960E94260ACE0101960E9406045C
:101E3000CE0107960E94060460E2CE010D960E9434
:101E40009B039C0140E050E0BE01635F7F4FCE01E9
:101E500001960E942004BE016F5F7F4FCE010D9658
:101E60000E94260ACE0101960E940604CE010D961C
:101E70000E941B0A623071058105910508F46CC04F
:101E800085C061E571E0CE0101960E940B04CE0190
:101E900001960E945F0A8C01CE0101960E94060401
:101EA0000F3F1F4F01F1E0903C02F0903D02009186
:101EB0003E0210913F022091300230913102409158
:101EC0003202509133026091340270913502809158
:101ED000360290913702A12CB12CE8E4CE2EE3E437
:101EE000DE2E0E949B0640E050E06AE571E08AE247
:101EF00092E00E94DB0342E050E065E571E087E696
:101F000091E00E94F8000E94080A23C089831A8287
:101F1000C0902E02D0902F023FEFC31AD30AB60111
:101F20008AE292E00E94B403882399F020912A0269
:101F300030912B0280912E0290912F02BE016F5F93
:101F40007F4F820F931F0E946619D0922F02C0927A
:101F50002E020E94FD0142CECE0149960E94100A37
:101F600020E030E040E85FEB0E942514882309F46C
:101F700095C0CE0143960E94100A20E030E040E870
:101F80005FEB0E942514811146C088C0CE0149969E
:101F90000E94100A20E030E040E85FEB0E94251428
:101FA000882309F489C0CE0143960E94100A20E0DC
:101FB00030E040E85FEB0E942514882309F47CC0E0
:101FC000CE0143960E94100A5B016C01CE01499636
:101FD0000E94100A7B018C01209130023091310265
:101FE0004091320250913302609134027091350277
:101FF00080913602909137020E949B06CE010D9689
:102000000E940604CE0143960E940604CE01499622
:102010000E94060468CFCE010D960E941B0A6F8FA6
:1020200078A389A39AA3CE0143960E94100A5B016C
:102030006C01CE0149960E94100A2B013C0180914F
:10204000300290913102A0913202B09133028BA301
:102050009CA3ADA3BEA320913402309135024091E0
:102060003602509137022FA338A749A75AA781E01B
:102070002F8D38A149A15AA1232B242B252B09F000
:1020800080E00E949D05830172012BA13CA14DA11E
:102090005EA16FA178A589A59AA5AECFCE010D96B8
:1020A0000E941B0A21E0672B682B692B09F020E0B6
:1020B000822F0E949D05A2CFCE0149960E94100A50
:1020C00020E030E040E85FEB0E9425148823C9F04F
:1020D000CE0149960E94100A7B018C0120913002AA
:1020E00030913102409132025091330260913402BA
:1020F00070913502809136029091370259016A0140
:102100007BCFCE0143960E94100A20E030E040E8E9
:102110005FEB0E942514882309F470CFCE0143960B
:102120000E94100A5B016C016091340270913502CB
:102130008091360290913702209130023091310225
:1021400040913202509133027B018C0155CF8AE2DB
:1021500092E00C94060410926A011092690188EED4
:1021600093E0A0E0B0E080936B0190936C01A093AA
:102170006D01B0936E018CE091E0909368018093C3
:10218000670185EC90E0909374018093730184EC77
:1021900090E0909376018093750180EC90E09093AD
:1021A00078018093770181EC90E090937A0180939D
:1021B000790182EC90E090937C0180937B0186EC26
:1021C00090E090937E0180937D01109280011092A7
:1021D00081011092820110928301809129028C303A
:1021E000A0F491E0980F909329028093AC0290E0C4
:1021F000FC01EE0FFF1F8E0F9F1FFC01EB5FFD4FD9
:1022000088EB9BE09283818303C08FEF8093AC02C5
:10221000109278021092790280917A02807F8093E6
:102220007A0210927B0210927C0210927D028091C1
:102230007E02807F80937E028EEA97E4A1EEBDE36A
:1022400080937F0290938002A0938102B0938202D8
:1022500080E090E0A0E0BFE380938302909384024B
:10226000A0938502B09386028EE191E0909377026D
:1022700080937602109288021092890280918A02DD
:102280008C7F80938A0210928B0210928C02809134
:102290008D02807F80938D0210928E0210928F02A9
:1022A00080919002807F8093900210929102109210
:1022B000920210929302809194028E7F80939402F6
:1022C00010929502109296028091970280788093E6
:1022D0009702109298021092990210929A0210920C
:1022E0009B0210929C0210929D0210929E0280917D
:1022F0009F028E7F80939F021092A0021092A102F3
:102300001092A2028091A6028C7F8093A60287E0A1
:1023100090E09093A8028093A7021092AA021092D4
:10232000A9029FEF9093AB0280E88093A30284E020
:102330008093A4028091A502807C85608093A50291
:10234000809104028F3F14F4909304021092420291
:102350001092430280914402807F80934402109245
:102360004502109246021092470280914802807FF7
:10237000809348028EEA97E4A1EEBDE38093490280
:1023800090934A02A0934B02B0934C0280E090E0FD
:10239000A0E0BFE380934D0290934E02A0934F02C2
:1023A000B09350028EE191E09093410280934002FD
:1023B0001092520210925302809154028C7F8093AB
:1023C0005402109255021092560280915702807F5B
:1023D00080935702109258021092590280915A022B
:1023E000807F80935A0210925B0210925C021092DE
:1023F0005D0280915E028E7F80935E0210925F028A
:102400001092600280916102807880936102109244
:10241000620210926302109264021092650210929E
:1024200066021092670210926802809169028E7FA4
:102430008093690210926A0210926B0210926C02F1
:10244000809170028C7F8093700288E090E090937E
:1024500072028093710210927402109273029FEFC5
:102460009093750280E880936D0284E080936E0201
:1024700080916F02807C856080936F02809104025E
:102480008F3F14F49093040280E090E8A6E3B4E454
:1024900080933C0290933D02A0933E02B0933F0292
:1024A0004CE156EA6CE47CE34093380250933902E5
:1024B00060933A0270933B0280933402909335020A
:1024C000A0933602B093370280E090E0A8E4B3E432
:1024D0008093300290933102A0933202B093330282
:1024E0006AE571E08AE292E00C940B046627772794
:1024F0000C94B6121F93FC0199278827BC01E8941D
:1025000011911032E9F3193010F01E30C8F31B326C
:1025100051F01D3249F4689406C00E94A112610F67
:10252000711D811D911D119110531A30B0F33EF4AD
:1025300090958095709561957F4F8F4F9F4F1F911C
:102540000895592F482F372F262F660F771F881F82
:10255000991F660F771F881F991F620F731F841FB3
:10256000951F660F771F881F991F0895A0E0B0E0A0
:10257000ECEBF2E10C948415EC016B016115710533
:1025800019F0FB01918380837E01FFEFEF1AFF0AB0
:102590000881802F90E00E940414892B11F0E7013C
:1025A000F3CF0D3239F47E0182E0E80EF11C09818F
:1025B00011E008C00B3229F47E0192E0E90EF11C13
:1025C000098110E0E701219743E050E060E770E007
:1025D000CE010E940D14892BC1F4239645E050E0F2
:1025E0006BE670E0CE010E940D14892B09F425964C
:1025F000C114D10419F0F601D183C0831111F6C0C2
:1026000060E070E080E89FE7FAC043E050E068E6F1
:1026100070E0CE010E940D14892B59F4C114D1042D
:1026200009F4E9C0F2E0EF0EF11CF601F182E0825C
:10263000E2C020E030E0A901C0E0D0E0F70180ED89
:10264000A82EA00E89E08A1530F1912F9260B92E44
:10265000812F887012FF04C0811124C0219622C0EE
:1026600081112197A5E0B0E00E946B15DC01CB0140
:10267000880F991FAA1FBB1F9C01AD012A0D311D98
:10268000411D511D283989E93807480789E1580754
:1026900048F0166006C09EEFA9120AC013FD40C0A4
:1026A0001860B12E8FEFE81AF80A00811B2DC6CFF3
:1026B000802F8F7D8534A1F580818D3211F41061DA
:1026C00006C08B3221F0319661E070E004C0818158
:1026D000329662E070E080538A3018F0E61BF70B08
:1026E0001FC060E070E060389CE079075CF4DB01BB
:1026F000AA0FBB1FAA0FBB1F6A0F7B1F660F771F96
:10270000680F711D3196DF0111978C9180538A30CB
:1027100050F314FF03C0719561957109C60FD71F5F
:1027200011FF08C0C114D10429F0CF010197F601AF
:1027300091838083CA01B9010E942A14212F23703A
:10274000233019F04B015C0106C04B015C01B7FA64
:10275000B094B7F8B09420E030E0A901C501B4010D
:102760000E942514882309F43EC0D7FF06C0D195E6
:10277000C195D10907E810E002C00FE910E0680137
:10278000F8E1CF1AD10890E2E92EF12CCE15DF0541
:1027900074F0F8012591359145915491C501B4012A
:1027A0000E948B144B015C01CE19DF09EFCF04505E
:1027B0001109F594E7940C151D0541F78A2D880F32
:1027C0008B2D881F8F3F49F020E030E0A901C50123
:1027D000B4010E942514811106C082E290E090931A
:1027E000B0028093AF02C501B40109C060E070E09F
:1027F00080E89FEF04C060E070E080EC9FE7CDB719
:10280000DEB7ECE00C94A01591110C94F814803212
:1028100019F089508550C8F70895FB01DC0141503B
:10282000504088F08D9181341CF08B350CF4805E23
:10283000659161341CF06B350CF4605E861B611190
:1028400071F3990B0895881BFCCF0E94671408F45C
:1028500081E00895E89409C097FB3EF49095809537
:10286000709561957F4F8F4F9F4F9923A9F0F92F56
:1028700096E9BB279395F695879577956795B795D4
:10288000F111F8CFFAF4BB0F11F460FF1BC06F5FBA
:102890007F4F8F4F9F4F16C0882311F096E911C0CC
:1028A000772321F09EE8872F762F05C0662371F0ED
:1028B00096E8862F70E060E02AF09A95660F771F01
:1028C000881FDAF7880F9695879597F90895990FDD
:1028D0000008550FAA0BE0E8FEEF16161706E807EA
:1028E000F907C0F012161306E407F50798F0621B0B
:1028F000730B840B950B39F40A2661F0232B242BE0
:10290000252B21F408950A2609F4A140A6958FEFFE
:10291000811D811D08950E949E140C9412150E9421
:10292000041538F00E940B1520F0952311F00C943B
:10293000FB140C94011511240C9446150E942315C8
:1029400070F3959FC1F3950F50E0551F629FF00102
:10295000729FBB27F00DB11D639FAA27F00DB11D1B
:10296000AA1F649F6627B00DA11D661F829F2227A4
:10297000B00DA11D621F739FB00DA11D621F839F2B
:10298000A00D611D221F749F3327A00D611D231F01
:10299000849F600D211D822F762F6A2F11249F574F
:1029A00050409AF0F1F088234AF0EE0FFF1FBB1F52
:1029B000661F771F881F91505040A9F79E3F510511
:1029C00080F00C94FB140C9446155F3FE4F3983EA2
:1029D000D4F3869577956795B795F795E7959F5FBB
:1029E000C1F7FE2B880F911D9695879597F908954D
:1029F00099278827089597F99F6780E870E060E03D
:102A000008959FEF80EC089500240A941616170687
:102A100018060906089500240A94121613061406CF
:102A200005060895092E0394000C11F4882352F032
:102A3000BB0F40F4BF2B11F460FF04C06F5F7F4FEA
:102A40008F4F9F4F089557FD9058440F551F59F0D1
:102A50005F3F71F04795880F97FB991F61F09F3F8B
:102A600079F087950895121613061406551FF2CFB4
:102A70004695F1DF08C0161617061806991FF1CF04
:102A800086957105610508940895E894BB2766272B
:102A90007727CB0197F90895052E97FB1EF4009434
:102AA0000E94631557FD07D00E94B51507FC03D09F
:102AB0004EF40C94631550954095309521953F4FF9
:102AC0004F4F5F4F089590958095709561957F4F1A
:102AD0008F4F9F4F08950E94D715A59F900DB49FCB
:102AE000900DA49F800D911D11240895B7FF0C94A3
:102AF0006B150E946B15821B930B08952F923F92CA
:102B00004F925F926F927F928F929F92AF92BF92FD
:102B1000CF92DF92EF92FF920F931F93CF93DF93A9
:102B2000CDB7DEB7CA1BDB0B0FB6F894DEBF0FBE06
:102B3000CDBF09942A88398848885F846E847D8453
:102B40008C849B84AA84B984C884DF80EE80FD8055
:102B50000C811B81AA81B981CE0FD11D0FB6F894CB
:102B6000DEBF0FBECDBFED010895A1E21A2EAA1B54
:102B7000BB1BFD010DC0AA1FBB1FEE1FFF1FA2172D
:102B8000B307E407F50720F0A21BB30BE40BF50B2A
:102B9000661F771F881F991F1A9469F760957095B3
:102BA000809590959B01AC01BD01CF010895A29F36
:102BB000B001B39FC001A39F700D811D1124911D11
:102BC000B29F700D811D1124911D0895991B79E00C
:102BD00004C0991F961708F0961B881F7A95C9F7AD
:102BE00080950895EE0FFF1F0590F491E02D099454
:102BF0005058BB27AA270E9410160C9412150E9449
:102C0000041538F00E940B1520F039F49F3F19F499
:102C100026F40C9401150EF4E095E7FB0C94FB14DC
:102C2000E92F0E94231558F3BA1762077307840728
:102C3000950720F079F4A6F50C9445150EF4E0956F
:102C40000B2EBA2FA02D0B01B90190010C01CA0166
:102C5000A0011124FF27591B99F0593F50F4503E11
:102C600068F11A16F040A22F232F342F4427585F03
:102C7000F3CF469537952795A795F0405395C9F71B
:102C80007EF41F16BA0B620B730B840BBAF09150D3
:102C9000A1F0FF0FBB1F661F771F881FC2F70EC072
:102CA000BA0F621F731F841F48F487957795679545
:102CB000B795F7959E3F08F0B0CF9395880F08F031
:102CC0009927EE0F9795879508950E9479160C9491
:102CD00012150E940B1558F00E94041540F029F4BB
:102CE0005F3F29F00C94FB1451110C9446150C9481
:102CF00001150E94231568F39923B1F3552391F32D
:102D0000951B550BBB27AA2762177307840738F05A
:102D10009F5F5F4F220F331F441FAA1FA9F335D0B7
:102D20000E2E3AF0E0E832D091505040E695001C6B
:102D3000CAF72BD0FE2F29D0660F771F881FBB1F25
:102D4000261737074807AB07B0E809F0BB0B802D03
:102D5000BF01FF2793585F4F3AF09E3F510578F02F
:102D60000C94FB140C9446155F3FE4F3983ED4F3A7
:102D7000869577956795B795F7959F5FC9F7880F03
:102D8000911D9695879597F90895E1E0660F771F55
:102D9000881FBB1F621773078407BA0720F0621BE6
:102DA000730B840BBA0BEE1F88F7E09508950E9411
:102DB0002B1588F09F5798F0B92F9927B751B0F08D
:102DC000E1F0660F771F881F991F1AF0BA95C9F7AF
:102DD00014C0B13091F00E944515B1E008950C94F3
:102DE0004515672F782F8827B85F39F0B93FCCF3A6
:102DF000869577956795B395D9F73EF4909580952C
:102E0000709561957F4F8F4F9F4F08950E94671473
:102E100008F48FEF089519F416F40C9401150C942E
:102E200051170E942B15B8F39923C9F3B6F39F5796
:102E3000550B87FF0E945F170024A0E640EA90012F
:102E400080585695979528F4805C660F771F881FE9
:102E500020F026173707480730F4621B730B840BEA
:102E6000202931294A2BA69517940794202531252E
:102E70004A2758F7660F771F881F20F02617370755
:102E8000480730F4620B730B840B200D311D411D7C
:102E9000A09581F7B901842F9158880F9695879551
:102EA00008959F3F31F0915020F48795779567956D
:102EB000B795880F911D9695879597F9089591502C
:102EC0005040660F771F881FD2F708950F931F9306
:102ED000CF93DF938230910510F482E090E0E0918F
:102EE000B302F091B40220E030E0A0E0B0E030970F
:102EF00019F1408151810281138148175907C8F0A7
:102F00008417950769F4109731F012960C93129775
:102F100013961C9327C00093B3021093B40222C0EF
:102F20002115310519F04217530718F49A01BD0114
:102F3000EF01DF01F801DBCF21153105F9F0281B86
:102F4000390B2430310580F48A819B81611571052C
:102F500021F0FB019383828304C09093B402809399
:102F6000B302FE01329644C0FE01E20FF31F8193CB
:102F7000919322503109398328833AC02091B102BC
:102F80003091B202232B41F42091040130910501CC
:102F90003093B2022093B1022091020130910301DB
:102FA0002115310541F42DB73EB7409106015091EE
:102FB0000701241B350BE091B102F091B202E21738
:102FC000F307A0F42E1B3F0B2817390778F0AC014C
:102FD0004E5F5F4F2417350748F04E0F5F1F509329
:102FE000B2024093B1028193919302C0E0E0F0E01D
:102FF000CF01DF91CF911F910F910895CF93DF9370
:10300000009709F481C0FC01329713821282A091CB
:10301000B302B091B402109781F420813181820F04
:10302000931F2091B1023091B2022817390751F550
:10303000F093B202E093B10267C0ED0120E030E00E
:10304000CE17DF0740F44A815B819E01411551058F
:10305000F1F0EA01F5CFD383C28340815181840F1F
:10306000951FC817D90759F488819981840F951F36
:103070000296918380838A819B8193838283211529
:10308000310529F4F093B402E093B3023DC0E901A5
:10309000FB83EA8349915991C40FD51FEC17FD07B3
:1030A00061F480819181840F951F0296E9019983D3
:1030B0008883828193819B838A83E0E0F0E012968B
:1030C0008D919C911397009719F0FD01DC01F7CFCA
:1030D0008D919C9111979D012E5F3F4F820F931F01
:1030E0002091B1023091B2022817390769F4309764
:1030F00029F41092B4021092B30202C01382128219
:10310000B093B202A093B102DF91CF910895A0E0F5
:10311000B0E0EDE8F8E10C948215EC01009721F4A1
:10312000CB010E946617B4C0FC01E60FF71F9C019B
:1031300022503109E217F30708F4A8C0D9010D9114
:103140001C91119706171707B0F00530110508F408
:103150009BC0C80104978617970708F495C00250D2
:103160001109061B170B019311936D937C93CF01EB
:103170000E94FE1789C05B01A01AB10A4C01800EA3
:10318000911EA091B302B091B402612C712CE12C7C
:10319000F12C109709F446C08D919C911197A815B8
:1031A000B905B1F56C0142E0C40ED11CCA14DB04B0
:1031B00078F14C018A189B08640142E0C40ED11CCE
:1031C0001296BC9012971396AC91B5E0CB16D10431
:1031D00040F0B282A38391828082D9016D937C9367
:1031E00009C00E5F1F4F800F911FF90191838083EB
:1031F000EB2DFA2FE114F10431F0D7011396FC9373
:10320000EE93129741C0F093B402E093B3023CC036
:103210006816790608F43C017D0112960D90BC9168
:10322000A02DB7CF8091B1029091B2028816990675
:10323000E1F466167706C8F48091020190910301CB
:10324000009741F48DB79EB7409106015091070158
:10325000841B950BE817F907C8F4F093B202E093CA
:10326000B102F901718360830FC0CB010E94661720
:103270007C01009759F0A801BE010E945219CE01AD
:103280000E94FE17C70104C0CE0102C080E090E09A
:10329000CDB7DEB7EEE00C949E1581E090E0F89497
:1032A0000C948719FB01DC0102C001900D92415082
:1032B0005040D8F70895FC018191861721F08823AA
:1032C000D9F7992708953197CF010895FB01DC01C3
:1032D00001900D920020E1F70895FB0151915523D3
:1032E000A9F0BF01DC014D9145174111E1F759F4F7
:1032F000CD010190002049F04D9140154111C9F3D5
:10330000FB014111EFCF81E090E00197089510E0BB
:10331000C0E8D0E004C0FE010E94F2152196C13839
:08332000D107C9F7F894FFCFB3
:1033280096000000B5028000000000008E01F80041
:103338002501DB0156013401480100000000C502E7
:103348000D032602A20207025E02B0028002BA0240
:103358000F029D023C02A70200004843B4055374C3
:10336800617274696E6700473100473031002D3152
:0C3378000047323800474F000D0A0000EB
:00000001FF
