:100000000C9481000C94A9000C94A9000C94A900F4
:100010000C94A9000C94A9000C94A9000C94A900BC
:100020000C94A9000C94A9000C94A9000C948704CA
:100030000C94A9000C94A9000C94A9000C94A9009C
:100040000C94730E0C94A9000C9455040C942F047A
:100050000C94A9000C94A9000C94A9000C94A9007C
:100060000C94A9000C94A9004E414E494E49545994
:10007000494E46CDCCCC3D0AD7233C17B7D1387773
:10008000CC2B329595E6241FB14F0A000020410089
:1000900000C84200401C4620BCBE4CCA1B0E5AAED3
:1000A000C59D74010204081020408001020408105C
:1000B000200102040810200000000023002600296F
:1000C0000000000000250028002B000404040404A4
:1000D00004040402020202020203030303030300F6
:1000E000000000240027002A000000000800020190
:1000F00000000304070000000000000000001214CC
:100100000E1411241FBECFEFD8E0DEBFCDBF11E02B
:10011000A0E0B1E0E6EFF9E302C005900D92A2384D
:10012000B107D9F722E0A2E8B1E001C01D92A53ED7
:10013000B207E1F710E0C0E8D0E004C02197FE016B
:100140000E945919CF37D107C9F70E94BD0E0C94F0
:10015000EE1C0C9400000895CF92DF92EF92FF9274
:100160000F931F93CF93DF936C017A018B01C0E053
:10017000D0E0CE15DF0581F0D8016D918D01D6015B
:10018000ED91FC910190F081E02DC6010995892B3C
:1001900011F02196EECF7E01C701DF91CF911F9123
:1001A0000F91FF90EF90DF90CF90089580E090E066
:1001B0000895FC01538D448D252F30E0842F90E06D
:1001C000821B930B541710F0CF9608950197089552
:1001D000FC01918D828D981761F0828DDF01A80F4F
:1001E000B11D5D968C91928D9F5F9F73928F90E071
:1001F00008958FEF9FEF0895FC01918D828D9817E0
:1002000031F0828DE80FF11D858D90E008958FEF1C
:100210009FEF0895FC01918D228D892F90E0805CE5
:100220009F4F821B91098F73992708958EE891E063
:100230000E940A0121E0892B09F420E0822F089511
:10024000FC01848DDF01A80FB11DA35ABF4F2C9173
:10025000848D90E001968F739927848FA689B78942
:100260002C93A089B1898C91837080648C93938D39
:10027000848D981306C00288F389E02D80818F7DDC
:1002800080830895EF92FF920F931F93CF93DF9394
:10029000EC0181E0888F9B8D8C8D981305C0E889D7
:1002A000F989808185FD26C0F62E0B8D10E00F5F49
:1002B0001F4F0F731127E02E8C8DE8120CC00FB664
:1002C00007FCFACFE889F989808185FFF5CFCE0157
:1002D0000E942001F1CF8B8DFE01E80FF11DE35A42
:1002E000FF4FF0829FB7F8940B8FEA89FB898081DA
:1002F00080620AC09FB7F894EE89FF896083E8891D
:10030000F98980818370806480839FBF81E090E061
:10031000DF91CF911F910F91FF90EF900895CF93B0
:10032000DF93EC01888D8823C9F0EA89FB898081FD
:1003300085FD05C0A889B9898C9186FD0FC00FB6CF
:1003400007FCF5CF808185FFF2CFA889B9898C9110
:1003500085FFEDCFCE010E942001E7CFDF91CF9145
:10036000089580E090E0892B29F00E941601811108
:100370000C9400000895DC01ED91FC910280F38162
:10038000E02D6FE609946F70DC0195962C9195979E
:10039000207F622B95966C93959792962D913D9127
:1003A0004D915C919597ED91FC910190F081E02D3C
:1003B0006CE60994DC0194962C91949760FB21F9EA
:1003C00094962C93949792962D913D914D915C919A
:1003D0009597ED91FC910190F081E02D6CE60994E8
:1003E000DC0193968C91939760FB87F993968C939D
:1003F00093976695617094968C9194978E7F682BF5
:1004000094966C93949792962D913D914D915C9119
:100410009597ED91FC9111970190F081E02D6CE69C
:10042000CD010994DC0192968C91929760FB87F93B
:1004300092968C9392976695677093968C9193970A
:10044000887F682B93966C93939792962D913D910C
:100450004D915C919597ED91FC9111970190F081F0
:10046000E02D6CE6CD010994DC016770962F929522
:10047000907F92966C9192976F78692B92966C937D
:10048000929792962D913D914D915C919597ED911A
:10049000FC9111970190F081E02D6CE6CD0109945B
:1004A00008950E94B41C0E94A80D892F8F70089592
:1004B0000E94A80D8695817008950E94A80D771F4F
:1004C0007727771F8170880F872B08950E94A80DCA
:1004D000862F881F8827881F7770770F872B0895AE
:1004E0000E94A80D862F8295877008958DE58CBD9A
:1004F00081E08DBD0895CF92DF92EF92FF921F931E
:10050000CF93DF93EC0169017A01162F10688BA954
:100510009CA9892B11F40E94760260E089A90E94AF
:10052000B00D612FCE010E948A0C898B6F2D772729
:1005300088279927CE010E948A0CB701882799271E
:10054000CE010E948A0C99278F2D7E2D6D2DCE0114
:100550000E948A0C6C2DCE010E948A0C11E08DA99C
:10056000181734F465E0CE010E94940D1F5FF7CF99
:1005700061E089A9DF91CF911F91FF90EF90DF900B
:10058000CF900C94B00DCF92DF92EF92FF921F9319
:10059000CF93DF93EC01F62E8BA99CA9892B11F444
:1005A0000E94760260E089A90E94B00D6F2DCE01F5
:1005B0000E948A0C64E0CE010E94940D11E08DA986
:1005C000181734F465E0CE010E94940D1F5FF7CF39
:1005D00061E089A90E94B00D60E089A90E94B00D78
:1005E00080912B02181734F465E0CE010E94940D1F
:1005F0001F5FF6CF6F2DCE010E948A0C898B60E0C1
:10060000CE010E948A0CC82ED12CE12CF12CFE2C9C
:10061000ED2CDC2CCC2460E0CE010E948A0CC82A90
:10062000FE2CED2CDC2CCC2460E0CE010E948A0C48
:10063000C82AFE2CED2CDC2CCC2460E0CE010E94DC
:100640008A0CC82A61E089A90E94B00DC701B601D1
:10065000DF91CF911F91FF90EF90DF90CF900895A1
:10066000FC0180819181009711F00C94DD1560E010
:1006700070E0CB010895FC0180819181009711F019
:100680000C94E11560E070E0CB010895CF93DF9307
:10069000FC0124813581232B69F0C081D181062E94
:1006A000000C770BCE010E94C21C009719F08C1B26
:1006B0009D0B02C08FEF9FEFDF91CF9108950F93B5
:1006C0001F93CF93DF93EC0188819981009729F0E4
:1006D0002A813B812617370788F48B016F5F7F4F94
:1006E0000E94EE1B009761F0998388831B830A8325
:1006F0002C813D81232B11F4FC01108281E001C08B
:1007000080E0DF91CF911F910F910895EF92FF92BA
:100710000F931F93CF93DF93EC017B018A01BA0102
:100720000E945F032881398181110DC02115310597
:1007300019F0C9010E94651B198218821D821C8252
:100740001B821A8206C01D830C83B701C9010E9457
:10075000CD1CCE01DF91CF911F910F91FF90EF90B3
:100760000895FC01808191810C94651BFC0111822C
:10077000108213821282158214826115710551F064
:10078000FB0101900020E9F73197AF01461B570BA1
:100790000C9486030895BF92CF92DF92EF92FF925E
:1007A0000F931F93CF93DF937C016B01EA018901C3
:1007B0002417350720F48D2FE901042F182F6DE73A
:1007C00071E0C7010E94B603D60114968D919C91E9
:1007D0001597C817D907C0F58017910708F48C0141
:1007E000D601ED91FC911197E00FF11FB0801082BE
:1007F0006D917C916C0F7D1F6115710561F0FB019E
:1008000001900020E9F73197AF01461B570BC70154
:100810000E94860313C0F70180819181009711F037
:100820000E94651BD70111961C921E9215961C9270
:100830001E92149713961C921E921297D601ED9158
:10084000FC91E00FF11FB082C701DF91CF911F91A2
:100850000F91FF90EF90DF90CF90BF9008951F927F
:100860000F920FB60F9211242F933F934F935F93E4
:100870006F937F938F939F93AF93BF93EF93FF9368
:100880008EE891E00E942001FF91EF91BF91AF911E
:100890009F918F917F916F915F914F913F912F9198
:1008A0000F900FBE0F901F9018951F920F920FB6CA
:1008B0000F9211242F938F939F93EF93FF93E091C7
:1008C0009E01F0919F018081E091A401F091A5012A
:1008D00082FD12C090818091A7018F5F8F7320915C
:1008E000A801821751F0E091A701F0E0E257FE4F16
:1008F000958F8093A70101C08081FF91EF919F9117
:100900008F912F910F900FBE0F901F9018951F92EF
:100910000F920FB60F9211242F933F934F935F9333
:100920006F937F938F939F93AF93BF93EF93FF93B7
:1009300080918D0187FF05C0109285001092840080
:100940001BC020918D01022E000C330B80915002B0
:1009500090E02817390784F480918D01082E000C4F
:10096000990BFC01EE0FFF1F8E0F9F1FFC01E45D32
:10097000FD4F808186FD15C080918D018F5F809332
:100980008D0120918D01022E000C330B80915002BD
:1009900090E028173907C4F480918D018C3064F100
:1009A00013C080918D01082E000C990BFC01EE0FF5
:1009B000FF1F8E0F9F1FFC01E45DFD4F808160E0F3
:1009C0008F730E94B00DD8CF8091840090918500E4
:1009D000049680349C4918F480E49CE905C0809119
:1009E00084009091850004969093890080938800FC
:1009F0008FEF80938D013BC0209184003091850062
:100A000080918D01082E000C990BFC01EE0FFF1F49
:100A10008E0F9F1FFC01E45DFD4F81819281820F4B
:100A2000931F909389008093880080918D01082EF8
:100A3000000C990BFC01EE0FFF1F8E0F9F1FFC0196
:100A4000E45DFD4F808186FF12C080918D01082EEC
:100A5000000C990BFC01EE0FFF1F8E0F9F1FFC0176
:100A6000E45DFD4F808161E08F730E94B00DFF91C6
:100A7000EF91BF91AF919F918F917F916F915F9116
:100A80004F913F912F910F900FBE0F901F9018958F
:100A9000CF92DF92EF92FF921F93CF93DF93882341
:100AA00029F081E0682784E013E002C086E015E0C9
:100AB0000E94B00D61E0812F0E94B00D6091020193
:100AC0007091030180910401909105010E943E1AEA
:100AD0006B017C01EB016230710540F0CB01880FA6
:100AE000991F880F991F05970197F1F760E0812FF3
:100AF0000E94B00D229750F0CC0CDD1CCC0CDD1CFC
:100B000085E0C81AD108C6010197F1F7DF91CF91AE
:100B10001F91FF90EF90DF90CF9008952F923F921A
:100B20004F925F926F927F928F929F92AF92BF92FD
:100B3000CF92DF92EF92FF920F931F93CF93DF93A9
:100B4000811105C08AE090E0C6E9D0E004C082E1EE
:100B500090E0C4E6D0E028E8222E312C08E512E02F
:100B600034EB832E912CA12CB12C6C01990FEE0843
:100B7000FF0880910001909101018C179D0709F4F5
:100B800088C08C179D0714F4019601C001979093BB
:100B9000010180930001E0910001F0910101E03238
:100BA00022E0F207DCF5F7FD06C0E53BF1052CF08D
:100BB000E4EBF0E002C0E0E0F0E08091D40221013B
:100BC000481A510887FD5394D201AA0FBB1FAA0FE0
:100BD000BB1F2D01BB0F660877088091D502B801B5
:100BE000681B710987FD7395660F771F660F771F66
:100BF000CB01770FAA0BBB0B9C01AD012419350962
:100C000046095709DF010E94DD18A50194010E94E1
:100C1000B318420E531E641E751EF2016091D3027A
:100C20006C3090F58091D4029101281B310987FD29
:100C30003395C901880F991F880F991FE817F90785
:100C400084F08091D5029801281B310987FD3395E6
:100C5000220F331F220F331FCF012E173F070CF433
:100C6000C9010297AC01440F551F7FB7F894862F36
:100C700090E09C01220F331F820F931FFC01E45D63
:100C8000FD4F528341837FBFC701B6010E94390ED9
:100C900070CF62E370E080E090E0DF91CF911F9130
:100CA0000F91FF90EF90DF90CF90BF90AF909F900B
:100CB0008F907F906F905F904F903F902F900C940B
:100CC000390E8F929F92AF92BF92CF92DF92EF92A6
:100CD000FF92C0908501D0908601E0908701F0904E
:100CE000880120E030E04CE053E4C701B6010E94E7
:100CF0005F1920E030E0A9010E948C1787FF12C025
:100D000081E090E0909384018093830180E090E003
:100D1000A0E7B3E48093020190930301A093040140
:100D2000B093050120E030E04CE053E4C701B60188
:100D30000E9460192091890130918A0140918B01B4
:100D400050918C010E946D1A181634F48FEF9FEFAA
:100D50009093840180938301809183019091840119
:100D6000019741F522E934E249E85FE3609102012D
:100D70007091030180910401909105010E945F1917
:100D80004B015C0120E030E044EB52E40E948C1700
:100D900087FF2EC080E090E0A4EBB2E480930201D4
:100DA00090930301A0930401B09305011092840174
:100DB000109283018091830190918401019689F5BD
:100DC00022E934E249E85FE3609102017091030196
:100DD00080910401909105010E9460194B015C0112
:100DE00020E030E040E753E40E946D1A18164CF002
:100DF0008092020190920301A0920401B092050139
:100E000010C080E090E0A0E7B3E4809302019093EB
:100E10000301A0930401B093050110928401109284
:100E2000830120E030E040E85FE3C701B6010E94A3
:100E30006019609385017093860180938701909378
:100E40008801FF90EF90DF90CF90BF90AF909F9080
:100E50008F9008952F923F924F925F926F927F9260
:100E60008F929F92AF92BF92CF92DF92EF92FF92BA
:100E70000F931F93CF93DF93CDB7DEB7A5970FB630
:100E8000F894DEBF0FBECDBF1B018CA39DA32983A9
:100E900039874A875B872701380120E030E846EB35
:100EA00054E4C801B7010E948C1718165CF420E0C6
:100EB00030E04AE754E4C601B5010E948C171816C9
:100EC0000CF46DC360E082E00E94B00D40925B02C2
:100ED00050925C0260925D0270925E02A092570294
:100EE000B0925802C0925902D0925A0291014CA17C
:100EF0005DA1C301B2010E945F19688F798F8A8F4B
:100F00009B8F298139854A855B85C601B5010E9481
:100F10005F196C8F7D8F8E8F9F8F288D398D4A8DB5
:100F20005B8DCA01B9010E94F2176D837E838F83A6
:100F300098872C8D3D8D4E8D5F8DCA01B9010E9421
:100F4000F2179B01AC016D817E818F8198850E9493
:100F500060190E94781A688B798B8A8B9B8B298108
:100F600039854A855B85698179858A859B850E945B
:100F7000F2176D837E838F83988791014CA15DA1C9
:100F8000B1018CA19DA10E94F2172D813E814F815C
:100F900058850E9460190E94781A6C877D878E8719
:100FA0009F8791014CA15DA160E070E886EB94E41D
:100FB0000E945F199B01AC010E94F2172D813E81B6
:100FC0004F8158850E9460190E94781A6D837E8334
:100FD0008F839887A6019501C601B5010E94F2177B
:100FE0006B017C01A3019201C301B2010E94F217BF
:100FF000A70196010E9460190E94781A4B015C01BA
:10100000A301920160E070E886EB94E40E945F190E
:101010009B01AC010E94F217A70196010E94601982
:101020000E94781A6B017C012C853D854E855F8579
:10103000C501B4010E945F192B013C012D813E8145
:101040004F815885C701B6010E945F196B017C0171
:1010500020E030E0A901C301B2010E946D1A5301E2
:101060004201181624F0B7FAB094B7F8B09420E013
:1010700030E0A901C701B6010E946D1A181624F0CC
:10108000F7FAF094F7F8F094A7019601C501B401BE
:101090000E946D1A18167CF420E030E0A901C3010B
:1010A000B2010E946D1A73016201181624F0F7FA5A
:1010B000F094F7F8F09420915F0230916002409133
:1010C000610250916202C701B6010E94CC1960937F
:1010D000890170938A0180938B0190938C01109207
:1010E000850110928601109287011092880180E09C
:1010F00090E0A0E2B1E48C879D87AE87BF871D8218
:101100001E821F821886288939894A895B896D81E8
:101110007E818F8198850E948C1787FF40C22C8525
:101120003D854E855F85688979898A899B890E947A
:101130005F199B01AC016D817E818F8198850E9432
:101140006D1A181674F42D813E814F815885688977
:1011500079898A899B890E945F196C877D878E8730
:101160009F87288939894A895B896C857D858E8529
:101170009F850E94CC196B017C019B01AC01688D9D
:10118000798D8A8D9B8D0E94F21791014CA15DA1F2
:101190000E9460196C8B7D8B8E8B9F8BA7019601B3
:1011A0006C8D7D8D8E8D9F8D0E94F21729813985E2
:1011B0004A855B850E94601968A379A38AA39BA3D3
:1011C000298139854A855B85698179858A859B85F1
:1011D0000E94F2176B017C0191014CA15DA1B1014C
:1011E0008CA19DA10E94F217A70196010E9460198F
:1011F0000E94781A69837A838B839C8391014CA126
:101200005DA160E070E886EB94E40E945F199B01A9
:10121000AC010E94F217A70196010E9460190E947A
:10122000781A2B013C0128A139A14AA15BA168A130
:1012300079A18AA19BA10E94F2174B015C012C8924
:101240003D894E895F896C897D898E899F890E943D
:10125000F217A50194010E9460190E94781A6B018F
:101260007C012C893D894E895F8960E070E886EBBE
:1012700094E40E945F199B01AC010E94F217A50142
:1012800094010E9460190E94781A4B015C01298127
:101290003A814B815C81C701B6010E945F196B01E5
:1012A0007C01A3019201C501B4010E945F194B01A9
:1012B0005C0120E030E0A901C701B6010E946D1A6F
:1012C00087FD12C020E030E0A901C501B4010E94F1
:1012D0006D1A87FF1DC020E030E0A901C501B401EF
:1012E0000E948C1787FD16C020E030E0A901C701DD
:1012F000B6010E948C1787FF10C011E020E030E09B
:10130000A901C501B4010E946D1A87FF07C005C07D
:1013100011E001C010E001E002C010E000E020E0B8
:1013200030E0A901C701B6010E946D1A26013701FC
:10133000181624F077FA709477F8709420E030E073
:10134000A901C501B4010E946D1AA50194011816E6
:101350000CF05058C301B2010E946D1A87FD06C0FF
:10136000812F102F082F2224239401C0212C20E04C
:1013700030E0A901C701B6010E946D1A26013701AC
:10138000181624F077FA709477F8709420E030E023
:10139000A901C501B4010E946D1A18160CF4D1C040
:1013A000D501C401B05889839A83AB83BC83A30160
:1013B0009201BC01CD010E946D1A181684F420E040
:1013C00030E0A901C701B6010E946D1A1816BCF0E1
:1013D000D701C601B05889839A83AB83BC8320E0D0
:1013E00030E0A901C701B6010E946D1A18165CF021
:1013F0002601370177FA709477F8709406C0C98295
:10140000DA82EB82FC822601370120E030E0A9017C
:10141000C501B4010E946D1A181624F0B7FAB094F1
:10142000B7F8B094A3019201C501B4010E948C17D2
:1014300087FF0FC020E030E0A901C701B6010E947C
:101440006D1A46015701181624F0B7FAB094B7F890
:10145000B09420915F0230916002409161025091FE
:101460006202C501B4010E94CC196B017C01A50187
:10147000940169817A818B819C810E94CC192B0116
:101480003C011A821982812C912C5401332433940B
:101490003224A981BA81BD01BB0F880B990B0E9430
:1014A00093179B01AC01C701B6010E946D1A181673
:1014B0005CF50E946106612F822D0E944805A30100
:1014C0009201C501B4010E9460194B015C0120E04A
:1014D00030E040E85FE30E946D1A87FD0EC0602F88
:1014E000832D0E94480520E030E040E85FE3C5011D
:1014F000B4010E945F194B015C0129813A812F5F81
:101500003F4F3A832983C5CF2C853D854E855F8526
:101510006D817E818F8198850E9460196D837E83A5
:101520008F8398872C883D883E893CA38F898DA323
:1015300098A19983A9A1A987BAA1BA872BA12B87C2
:10154000E2CDA3019201C501B4010E946D1A1816E3
:101550008CF420E030E0A901C701B6010E946D1AA9
:1015600018160CF035CF26013701C982DA82EB82DA
:10157000FC8258CF20E030E0A901C701B6010E94EB
:101580006D1A18163CF42601370189829A82AB82C3
:10159000BC8248CF89829A82AB82BC8229CFA59631
:1015A0000FB6F894DEBF0FBECDBFDF91CF911F9174
:1015B0000F91FF90EF90DF90CF90BF90AF909F90F2
:1015C0008F907F906F905F904F903F902F900895F5
:1015D0000F931F93CF93DF938C01EB01FC0180816C
:1015E00091810097B1F0688179816115710579F079
:1015F000428153812C813D814217530740F00E9464
:10160000CD1C8C819D81F8019583848313C00E9439
:10161000651B88819981F801918380838A819B81F0
:10162000938382838C819D81958384831982188220
:101630001B821A821D821C82DF91CF911F910F9114
:1016400008951F93CF93DF93EC012AE037ED43EA2F
:101650005CE369857A858B859C850E9460192AE206
:101660003DE64DEF51E40E94F21726E636E646EAE3
:101670005EE30E94CC1920E030E040E85FE30E9486
:101680005F190E943E1A162F603120F561E0CE01ED
:101690000E94DA012AE037ED43EA5CE369857A8546
:1016A0008B859C850E9460192AE23DE64DEF51E44E
:1016B0000E94F2172CEE31E548E35EE30E94CC195C
:1016C00020E030E040E85FE30E945F190E943E1A8C
:1016D000162F04C060E0CE010E94DA01103208F03B
:1016E0001FE1912F9F718B81807E892B8B832A81B3
:1016F000382F8C81482F4F7050E060E1CE010E945E
:101700007B02612F70E080E090E00E9493172D85AE
:101710003E854F8558890E94F2170E943E1A6F71CC
:101720008A81807E682B6A83262F3B818C81482F9B
:101730004F7050E060E1CE01DF91CF911F910C948A
:101740007B020F931F93CF93DF93EC0161E089A994
:101750000E94FD0D61E089A90E94B00D0BA91CA992
:101760000115110509F456C061E0F80180810E945D
:10177000FD0D61E0F80184810E94FD0D62E0F80139
:1017800082810E94FD0DF80140815181FA01E553EB
:10179000FF4FE491F0E0EE0FFF1FEF53FF4F8591F5
:1017A0009491F8019287818722813381F901E55371
:1017B000FF4FE491F0E0EE0FFF1FE954FF4F8591DA
:1017C0009491F8019487838784819581FC01E55386
:1017D000FF4FE491F0E0EE0FFF1FEF53FF4FA59195
:1017E000B491F801B687A587FA01ED55FF4F4491F2
:1017F000F8014683F901ED55FF4F2491F801278345
:10180000FC01ED55FF4F9491F80190878C91E92FE1
:10181000E82BEC932A893B898C89482F437050E050
:1018200060E0CE010E947B022AA13BA14CA15DA1F8
:101830006CE6CE010E947B022EA13FA148A559A5CE
:1018400051706DE6CE010E947B022DA53EA58FA5AD
:10185000482F4F7350E060E7CE010E947B022A813F
:101860003B818C81482F4F7050E060E1CE010E9497
:101870007B028AA1807F88608AA32AA13BA14CA118
:101880005DA16CE6CE010E947B0261E0CE01DF919A
:10189000CF911F910F910C94F00142E050E06BE763
:1018A00071E08EE891E00C94AC00FC011182108292
:1018B0001382128215821482F2E081359F0769F04B
:1018C00060915102709152026115710531F04091A1
:1018D0005502509156020C9486030895CF93DF93DE
:1018E0002091550230915602232B79F0FC01C091D2
:1018F0005102D091520260817181CE010E94D41CAC
:10190000009719F08C1B9D0B02C08FEF9FEFDF91AA
:10191000CF910895CF93DF93DC01D396ED91FC91A5
:10192000D497309709F45AC0A585B6859C918085D7
:10193000809589238C9327E030E080E0C62FD0E0AB
:10194000722FA185B2859681AE01022E02C05595F7
:1019500047950A94E2F740FF03C04C91942B03C0D3
:101960004C91909594239C93A585B6854C91908538
:10197000942B9C93A385B4854C919781942341E04B
:1019800050E011F440E050E001C0440F7A95EAF7CE
:10199000842BA585B6854C919085909594239C9336
:1019A0002150310969F6A185B28596812C9160FF9D
:1019B00002C0922B02C0909592239C93A585B68578
:1019C0002C919085922B9C93A385B4852C91978123
:1019D000922321E009F420E0822B06C06EBD0000B6
:1019E0000DB407FEFDCF8EB5DF91CF910895BF9264
:1019F000CF92DF92EF92FF920F931F93CF93DF93DB
:101A0000CDB7DEB72C970FB6F894DEBF0FBECDBFB3
:101A10008C016B01B42E6EE771E00E94B6036B2D52
:101A2000C6010E9446038F3F2FEF920709F446C07C
:101A30009C012E5F3F4FAC014F5F5F4FB601CE015F
:101A400007960E94CB0360E2CE0107960E944603F0
:101A50007C016B2DC6010E9446039701281B390BA0
:101A60002F5F3F4FAC014F5F5F4FB601CE01019634
:101A70007C010E94CB03E016F10621F0B701C801FA
:101A80000E94E80AC7010E94B103CE0107960E9496
:101A9000B10360E2C8010E9446039C0140E050E0AF
:101AA000B801C7010E94CB03E016F10621F0B7018F
:101AB000C8010E94E80AC7010E94B103C8012C9620
:101AC0000FB6F894DEBF0FBECDBFDF91CF911F914F
:101AD0000F91FF90EF90DF90CF90BF9008953FB7A8
:101AE000F8948091DB029091DC02A091DD02B0912C
:101AF000DE0226B5A89B05C02F3F19F00196A11D57
:101B0000B11D3FBFBA2FA92F982F8827820F911D93
:101B1000A11DB11DBC01CD0142E0660F771F881FDA
:101B2000991F4A95D1F708950F931F93CF93DF9391
:101B30008C01D62FC0E0CD1731F060E0C8010E94C3
:101B40008A0CCF5FF8CFDF91CF911F910F9108954D
:101B5000DC01ED91FC910280F381E02D6CE60994AB
:101B600090E0FC01E751FF4F2491FC01ED55FF4F40
:101B70003491FC01E553FF4FE491EE2309F43CC09E
:101B8000222339F1233091F038F42130A9F02230AA
:101B900001F584B58F7D12C0273091F02830A1F077
:101BA0002430B9F4809180008F7D03C08091800043
:101BB0008F77809380000DC084B58F7784BD09C076
:101BC0008091B0008F7703C08091B0008F7D8093AB
:101BD000B000F0E0EE0FFF1FEF53FF4FA591B4915F
:101BE0009FB7F894611104C08C913095382302C0DE
:101BF000EC913E2B3C939FBF0895CF93DF9390E0F1
:101C0000FC01ED55FF4F2491FC01E553FF4F8491FA
:101C1000882361F190E0880F991FFC01E152FF4F8A
:101C2000C591D491FC01EF53FF4FA591B49161117F
:101C300009C09FB7F8948881209582238883EC910E
:101C40002E230BC0623061F49FB7F8948881322F45
:101C5000309583238883EC912E2B2C939FBF06C055
:101C60008FB7F894E8812E2B28838FBFDF91CF9117
:101C700008958F929F92AF92BF92CF92DF92EF9290
:101C8000FF926B017C010E946F0D4B015C01C1143E
:101C9000D104E104F104F1F00E946F0DDC01CB01ED
:101CA00088199909AA09BB09883E9340A105B10585
:101CB00070F321E0C21AD108E108F10888EE880E1D
:101CC00083E0981EA11CB11CC114D104E104F104ED
:101CD00019F7DDCFFF90EF90DF90CF90BF90AF90DE
:101CE0009F908F9008951F920F920FB60F9211241C
:101CF0002F933F938F939F93AF93BF938091D7027E
:101D00009091D802A091D902B091DA023091D60216
:101D100023E0230F2D3720F40196A11DB11D05C02E
:101D200026E8230F0296A11DB11D2093D6028093B1
:101D3000D7029093D802A093D902B093DA0280918F
:101D4000DB029091DC02A091DD02B091DE020196EF
:101D5000A11DB11D8093DB029093DC02A093DD02F4
:101D6000B093DE02BF91AF919F918F913F912F91E0
:101D70000F900FBE0F901F901895CF93DF93CDB7A4
:101D8000DEB7A4970FB6F894DEBF0FBECDBF789430
:101D900084B5826084BD84B5816084BD85B5826070
:101DA00085BD85B5816085BD80916E008160809321
:101DB0006E0010928100809181008260809381008A
:101DC000809181008160809381008091800081609A
:101DD000809380008091B10084608093B1008091F5
:101DE000B00081608093B00080917A00846080931D
:101DF0007A0080917A00826080937A0080917A00E4
:101E0000816080937A0080917A00806880937A0064
:101E10001092C100E0919E01F0919F0182E08083C9
:101E2000E0919A01F0919B011082E0919C01F09168
:101E30009D018FEC80831092A601E091A201F091A8
:101E4000A30186E08083E091A001F091A10180814F
:101E500080618083E091A001F091A1018081886080
:101E60008083E091A001F091A1018081806880834E
:101E7000E091A001F091A10180818F7D808380910C
:101E8000D3028C3008F051C061E08AE00E94FD0D61
:101E90008091D302E82FF0E09F01220F331FE20F61
:101EA000F31FE45DFD4F9081907C9A6090831092C7
:101EB000D4021092D5026CE00E944D192CE0829F52
:101EC000B001112440E050E09B01240F351FF901BF
:101ED000EE0FFF1F2E0F3F1FF901E45DFD4F9081B4
:101EE00096FD16C04F5F5F4F4C30510569F7811169
:101EF0000FC01092800082E08093810010928500D4
:101F000010928400B19A80916F00826080936F007C
:101F1000E091D302F0E0CF01880F991FE80FF91F7D
:101F2000E45DFD4F80818064808348E050E062E49E
:101F300071E08EE891E00E94AC000E944D0C80E0C0
:101F40000E948E0561E083E00E94FD0D61E084E067
:101F50000E94FD0D61E085E00E94FD0D61E086E0DC
:101F60000E94FD0D61E082E00E94FD0D60E082E0D4
:101F70000E94B00D1FB7F89480918201811127C093
:101F8000E5EDF0E08491EDEAF0E09491E82FF0E0E7
:101F9000EE0FFF1FE152FF4FA591B491EC91E923A1
:101FA00021F461E08AE00E94B00D61E08AE00E94C5
:101FB000FD0D8CB580618CBD8CB580648CBD61E0FD
:101FC0008DE00E94FD0D61E08BE00E94FD0D80918F
:101FD00082018F5F809382011FBF8DE992E00E9492
:101FE000A10B8DE992E00E94210B64E08DE992E063
:101FF0000E94C3018091AF0284608093AF02282FBA
:102000003091B0028091B102482F437050E060E0FF
:102010008DE992E00E947B028091CC0284608093E3
:10202000CC022091CA023091CB02482F4F7350E06E
:1020300060E78DE992E00E947B0287E692E00E94D1
:10204000A10B87E692E00E94210B64E087E692E014
:102050000E94C30180917902846080937902282FC5
:1020600030917A0280917B02482F437050E060E00B
:1020700087E692E00E947B028091960284608093C2
:1020800096022091940230919502482F4F7350E0B0
:1020900060E787E692E00E947B028EE891E00E9472
:1020A0000A01181619060CF003C38EE891E00E948D
:1020B000E8008A3009F0D9C26BE471E0CE010196E4
:1020C0000E94B603CE0101960E946E0C019699F40F
:1020D0006EE471E0CE0107960E94B603CE0107962A
:1020E0000E946E0C11E0019609F410E0CE010796F3
:1020F0000E94B10301C011E0CE0101960E94B1031C
:10210000112309F4A7C162E571E0CE0101960E9496
:10211000B603CE0101960E946E0C019609F079C3B8
:1021200064E571E0CE0107960E94B603CE010796E2
:102130000E946E0C019699F466E571E0CE010D9651
:102140000E94B603CE010D960E946E0C01E001962E
:1021500009F400E0CE010D960E94B10301C0012FE9
:10216000CE0107960E94B103CE0101960E94B103F1
:102170000023D9F1CE0101960E94550C48E5BE011D
:102180006F5F7F4FCE0143960E94F70CCE01019600
:102190000E94B103CE0101960E94550C49E5BE0193
:1021A0006F5F7F4FCE010D960E94F70CCE01019616
:1021B0000E94B103CE0101960E94550C4AE5BE0172
:1021C0006F5F7F4FCE0107960E94F70CCE010196FC
:1021D0000E94B103CE0107960E943B036230710555
:1021E0008105910508F467C2EBC068E571E0CE0196
:1021F00001960E94B603CE0101960E946E0C0196D4
:1022000091F46AE571E0CE0107960E94B603CE0113
:1022100007960E946E0C11E0019609F410E0CE01C1
:1022200007960E94B103CE0101960E94B1031123CB
:1022300009F408C2CE0101960E94550C4CE4BE017F
:102240006F5F7F4FCE0143960E94F70CCE0101963F
:102250000E94B103CE0101960E94550C42E5BE01D9
:102260006F5F7F4FCE010D960E94F70CCE01019655
:102270000E94B103CE0143960E94300320E030E07B
:1022800040E85FEB0E948C178823F9F0CE0143965B
:102290000E94300320E030E0A9010E946D1A181658
:1022A0003CF4CE0143960E9430032B013C010AC04E
:1022B000CE0143960E9430032B013C0177FA7094C3
:1022C00077F87094992493942DC0CE010D960E94B6
:1022D000300320E030E040E85FEB0E948C17882359
:1022E000F1F0CE010D960E94300320E030E0A9010C
:1022F0000E946D1A18163CF4CE010D960E94300310
:102300002B013C010AC0CE010D960E9430032B0127
:102310003C0177FA709477F87094912C03C0412CAB
:10232000512C32016CE571E0CE0101960E94B6039A
:10233000CE0101960E946E0C019691F46FE571E05A
:10234000CE0107960E94B603CE0107960E946E0C3E
:1023500011E0019609F410E0CE0107960E94B10346
:10236000CE0101960E94B10381E0182720915F02FF
:10237000309160024091610250916202C301B2014A
:102380000E94CC192B013C01C12CD12CB6010D2C83
:10239000000C880B990B0E9493179B01AC01C301A1
:1023A000B2010E946D1A18160CF04DC00E94610611
:1023B000612F892D0E9448058FEFC81AD80AE6CFF1
:1023C000CE0143960E94300320E030E040E85FEB0E
:1023D0000E948C17882361F0CE010D960E94300375
:1023E00020E030E040E85FEB0E948C178111F4C1DF
:1023F000CE0143960E94300320E030E040E85FEBDE
:102400000E948C17882309F4C1C1CE0143960E9413
:1024100030037B018C01209157023091580240918A
:10242000590250915A0260915B0270915C02809156
:102430005D0290915E0259016A010E942A07CE0155
:1024400007960E94B103CE010D960E94B103CE0102
:102450004396F6C062E671E0CE0101960E94B60393
:10246000CE0101960E946E0C8C01CE0101960E9455
:10247000B1030F3F1F4F09F1E0906302F090640237
:102480000091650210916602209157023091580226
:102490004091590250915A0260915B0270915C0226
:1024A00080915D0290915E02A12CB12CE8E4CE2EC9
:1024B000E3E4DE2E0E942A07C5C066E671E0CE0185
:1024C00001960E94B603CE0101960E946E0C8C010B
:1024D000CE0101960E94B1030F3F1F4F11F060E043
:1024E00013C06AE671E0CE0101960E94B603CE01E8
:1024F00001960E946E0C8C01CE0101960E94B103E0
:102500000F3F1F4F29F061E082E00E94B00D9AC09A
:102510006EE671E0CE0101960E94B603CE010196EF
:102520000E946E0C8C01CE0101960E94B1030F3FF8
:102530001F4F09F487C062E771E0CE0101960E9447
:10254000B603CE0101960E946E0C8C01CE0101965D
:102550000E94B1030F3F1F4FE9F0809163029091F9
:102560006402A0916502B091660280935B02909331
:102570005C02A0935D02B0935E0280E090E0A8E46C
:10258000B3E48093570290935802A0935902B093FA
:102590005A0258C0CE0101960E94550C48E5BE0172
:1025A0006F5F7F4FCE010D960E94F70CCE01019612
:1025B0000E94B103CE0101960E94550C49E5BE016F
:1025C0006F5F7F4FCE0107960E94F70CCE010196F8
:1025D0000E94B103CE010D960E94300320E030E04E
:1025E00040E85FEB0E948C17882361F0CE010D96C6
:1025F0000E94300360935B0270935C0280935D02E3
:1026000090935E02CE0107960E94300320E030E0F6
:1026100040E85FEB0E948C17882361F0CE0107969B
:102620000E943003609357027093580280935902BE
:1026300090935A02CE0107960E94B103CE010D96E7
:102640000E94B10340E050E06DE771E081E592E067
:102650000E94860342E050E068E771E08EE891E076
:102660000E94AC000E944D0C23C089831A82C09046
:102670005502D09056029FEFC91AD90AB60181E5DA
:1026800092E00E945F03882399F0209151023091DB
:1026900052028091550290915602BE016F5F7F4FAA
:1026A000820F931F0E94CD1CD0925602C0925502F9
:1026B0000E94B101F2CCCE0143960E94300320E08B
:1026C00030E040E85FEB0E948C17882309F450C08B
:1026D000CE010D960E94300320E030E040E85FEB31
:1026E0000E948C17882309F443C0CE0107960E94EC
:1026F0003B03698F7A8F8B8F9C8FCE010D960E9442
:1027000030035B016C01CE0143960E9430032B0124
:102710003C0120915702309158024091590250914A
:102720005A022D8F3E8F4F8F58A380915B0290915C
:102730005C02A0915D02B0915E0289A39AA3ABA353
:10274000BCA381E0298D3A8D4B8D5C8D232B242BEE
:10275000252B09F080E00E948E05830172012D8DEA
:102760003E8D4F8D58A169A17AA18BA19CA165CE08
:10277000CE0107960E943B0321E0672B682B692B53
:1027800009F020E0822F0E948E0559CECE010D96D1
:102790000E94300320E030E040E85FEB0E948C179D
:1027A000882309F44CCECE010D960E9430035B01C4
:1027B0006C0160915B0270915C0280915D0290916E
:1027C0005E02209157023091580240915902509177
:1027D0005A027B018C0131CECE010D960E9430034E
:1027E0005B016C01CE0143960E9430037B018C019A
:1027F00020915702309158024091590250915A024B
:1028000060915B0270915C0280915D0290915E022A
:1028100014CECE0101960E94B103ACCC81E592E0CA
:102820000C94B103109291011092900188EE93E004
:10283000A0E0B0E08093920190939301A093940163
:10284000B093950180E191E090938F0180938E0188
:1028500085EC90E090939B0180939A0184EC90E04A
:1028600090939D0180939C0180EC90E090939F0158
:1028700080939E0181EC90E09093A1018093A00150
:1028800082EC90E09093A3018093A20186EC90E00B
:102890009093A5018093A4011092A7011092A80122
:1028A0001092A9011092AA01809150028C30A0F4DC
:1028B00091E0980F909350028093D30290E0FC0136
:1028C000EE0FFF1F8E0F9F1FFC01E45DFD4F88EB95
:1028D0009BE09283818303C08FEF8093D302109299
:1028E0009F021092A0028091A102807F8093A1029A
:1028F0001092A2021092A3021092A4028091A5024B
:10290000807F8093A5028EEA97E4A1EEBDE38093D9
:10291000A6029093A702A093A802B093A90280E018
:1029200090E0A0E0BFE38093AA029093AB02A09353
:10293000AC02B093AD0282E291E090939E0280934C
:102940009D021092AF021092B0028091B1028C7F72
:102950008093B1021092B2021092B3028091B4023D
:10296000807F8093B4021092B5021092B6028091DB
:10297000B702807F8093B7021092B8021092B9021A
:102980001092BA028091BB028E7F8093BB0210929C
:10299000BC021092BD028091BE0280788093BE027C
:1029A0001092BF021092C0021092C1021092C20295
:1029B0001092C3021092C4021092C5028091C60206
:1029C0008E7F8093C6021092C7021092C8021092A6
:1029D000C9028091CD028C7F8093CD0287E090E088
:1029E0009093CF028093CE021092D1021092D00227
:1029F0009FEF9093D20280E88093CA0284E0809394
:102A0000CB028091CC02807C85608093CC02809147
:102A10002B028F3F14F490932B02109269021092B4
:102A20006A0280916B02807F80936B0210926C022D
:102A300010926D0210926E0280916F02807F8093DF
:102A40006F028EEA97E4A1EEBDE38093700290934B
:102A50007102A0937202B093730280E090E0A0E054
:102A6000BFE38093740290937502A0937602B093B3
:102A7000770282E291E0909368028093670210925D
:102A8000790210927A0280917B028C7F80937B0284
:102A900010927C0210927D0280917E02807F809352
:102AA0007E0210927F021092800280918102807FCC
:102AB000809381021092820210928302109284020B
:102AC000809185028E7F80938502109286021092FB
:102AD0008702809188028078809388021092890210
:102AE00010928A0210928B0210928C0210928D0228
:102AF00010928E0210928F02809190028E7F8093AE
:102B00009002109291021092920210929302809180
:102B100097028C7F8093970288E090E090939902CF
:102B20008093980210929B0210929A029FEF9093CA
:102B30009C0280E88093940284E0809395028091C7
:102B40009602807C85608093960280912B028F3F55
:102B500014F490932B0280E090E8A6E3B4E4809311
:102B6000630290936402A0936502B093660243E00F
:102B700053E567E47CE340935F0250936002609307
:102B800061027093620280935B0290935C02A09357
:102B90005D02B0935E0280E090E0A8E4B3E480932D
:102BA000570290935802A0935902B0935A026DE7CE
:102BB00071E081E592E00C94B603662777270C94C8
:102BC0001D161F93FC0199278827BC01E8941191D9
:102BD0001032E9F3193010F01E30C8F31B3251F0F7
:102BE0001D3249F4689406C00E940816610F711DD9
:102BF000811D911D119110531A30B0F33EF4909540
:102C00008095709561957F4F8F4F9F4F1F910895CD
:102C1000592F482F372F262F660F771F881F991F90
:102C2000660F771F881F991F620F731F841F951FE0
:102C3000660F771F881F991F0895A0E0B0E0E3E2B8
:102C4000F6E10C94EB18EC016B016115710519F0BC
:102C5000FB01918380837E01FFEFEF1AFF0A088159
:102C6000802F90E00E946B17892B11F0E701F3CFC2
:102C70000D3239F47E0182E0E80EF11C098111E089
:102C800008C00B3229F47E0192E0E90EF11C0981A3
:102C900010E0E701219743E050E060E770E0CE01EB
:102CA0000E947417892BC1F4239645E050E06BE62F
:102CB00070E0CE010E947417892B09F42596C11487
:102CC000D10419F0F601D183C0831111F6C060E080
:102CD00070E080E89FE7FAC043E050E068E670E00B
:102CE000CE010E947417892B59F4C114D10409F440
:102CF000E9C0F2E0EF0EF11CF601F182E082E2C0E1
:102D000020E030E0A901C0E0D0E0F70180EDA82E7E
:102D1000A00E89E08A1530F1912F9260B92E812F93
:102D2000887012FF04C0811124C0219622C0811135
:102D30002197A5E0B0E00E94D218DC01CB01880FFA
:102D4000991FAA1FBB1F9C01AD012A0D311D411DFA
:102D5000511D283989E93807480789E1580748F0A3
:102D6000166006C09EEFA9120AC013FD40C018608D
:102D7000B12E8FEFE81AF80A00811B2DC6CF802FE5
:102D80008F7D8534A1F580818D3211F4106106C0EC
:102D90008B3221F0319661E070E004C0818132967F
:102DA00062E070E080538A3018F0E61BF70B1FC01A
:102DB00060E070E060389CE079075CF4DB01AA0F0A
:102DC000BB1FAA0FBB1F6A0F7B1F660F771F680F01
:102DD000711D3196DF0111978C9180538A3050F329
:102DE00014FF03C0719561957109C60FD71F11FFBC
:102DF00008C0C114D10429F0CF010197F6019183D5
:102E00008083CA01B9010E949117212F23702330BA
:102E100019F04B015C0106C04B015C01B7FAB0949C
:102E2000B7F8B09420E030E0A901C501B4010E94D8
:102E30008C17882309F43EC0D7FF06C0D195C195F1
:102E4000D10907E810E002C00FE910E06801F8E1DD
:102E5000CF1AD10890E2E92EF12CCE15DF0574F0DF
:102E6000F8012591359145915491C501B4010E9415
:102E7000F2174B015C01CE19DF09EFCF04501109A5
:102E8000F594E7940C151D0541F78A2D880F8B2DBD
:102E9000881F8F3F49F020E030E0A901C501B4014F
:102EA0000E948C17811106C082E290E09093E002AC
:102EB0008093DF02C501B40109C060E070E080E8E2
:102EC0009FEF04C060E070E080EC9FE7CDB7DEB715
:102ED000ECE00C94071991110C945F18803219F0F2
:102EE00089508550C8F70895FB01DC0141505040DE
:102EF00088F08D9181341CF08B350CF4805E6591E7
:102F000061341CF06B350CF4605E861B611171F34B
:102F1000990B0895881BFCCF0E94CE1708F481E01E
:102F20000895E89409C097FB3EF4909580957095BC
:102F300061957F4F8F4F9F4F9923A9F0F92F96E905
:102F4000BB279395F695879577956795B795F1117A
:102F5000F8CFFAF4BB0F11F460FF1BC06F5F7F4F17
:102F60008F4F9F4F16C0882311F096E911C0772329
:102F700021F09EE8872F762F05C0662371F096E832
:102F8000862F70E060E02AF09A95660F771F881F01
:102F9000DAF7880F9695879597F90895990F0008A5
:102FA000550FAA0BE0E8FEEF16161706E807F9071B
:102FB000C0F012161306E407F50798F0621B730BB6
:102FC000840B950B39F40A2661F0232B242B252B37
:102FD00021F408950A2609F4A140A6958FEF811DDA
:102FE000811D08950E9405180C9479180E946B1891
:102FF00038F00E94721820F0952311F00C9462189A
:103000000C94681811240C94AD180E948A1870F35F
:10301000959FC1F3950F50E0551F629FF001729F7D
:10302000BB27F00DB11D639FAA27F00DB11DAA1F8C
:10303000649F6627B00DA11D661F829F2227B00DD9
:10304000A11D621F739FB00DA11D621F839FA00D64
:10305000611D221F749F3327A00D611D231F849FB4
:10306000600D211D822F762F6A2F11249F5750400B
:103070009AF0F1F088234AF0EE0FFF1FBB1F661F86
:10308000771F881F91505040A9F79E3F510580F04F
:103090000C9462180C94AD185F3FE4F3983ED4F39F
:1030A000869577956795B795F795E7959F5FC1F7F3
:1030B000FE2B880F911D9695879597F9089599276E
:1030C0008827089597F99F6780E870E060E0089589
:1030D0009FEF80EC089500240A9416161706180630
:1030E0000906089500240A9412161306140605060C
:1030F0000895092E0394000C11F4882352F0BB0F9D
:1031000040F4BF2B11F460FF04C06F5F7F4F8F4FFF
:103110009F4F089557FD9058440F551F59F05F3F3A
:1031200071F04795880F97FB991F61F09F3F79F0E9
:1031300087950895121613061406551FF2CF46956B
:10314000F1DF08C0161617061806991FF1CF8695ED
:103150007105610508940895E894BB2766277727D1
:10316000CB0197F90895052E97FB1EF400940E9459
:10317000CA1857FD07D00E941C1907FC03D04EF453
:103180000C94CA1850954095309521953F4F4F4F5C
:103190005F4F089590958095709561957F4F8F4F03
:1031A0009F4F08950E943E19A59F900DB49F900DCA
:1031B000A49F800D911D11240895B7FF0C94D2187F
:1031C0000E94D218821B930B08952F923F924F9228
:1031D0005F926F927F928F929F92AF92BF92CF92A7
:1031E000DF92EF92FF920F931F93CF93DF93CDB7B0
:1031F000DEB7CA1BDB0B0FB6F894DEBF0FBECDBF28
:1032000009942A88398848885F846E847D848C84F8
:103210009B84AA84B984C884DF80EE80FD800C8101
:103220001B81AA81B981CE0FD11D0FB6F894DEBFE4
:103230000FBECDBFED010895A1E21A2EAA1BBB1B44
:10324000FD010DC0AA1FBB1FEE1FFF1FA217B30772
:10325000E407F50720F0A21BB30BE40BF50B661F88
:10326000771F881F991F1A9469F76095709580954C
:1032700090959B01AC01BD01CF010895A29FB001C3
:10328000B39FC001A39F700D811D1124911DB29F9A
:10329000700D811D1124911D0895991B79E004C0C2
:1032A000991F961708F0961B881F7A95C9F7809585
:1032B0000895EE0FFF1F0590F491E02D09945058EA
:1032C000BB27AA270E9477190C9479180E946B18C3
:1032D00038F00E94721820F039F49F3F19F426F458
:1032E0000C9468180EF4E095E7FB0C946218E92F33
:1032F0000E948A1858F3BA17620773078407950764
:1033000020F079F4A6F50C94AC180EF4E0950B2E91
:10331000BA2FA02D0B01B90190010C01CA01A00127
:103320001124FF27591B99F0593F50F4503E68F182
:103330001A16F040A22F232F342F4427585FF3CFC3
:10334000469537952795A795F0405395C9F77EF494
:103350001F16BA0B620B730B840BBAF09150A1F0DD
:10336000FF0FBB1F661F771F881FC2F70EC0BA0F63
:10337000621F731F841F48F4879577956795B795EB
:10338000F7959E3F08F0B0CF9395880F08F09927E6
:10339000EE0F9795879508950E94E0190C9479187F
:1033A0000E94721858F00E946B1840F029F45F3F99
:1033B00029F00C94621851110C94AD180C946818F3
:1033C0000E948A1868F39923B1F3552391F3951B52
:1033D000550BBB27AA2762177307840738F09F5F36
:1033E0005F4F220F331F441FAA1FA9F335D00E2EA3
:1033F0003AF0E0E832D091505040E695001CCAF710
:103400002BD0FE2F29D0660F771F881FBB1F2617D2
:1034100037074807AB07B0E809F0BB0B802DBF01A9
:10342000FF2793585F4F3AF09E3F510578F00C9478
:1034300062180C94AD185F3FE4F3983ED4F3869580
:1034400077956795B795F7959F5FC9F7880F911D99
:103450009695879597F90895E1E0660F771F881F85
:10346000BB1F621773078407BA0720F0621B730B38
:10347000840BBA0BEE1F88F7E09508950E9492180E
:1034800088F09F5798F0B92F9927B751B0F0E1F025
:10349000660F771F881F991F1AF0BA95C9F714C0D5
:1034A000B13091F00E94AC18B1E008950C94AC18C2
:1034B000672F782F8827B85F39F0B93FCCF386950E
:1034C00077956795B395D9F73EF49095809570956B
:1034D00061957F4F8F4F9F4F08950E94CE1708F43C
:1034E0008FEF089519F416F40C9468180C94B81A18
:1034F0000E949218B8F39923C9F3B6F39F57550B5E
:1035000087FF0E94C61A0024A0E640EA9001805876
:103510005695979528F4805C660F771F881F20F0DA
:1035200026173707480730F4621B730B840B2029DA
:1035300031294A2BA69517940794202531254A272F
:1035400058F7660F771F881F20F0261737074807A0
:1035500030F4620B730B840B200D311D411DA095BF
:1035600081F7B901842F9158880F96958795089512
:103570009F3F31F0915020F4879577956795B795E7
:10358000880F911D9695879597F908959150504011
:10359000660F771F881FD2F708950F931F93CF935D
:1035A000DF938230910510F482E090E0E091E30235
:1035B000F091E40220E030E0A0E0B0E0309719F1B3
:1035C000408151810281138148175907C8F084173F
:1035D000950769F4109731F012960C931297139691
:1035E0001C9327C00093E3021093E40222C021152C
:1035F000310519F04217530718F49A01BD01EF0184
:10360000DF01F801DBCF21153105F9F0281B390B5B
:103610002430310580F48A819B816115710521F088
:10362000FB019383828304C09093E4028093E302BE
:10363000FE01329644C0FE01E20FF31F8193919385
:1036400022503109398328833AC02091E102309118
:10365000E202232B41F420910801309109013093BB
:10366000E2022093E1022091060130910701211529
:10367000310541F42DB73EB740910A0150910B013D
:10368000241B350BE091E102F091E202E217F3070F
:10369000A0F42E1B3F0B2817390778F0AC014E5FC2
:1036A0005F4F2417350748F04E0F5F1F5093E2021B
:1036B0004093E1028193919302C0E0E0F0E0CF01FA
:1036C000DF91CF911F910F910895CF93DF930097D2
:1036D00009F481C0FC01329713821282A091E302A7
:1036E000B091E402109781F420813181820F931F01
:1036F0002091E1023091E2022817390751F5F09349
:10370000E202E093E10267C0ED0120E030E0CE1775
:10371000DF0740F44A815B819E0141155105F1F0BC
:10372000EA01F5CFD383C28340815181840F951F75
:10373000C817D90759F488819981840F951F02967B
:10374000918380838A819B819383828321153105B4
:1037500029F4F093E402E093E3023DC0E901FB8326
:10376000EA8349915991C40FD51FEC17FD0761F405
:1037700080819181840F951F0296E9019983888346
:10378000828193819B838A83E0E0F0E012968D91A1
:103790009C911397009719F0FD01DC01F7CF8D91F3
:1037A0009C9111979D012E5F3F4F820F931F209197
:1037B000E1023091E2022817390769F4309729F4C1
:1037C0001092E4021092E30202C013821282B093BC
:1037D000E202A093E102DF91CF910895A0E0B0E072
:1037E000E4EFFBE10C94E918EC01009721F4CB0124
:1037F0000E94CD1AB4C0FC01E60FF71F9C012250B5
:103800003109E217F30708F4A8C0D9010D911C9102
:10381000119706171707B0F00530110508F49BC083
:10382000C80104978617970708F495C0025011093C
:10383000061B170B019311936D937C93CF010E948C
:10384000651B89C05B01A01AB10A4C01800E911E54
:10385000A091E302B091E402612C712CE12CF12CD7
:10386000109709F446C08D919C911197A815B90540
:10387000B1F56C0142E0C40ED11CCA14DB0478F12E
:103880004C018A189B08640142E0C40ED11C1296B8
:10389000BC9012971396AC91B5E0CB16D10440F0D2
:1038A000B282A38391828082D9016D937C9309C0F7
:1038B0000E5F1F4F800F911FF90191838083EB2DC5
:1038C000FA2FE114F10431F0D7011396FC93EE9333
:1038D000129741C0F093E402E093E3023CC0681603
:1038E000790608F43C017D0112960D90BC91A02D43
:1038F000B7CF8091E1029091E20288169906E1F437
:1039000066167706C8F4809106019091070100972A
:1039100041F48DB79EB740910A0150910B01841B71
:10392000950BE817F907C8F4F093E202E093E1027F
:10393000F901718360830FC0CB010E94CD1A7C0115
:10394000009759F0A801BE010E94B91CCE010E9447
:10395000651BC70104C0CE0102C080E090E0CDB776
:10396000DEB7EEE00C94051981E090E0F8940C9439
:10397000EE1CFB01DC0102C001900D924150504051
:10398000D8F70895FC018191861721F08823D9F793
:10399000992708953197CF010895FB01DC0101902B
:1039A0000D920020E1F70895FB0151915523A9F0F4
:1039B000BF01DC014D9145174111E1F759F4CD01EB
:1039C0000190002049F04D9140154111C9F3FB01D0
:1039D0004111EFCF81E090E00197089510E0C0E839
:1039E000D0E004C0FE010E9459192196C138D107C8
:0639F000C9F7F894FFCFB7
:1039F60064000000B4420000E50280000000000000
:103A06004201AC00D9008F010A01E800FC00000069
:103A160000007B02C302DA015802BB0112026602F1
:103A260034027002C3015302F0015D0200004843F4
:103A3600B4055374617274696E670047310047308C
:103A46003100580059005A004C0052004C2D0052CB
:103A56002D00473238004D3137004D313800473997
:103A66003200473932204800474F000D0A002D31F9
:023A760000004E
:00000001FF
